:100000000C944B010C9476060C94A1060C94CC062F
:100010000C94F7060C9422070C944D070C94780767
:100020000C94A3070C94B7010C94B7010C94B7017E
:100030000C947C010C947C010C947C010C947C014C
:100040000C947C010C947C010C947C010C947C013C
:100050000C947C010C947C010C947C010C94DE07C4
:100060000C947C010C941A050C9450050C947C01A2
:100070000C947C010C947C010C947C010C947C010C
:100080000C947C010C947C010C947C010C947C01FC
:100090000C947C010C947C010C947C010C947C01EC
:1000A0000C947C010C947C010C947C010C947C01DC
:1000B0000C947C010C947C010C94CD020C943302C2
:1000C0000C947C030C947C010C947C010C94B10581
:1000D0000C94E7050C947C010C947C010C947C013D
:1000E0000C947C010C94B8080C948C080C94C703F5
:1000F0000C941B060C94F5030C9496080C945B046A
:100100000C94AE080C9411060C94D3030C947B044D
:100110000C9404040C94D1080C947A050C944806B1
:100120000C9484050C9475060C94B2080C949208F7
:100130000C94C0080C94CA080C94C6080C94AA0825
:100140000C94BC080C94CE080C94A0080C94E10309
:100150000C94D2080C94A4080C949A080000000A8D
:100160000B0C00000000000D0E0F0900000000083D
:10017000040506000000000000111213000000003A
:10018000000000000000000000000000000000006F
:10019000000000000000000000000000000000005F
:1001A000000000000000000000000000000000004F
:1001B00000030102040810204080010204081020FE
:1001C0004001020408102040808008100102040849
:1001D000102040800102040810204080010201022A
:1001E00004081020408001020408102040048040D0
:1001F0002010080402018001020408102040800140
:1002000002040810204080200505050505050505A8
:10021000080808080808080202020202020202088E
:1002200007070C0C0C0C0C0C0C0C04040404040448
:100230000404070703030303030303030A0A0A0A68
:100240000A0A0A0701010101010101010A06060665
:1002500006060606060B0B0B0B0B0B0B0B07000021
:100260002200250028002B002E003100340002015E
:100270000000050108010B010000210024002700F7
:100280002A002D00300033000101000004010701A5
:100290000A0184051B0611241FBECFEFD1E2DEBF89
:1002A000CDBF00E00CBF12E0A0E0B2E0E6EDF2E16D
:1002B00000E00BBF02C007900D92A232B107D9F740
:1002C00024E0A2E2B2E001C01D92AD34B207E1F732
:1002D00011E0CBE4D1E000E006C021970109802FB6
:1002E000FE010E946109C934D10780E00807A9F71F
:1002F0000E94CF070C9469090C94000026E040E8A6
:1003000055E260E070E08AE093E00E94C80426E0D5
:1003100040E855E260E070E087EA93E00E94C8049C
:1003200061E08BE20E94D50861E08BE20C94110938
:1003300087EA93E00E94C703892B49F087EA93E09C
:100340000E94E103682F8AE093E00E947B048AE028
:1003500093E00E94C703892B49F08AE093E00E9452
:10036000E103682F87EA93E00C947B0408951F92C1
:100370000F920FB60F9211240BB60F922F933F934B
:100380004F935F936F937F938F939F93AF93BF939D
:10039000EF93FF93E0916402F0916502309749F08A
:1003A000A685B7858585968D91FF16C09C9189237A
:1003B000B1F4FF91EF91BF91AF919F918F917F9198
:1003C0006F915F914F913F912F910F900BBE0F90C6
:1003D0000FBE0F901F9018959C91892351F7A38908
:1003E000B4899C918589809589238C938689978986
:1003F0000197F1F7608D718DA685B785558538E039
:1004000020E0CB010197F1F7822F90E09595879539
:10041000282F4C91452309F02068315091F7868DA3
:1004200081FD20958091230290E001968F7399279A
:1004300030912202381799F0A0912302B0E0AC5D10
:10044000BD4F2C9380932302828D938D0197F1F7FA
:10045000A389B4898C919589892B8C93AACF868D99
:100460008160868FF1CF1F920F920FB60F921124E9
:100470000BB60F922F933F934F935F936F937F939E
:100480008F939F93EF93FF932091AE026091AD0203
:10049000809128019091290140910803509109030E
:1004A0003091AC022A3080F5840F951F762F717041
:1004B000293009F471E066952F5F371799F3309171
:1004C00020017723F1F0306C3093200190932901C3
:1004D000809328017093AC026093AD022093AE022A
:1004E000FF91EF919F918F917F916F915F914F91CC
:1004F0003F912F910F900BBE0F900FBE0F901F904A
:1005000018953F7B3068E0CF3091AB02E091AA02B2
:100510003E1319C02A3051F42BE02093AE02840F11
:10052000951F9093290180932801DACF1092AE0293
:10053000809120018F7380932001809173008D7FC3
:1005400080937300CDCFEF5FE43408F0E0E0E093F8
:10055000AA02F0E0EA59FD4F30813093AD021092CB
:10056000AC02309120013F7B3068309320012A306B
:1005700071F42091080330910903820F931F909327
:1005800029018093280181E08093AE02A9CF809158
:100590002401909125014096F2CF1F920F920FB641
:1005A0000F9211240BB60F922F933F934F935F93AB
:1005B0006F937F938F939F93AF93BF93EF93FF932B
:1005C00080912601909127014091050320912101FE
:1005D000442309F440C02F7B20932101109205038E
:1005E0003091070331113EC0411122C02091010317
:1005F00030910203280F391F30932B0120932A01D9
:1006000024E02ABB20917300246020937300209182
:10061000080330910903820F931F36952795280F01
:10062000391F309304032093030381E08093070371
:10063000FF91EF91BF91AF919F918F917F916F91BA
:100640005F914F913F912F910F900BBE0F900FBE76
:100650000F901F90189520642093210120E820938B
:100660000503BECF4091030350910403609108033A
:1006700070910903DB01A095B095E09105032091ED
:100680000603841B950BA817B90768F126952E2B36
:10069000460F571F3F5F861B970B3930A0F32093FF
:1006A0000603809173008B7F809373008091000319
:1006B0008F5F803508F080E09091FF02981749F035
:1006C000E82FF0E090910603E155FD4F9083809371
:1006D0000003809121018F7B8093210110920503FB
:1006E00010920703A5CF2093060350930403409371
:1006F0000303309307039CCF1F920F920FB60F9204
:1007000011240BB60F922F938F939F93EF93FF9328
:10071000809173008B7F80937300809121018F7B88
:100720008093210180910703209105032058909127
:100730000603893020F49695922B8F5FFACF909321
:100740000603809100038F5F803508F080E02091E0
:10075000FF02281739F0E82FF0E0E155FD4F9083B4
:100760008093000310920703809121018F7B809377
:10077000210110920503FF91EF919F918F912F918D
:100780000F900BBE0F900FBE0F901F901895FC019D
:10079000918D228D892F90E0805C9F4F821B910963
:1007A0008F7399270895FC01918D828D981731F0F0
:1007B000828DE80FF11D858D90E008958FEF9FEFFA
:1007C0000895FC01918D828D981761F0A28DAE0F76
:1007D000BF2FB11D5D968C91928D9F5F9F73928FFD
:1007E00090E008958FEF9FEF0895FC01538D448DA5
:1007F000252F30E0842F90E0821B930B541710F0CC
:10080000CF960895019708958AE795E0892B49F0DE
:1008100080E090E0892B29F00E947A0581110E94E6
:10082000000080E090E0892B49F080E090E0892B87
:1008300029F00E94000081110E94000081E196E0F1
:10084000892B49F080E090E0892B29F00E94110665
:1008500081110E94000080E090E0892B49F080E047
:1008600090E0892B29F00E94000081110C94000077
:100870000895FC01A48DA80FB92FB11DA35ABF4F35
:100880002C91848D90E001968F739927848FA6898F
:10089000B7892C93A089B1898C91837080648C93E3
:1008A000938D848D981306C00288F389E02D808192
:1008B0008F7D80830895CF93DF93EC01888D88230B
:1008C000B9F0AA89BB89E889F9898C9185FD03C0B3
:1008D000808186FD0DC00FB607FCF7CF8C9185FF98
:1008E000F2CF808185FFEDCFCE010E943904E9CFA0
:1008F000DF91CF910895EF92FF920F931F93CF93C3
:10090000DF93EC0181E0888F9B8D8C8D98131AC04A
:10091000E889F989808185FF15C09FB7F894EE8931
:10092000FF896083E889F98980818370806480838E
:100930009FBF81E090E0DF91CF911F910F91FF90D9
:10094000EF900895F62E0B8D10E00F5F1F4F0F7381
:100950001127E02E8C8D8E110CC00FB607FCFACF3C
:10096000E889F989808185FFF5CFCE010E9439049D
:10097000F1CFEB8DEC0FFD2FF11DE35AFF4FF0820D
:100980009FB7F8940B8FEA89FB8980818062CFCF73
:10099000CF92DF92EF92FF921F93CF93DF93EC0100
:1009A0006A017B01122F60E874E88EE190E0A701F4
:1009B00096010E943F09215031094109510956957C
:1009C000479537952795E889F98982E08083211535
:1009D00080E1380798F0E889F989108260E472E4D0
:1009E0008FE090E0A70196010E943F092150310954
:1009F000410951095695479537952795EC85FD8511
:100A00003083EE85FF852083188EEC89FD89108365
:100A1000EA89FB89808188698083EA89FB898081F2
:100A20008F7D8083DF91CF911F91FF90EF90DF90BA
:100A3000CF9008951F920F920FB60F9211240BB60C
:100A40000F922F938F939F93EF93FF93E0911A034D
:100A5000F0911B038081E0912003F091210382FD3E
:100A60001DC09081809123038F5F8F732091240399
:100A7000821741F0E0912303F0E0E65FFC4F958F91
:100A800080932303FF91EF919F918F912F910F906E
:100A90000BBE0F900FBE0F901F9018958081F2CF64
:100AA0001F920F920FB60F9211240BB60F922F9335
:100AB0003F934F935F936F937F938F939F93AF93E6
:100AC000BF93EF93FF938AE093E00E943904FF9174
:100AD000EF91BF91AF919F918F917F916F915F91B6
:100AE0004F913F912F910F900BBE0F900FBE0F9023
:100AF0001F9018958AE093E00E94C70321E0892B9C
:100B000009F420E0822F0895EAE0F3E013821282D4
:100B100088EE93E0A0E0B0E084839583A683B7835A
:100B200084E192E09183808385EC90E095878487CF
:100B300084EC90E09787868780EC90E0918B808BA7
:100B400081EC90E0938B828B82EC90E0958B848B90
:100B500086EC90E0978B868B118E128E138E148EFE
:100B600008951F920F920FB60F9211240BB60F9299
:100B70002F938F939F93EF93FF93E091B703F0919F
:100B8000B8038081E091BD03F091BE0382FD1DC0DA
:100B900090818091C0038F5F8F732091C103821772
:100BA00041F0E091C003F0E0E955FC4F958F809350
:100BB000C003FF91EF919F918F912F910F900BBEEA
:100BC0000F900FBE0F901F9018958081F2CF1F924B
:100BD0000F920FB60F9211240BB60F922F933F93E3
:100BE0004F935F936F937F938F939F93AF93BF9335
:100BF000EF93FF9387EA93E00E943904FF91EF910E
:100C0000BF91AF919F918F917F916F915F914F9124
:100C10003F912F910F900BBE0F900FBE0F901F9022
:100C2000189587EA93E00E94C70321E0892B09F415
:100C300020E0822F0895E7EAF3E01382128288EE23
:100C400093E0A0E0B0E084839583A683B78384E13A
:100C500092E09183808385ED90E09587848784ED91
:100C600090E09787868780ED90E0918B808B81ED77
:100C700090E0938B828B82ED90E0958B848B86ED58
:100C800090E0978B868B118E128E138E148E0895A2
:100C9000AF92BF92CF92DF92EF92FF920F931F938A
:100CA000CF93DF936C017B018B01040F151FEB01C8
:100CB0005E01AE18BF08C017D10759F06991D6017F
:100CC000ED91FC910190F081E02DC6011995892BE1
:100CD00079F7C501DF91CF911F910F91FF90EF90B0
:100CE000DF90CF90BF90AF90089508951F920F921C
:100CF0000FB60F9211240BB60F922F933F934F9381
:100D00005F936F937F938F939F93AF93BF93EF9373
:100D1000FF93E0910002F09101021995FF91EF918C
:100D2000BF91AF919F918F917F916F915F914F9103
:100D30003F912F910F900BBE0F900FBE0F901F9001
:100D400018951F920F920FB60F9211240BB60F92A7
:100D50002F933F934F935F936F937F938F939F93C3
:100D6000AF93BF93EF93FF93E0910202F0910302E0
:100D70001995FF91EF91BF91AF919F918F917F91C5
:100D80006F915F914F913F912F910F900BBE0F90FC
:100D90000FBE0F901F9018951F920F920FB60F92D3
:100DA00011240BB60F922F933F934F935F936F9342
:100DB0007F938F939F93AF93BF93EF93FF93E091B4
:100DC0000402F09105021995FF91EF91BF91AF9147
:100DD0009F918F917F916F915F914F913F912F9153
:100DE0000F900BBE0F900FBE0F901F9018951F9283
:100DF0000F920FB60F9211240BB60F922F933F93C1
:100E00004F935F936F937F938F939F93AF93BF9312
:100E1000EF93FF93E0910602F09107021995FF917D
:100E2000EF91BF91AF919F918F917F916F915F9162
:100E30004F913F912F910F900BBE0F900FBE0F90CF
:100E40001F9018951F920F920FB60F9211240BB698
:100E50000F922F933F934F935F936F937F938F9353
:100E60009F93AF93BF93EF93FF93E0910802F091AC
:100E700009021995FF91EF91BF91AF919F918F91C9
:100E80007F916F915F914F913F912F910F900BBE8A
:100E90000F900FBE0F901F9018951F920F920FB6D4
:100EA0000F9211240BB60F922F933F934F935F93A2
:100EB0006F937F938F939F93AF93BF93EF93FF9322
:100EC000E0910A02F0910B021995FF91EF91BF9109
:100ED000AF919F918F917F916F915F914F913F91D2
:100EE0002F910F900BBE0F900FBE0F901F90189573
:100EF0001F920F920FB60F9211240BB60F922F93E1
:100F00003F934F935F936F937F938F939F93AF9391
:100F1000BF93EF93FF93E0910C02F0910D021995AE
:100F2000FF91EF91BF91AF919F918F917F916F91C1
:100F30005F914F913F912F910F900BBE0F900FBE7D
:100F40000F901F9018951F920F920FB60F921124B9
:100F50000BB60F922F933F934F935F936F937F93B3
:100F60008F939F93AF93BF93EF93FF93E0910E0204
:100F7000F0910F021995FF91EF91BF91AF919F9161
:100F80008F917F916F915F914F913F912F910F9032
:100F90000BBE0F900FBE0F901F90189508950E94E2
:100FA00028080E94CE070E947E01C4E0D4E00E947F
:100FB00098012097E1F30E940404F9CF1F920F9249
:100FC0000FB60F9211242F933F938F939F93AF935C
:100FD000BF938091490490914A04A0914B04B09131
:100FE0004C043091480426E0230F2D3768F129E89E
:100FF000230F0396A11DB11D20934804809349043B
:1010000090934A04A0934B04B0934C048091440401
:1010100090914504A0914604B09147040196A11D0A
:10102000B11D8093440490934504A0934604B0936B
:101030004704BF91AF919F918F913F912F910F9056
:101040000FBE0F901F9018950296A11DB11DD4CF11
:10105000789484B5836084BD85B5836085BDEEE6F4
:10106000F0E0808181608083E1E8F0E082E08083CD
:10107000808181608083E0E8F0E08081816080830E
:10108000E1EBF0E0808184608083E0EBF0E0808140
:1010900081608083E1E9F0E0808183608083E0E922
:1010A000F0E0808181608083E1EAF0E0808183600C
:1010B0008083E0EAF0E0808181608083E1E2F1E01A
:1010C000808183608083E0E2F1E0808181608083C1
:1010D00086E880937A001092C10008958250823190
:1010E00008F05FC0E82FF0E08827E658F74F8F4FF1
:1010F0000C946109CE08D2088C0892089608D10891
:101100009A08A008A408AA08AE08B208B808BC0843
:10111000D108C008C608CA08809180008F778093E4
:1011200080000895809180008F7DF9CF80918000AC
:10113000877FF5CF8091B0008F778093B0000895BE
:101140008091B0008F7DF9CF809190008F77809350
:1011500090000895809190008F7DF9CF809190004C
:10116000877FF5CF8091A0008F778093A0000895AE
:101170008091A0008F7DF9CF8091A000877FF5CF6F
:10118000809120018F778093200108958091200124
:101190008F7DF9CF80912001877FF5CF84B58F7740
:1011A00084BD089584B58F7DFBCFCF93DF9390E00E
:1011B000FC01EE54FE4F2491885F9D4FFC01849109
:1011C0008823C9F090E0880F991FFC01E858FD4F73
:1011D000A591B491FC01E25AFD4FC591D4916111E2
:1011E0000DC09FB7F8948C91209582238C938881B1
:1011F000282328839FBFDF91CF910895623051F457
:101200009FB7F8943C91822F809583238C93E8813B
:101210002E2BEFCF8FB7F894EC912E2B2C938FBF02
:10122000EACF1F93CF93DF93282F30E0F901E45AE0
:10123000FE4F8491F901EE54FE4FD491F901E85F1D
:10124000FD4FC491CC23A9F0162F81110E946E0886
:10125000EC2FF0E0EE0FFF1FE25AFD4FA591B49185
:101260008FB7F894EC91111108C0D095DE23DC9370
:101270008FBFDF91CF911F910895DE2BF8CFA1E2B0
:101280001A2EAA1BBB1BFD010DC0AA1FBB1FEE1F00
:10129000FF1FA217B307E407F50720F0A21BB30B4B
:1012A000E40BF50B661F771F881F991F1A9469F7C7
:1012B00060957095809590959B01AC01BD01CF0123
:1012C0000895EE0FFF1F881F8BBF0790F691E02D4A
:0612D0001994F894FFCF11
:1012D600750600000000000000000000000000008D
:1012E600000000007B044806F5035B04C703E10326
:0212F600D30320
:00000001FF
