:020000040000FA
:100000000C94BF010C94F0010C94F0010C94F001DD
:100010000C94F0010C94F0010C94F0010C94F0019C
:100020000C94F0010C94F0010C94F0010C94F0018C
:100030000C94F0010C94F0010C94F0010C94F0017C
:100040000C94F0010C94F0010C94F0010C94F0016C
:100050000C94F0010C94F0010C94F0010C94310D0F
:100060000C94F0010C94FF090C94350A0C94F001E7
:100070000C94F0010C94F0010C94F0010C94F0013C
:100080000C94F0010C94F0010C94F0010C94F0012C
:100090000C94960A0C94CC0A0C94F0010C94F00188
:1000A0000C94F0010C94F0010C94F0010C94F0010C
:1000B0000C94F0010C94F0010C94F0010C94F001FC
:1000C0000C94F0010C94F0010C94F0010C942D0BA5
:1000D0000C94630B0C94F0010C94F0010C94F0015F
:1000E0000C94F0010C94DA080C946D0E0C94820EB2
:1000F0000C94AC080C944B0E0C94D8030C943D0E4D
:100100000C945F0E0C947B0E0C94430E0C94690AB5
:100110000C9496030C94830E0C9440090C94A70342
:100120000C94B8080C94C6080C9460090C948503D0
:100130000C9420040C94E9080C947F0E0C94550E3A
:100140000C94F60A0C94690E0C945F0A0C94000B44
:100150000C948D0B0C94510E0C94470E0C94C40B04
:100160000C94970B0C942E040C94770E0C94710E37
:100170000C94630E0C945B0E4154004465746563EB
:100180007465643A200041542B4341524543563D27
:10019000302C35300041542B434141434B3D30001E
:1001A00041542B43414F50454E3D302C302C22556D
:1001B0004450222C223230372E3135342E32353114
:1001C0002E313731222C383038300041542B434EF9
:1001D0004143543F0041542B434E4143543D302C46
:1001E000310041542B43474154543F0041542B4369
:1001F000474E41504E0041542B434F50533F004116
:10020000542B4346554E3D310041542B4347444304
:100210004F4E543D312C224950222C22696F742EAE
:10022000316E63652E6E6574220041542B43465532
:100230004E3D300041542B4353510041542B475302
:100240004E000000000A0B0C00000000000D0E0F15
:10025000090000000008040506000000000000116D
:100260001213000000000000000000000000000069
:10027000000000000000000000000000000000007E
:10028000000000000000000000000000000000006E
:10029000000000000000000301020408102040805C
:1002A0000102040810204001020408102040808050
:1002B00008100102040810204080010204081020E8
:1002C000408001020102040810204080010204085D
:1002D0001020400480402010080402018001020424
:1002E00008102040800102040810204080200505ED
:1002F00005050505050508080808080808020202A2
:1003000002020202020807070C0C0C0C0C0C0C0C6D
:10031000040404040404040407070303030303039D
:1003200003030A0A0A0A0A0A0A0701010101010174
:1003300001010A06060606060606060B0B0B0B0B4A
:100340000B0B0B0700002200250028002B002E00BD
:100350003100340002010000050108010B0100001A
:100360002100240027002A002D0030003300010165
:100370000000040107010A01690A000B970B112410
:100380001FBECFEFD1E2DEBFCDBF00E00CBF12E059
:10039000A0E0B2E0E0E8F4E200E00BBF02C00790AA
:1003A0000D92A634B107D9F726E0A6E4B2E001C069
:1003B0001D92AC32B207E1F711E0CFEBD1E000E0E3
:1003C00006C021970109802FFE010E94270FCC3B18
:1003D000D10780E00807A9F70E94220D0C943E1275
:1003E0000C940000AF92BF92CF92DF92EF92FF92F7
:1003F0000F931F93CF93DF9300D000D000D01F92B4
:10040000CDB7DEB78E010F5F1F4F8AE0D8011D9276
:100410008A95E9F78091E0029091E1020A977AEAE1
:10042000E72E72E0F72EF801A8E0CA2ED12C21E0C9
:1004300030E0AC0147705527452B11F430E020E047
:10044000AC0197FF02C0495F5F4F63E05595479548
:100450006A95E1F7240F351FAF01401B510B42177E
:100460005307FCF4B6010E94F10EAC0118161906F0
:1004700014F048E050E06081A1E7B3E0B12CA12C7A
:10048000C50101962D9101C0220FAA94EAF7622BB3
:100490005C0184179507A1F76193D7016D937D01E6
:1004A000C6CF8AEA92E02A960FB6F894DEBF0FBE56
:1004B000CDBFDF91CF911F910F91FF90EF90DF9013
:1004C000CF90BF90AF900895AF92BF92CF92DF923E
:1004D000EF92FF920F931F93CF93DF931092E1025D
:1004E0001092E002E6E4F2E024E6DF011D922A9594
:1004F000E9F78B0177FF02C00F5F1F4F1595079536
:10050000EC0136E4A32E32E0B32ED12CC12CC01660
:10051000D106ECF4E8808981FE2CE82E4AE050E018
:10052000B7018CE494E00E94FB0CF501E192F1929A
:100530005F018091E0029091E10201969093E102C7
:100540008093E002FFEFCF1ADF0A2296E0CF86E425
:1005500092E0DF91CF911F910F91FF90EF90DF908C
:10056000CF90BF90AF900895FC0120813181245D30
:100570003E4F3183208321E030E03093E10220932D
:10058000E00208950F931F93CF93DF938C01CAE18C
:10059000D4E0CE018A5194408017910774F4699198
:1005A00040E150E08CE494E00E941A0D6CE172E0AE
:1005B0008CE494E00E94240CECCF8CE494E0DF9176
:1005C000CF911F910F910C94330C60E08BE20E944D
:1005D000C20E60ED77E080E090E00E94A00D61E047
:1005E0008BE20C94C20EE8EFF2E088E7DF011D9287
:1005F0008A95E9F70895CF93DF93809113032091B3
:100600001203022E000C330B205331098033C4F443
:100610003093E1022093E002ECE1F0E02091E0026F
:100620003091E102E850FD4FA0E7B3E0CD018057E3
:10063000934082179307BCF4819180538D93F6CF3A
:100640009AE0929FA001939F500D1124082E000C58
:10065000990BC097840F951F9093E1028093E0025D
:10066000EDE1F0E0DBCFC0E7D3E02091E002309194
:10067000E102CE01805793408217930744F46991B9
:100680004AE050E08CE494E00E941A0DEECF8CE436
:1006900094E00E94330CDF91CF910C94F302E8EECA
:1006A000F3E082E3DF011D928A95E9F708950F9345
:1006B0001F93CF93DF93EAE1F4E082E3DF011D9221
:1006C0008A95E9F71092E202E091E9031092E102C3
:1006D0001092E002E150E03108F0B2C0F0E088276B
:1006E000EB58FC4F8F4F0C94270FD803A7039603AA
:1006F00085032E042E04200420042004200420045A
:100700002004200420042E042E048091EA0390E0AB
:10071000ABEEB3E0EAE1F4E09F012A513440281740
:1007200039070CF096C02D912193F6CF8091EA0302
:1007300090E0ABEEB3E0EAE1F4E09F012A513440EF
:10074000281739070CF085C02D912193F6CF8091A1
:10075000EA0390E0DC0143E0AA0FBB1F4A95E1F7F2
:10076000E8EEF3E001E010E09F01285E3340281737
:1007700039070CF050C06381CAE1D4E030E020E0DA
:1007800070E02A173B070CF044C0A801022E02C0FB
:10079000440F551F0A94E2F746235723022E02C046
:1007A000559547950A94E2F749932F5F3F4FE9CF5C
:1007B0008091EA0390E0DC0133E0AA0FBB1F3A9579
:1007C000E1F7E8EEF3E001E010E09F01285E33403E
:1007D0002817390704F56381CAE1D4E030E020E04E
:1007E00070E02A173B079CF4A801022E02C0440FB8
:1007F000551F0A94E2F746235723022E02C055954F
:1008000047950A94E2F749932F5F3F4FEACF31961D
:10081000DCCF3196A9CF8A9F90018B9F300D9A9F94
:10082000300D11243093E1022093E00223E0880F81
:10083000991F2A95E1F70E94C20281E08093E202AB
:100840000E944F038AE194E0DF91CF911F910F91B5
:1008500008959093E1028093E002EDCFC1E0C09350
:100860001A0481E090E00E94C202C093E202E8CF45
:10087000AC01FC018FEF9FEF9F01241B350B261766
:1008800037079CF42191822728E030E0DC01A17039
:10089000BB2796958795AB2B21F0A1E08A27A0EA8C
:1008A0009A272150310991F7E7CF0895FC0190E094
:1008B00080E06150710977FD18C02191022E000C73
:1008C000330B322F22278227932728E0AC01440FD5
:1008D000551F97FF08C0CA0131E2832730E19327F3
:1008E0002150A1F7E6CFCA01FBCF08956EE172E077
:1008F00088EF92E00E944E0F892B41F161E080E485
:100900000E94C20E6DE770E080E090E00E94A00DB2
:1009100060E080E40E94C20E6DE770E080E090E04D
:100920000E94A00D61E080E40E94C20E6DE770E0BD
:1009300080E090E00E94A00D60E080E40E94C20E82
:100940006DE770E080E090E00C94A00D64E272E04E
:1009500088EF92E00E944E0F61E0892B01F182E462
:100960000E94C20E6DE770E080E090E00E94A00D52
:1009700060E082E40E94C20E6DE770E080E090E0EB
:100980000E94A00D61E082E40E94C20E6DE770E05B
:1009900080E090E00E94A00D60E082E4CFCF82E48E
:1009A0000E94C20E6AEF70E080E090E00E94A00D0D
:1009B00060E082E40E94C20E6AEF70E080E090E0A6
:1009C0000E94A00D61E082E40E94C20E6AEF70E016
:1009D00080E090E00E94A00D60E082E40E94C20EE0
:1009E0006AEF70E080E090E0AFCF0F931F93CF935A
:1009F000DF93BC01990F880B990B0E94A00D89EE23
:100A000094E00E94AC08892B99F089EE94E00E9452
:100A1000AC088C01C8EFD2E0CE01885F924080170D
:100A2000910734F489EE94E00E94C6088993F4CFCC
:100A300064E272E088EF92E00E944E0FC0E0892BE2
:100A400069F06BE771E08CE494E00E94000C64E2D2
:100A500072E08CE494E00E94490CC1E00E94F30231
:100A60008C2FDF91CF911F910F910895CF93DF933A
:100A7000809100028823C1F0C4E0D0E068E771E013
:100A800089EE94E00E94370C8CE291E00E94F5041C
:100A90008093E302811110920002219779F781116E
:100AA000E7CF0E94E502E4CF81E080930002DF916E
:100AB000CF910C94F3020F931F93CF93DF9368EBC6
:100AC0007BE080E090E00E94A00D89EE94E00E941F
:100AD000AC08892B99F089EE94E00E94AC088C0157
:100AE000C8EFD2E0CE01885F9240801791076CF783
:100AF00089EE94E00E94C6088993F4CFDF91CF91EC
:100B00001F910F9108956BE372E089EE94E00E94CB
:100B1000370C0E945B05A1E0B3E0E4EEF2E08D91BA
:100B2000819382E0E33FF807D1F70C94F30264E38A
:100B300072E089EE94E00E94370C0E945B050E94EF
:100B400076040E94F3026AE272E089EE94E00E9469
:100B5000370C0E945B050E9476040E94F30269E054
:100B600072E089EE94E00E94370C0E945B050E94BF
:100B700076040E94F3026FEF71E089EE94E00E9428
:100B8000370C0E945B050E9476040E94F30266EF18
:100B900071E089EE94E00E94370C0E945B050E9490
:100BA00076040E94F3026CEE71E089EE94E00E94FC
:100BB000370C0E945B050E9476040E94F30262EEED
:100BC00071E089EE94E00E94370C0E945B050E9460
:100BD00076040E94F30265ED71E089EE94E00E94D4
:100BE000370C0E945B050E9476040E94F3026BECB6
:100BF00071E089EE94E00E94370C0E945B050E9430
:100C000076040E94F30260EA71E089EE94E00E94AB
:100C1000370C0E945B050E9476040C94F302E1E617
:100C2000F0E080E88083108226E040E855E260E052
:100C300070E089EE94E00E94AD0926E040E855E2BC
:100C400060E070E086E895E00E94AD0961E082E432
:100C50000E94860E61E08BE20E94860E61E08AE2CD
:100C60000E94860E61E081E40E94860E61E080E4CD
:100C70000E94860E60E083E40E94860E61E08BE2B3
:100C80000E94C20E60E08AE20E94C20E68EE73E02B
:100C900080E090E00E94A00D0E9436050E9483052E
:100CA0000E9497050C94F3022F923F924F925F920D
:100CB0006F927F928F929F92AF92BF92CF92DF926C
:100CC000EF92FF920F931F93CF93DF93CDB7DEB7D1
:100CD000CE56D1090FB6F894DEBF0FBECDBF5C0172
:100CE0001B017E0127E4E20EF11C8DE0E8E0F2E05A
:100CF000D70101900D928A95E1F7F7013D9687E0C3
:100D0000DF011D928A95E9F78E010F5F1F4F82E385
:100D1000F80111928A95E9F72E01F5E64F0E511C64
:100D20008AE0D201E82F1D92EA95E9F76E01FBE512
:100D3000CF0ED11CD6011D928A95E9F784EE92E080
:100D40009F938F931F930F930E94680F66E072E04A
:100D5000C8010E94430F63E072E0C8010E94430F84
:100D600061E072E0C8010E94430F35010F900F90BF
:100D70000F900F90B12CA12C97E2892E92E0992E22
:100D8000A214B304E4F4F30180819181F2E06F0EC8
:100D9000711C9F938F939F928F925F924F920E94AC
:100DA000680FB201C8010E94430F2FEFA21AB20AC6
:100DB0000F900F900F900F900F900F90E1CF6AE27D
:100DC00072E0C8010E94430FF80101900020E9F78A
:100DD0003197BF01601B710BC8010E9456049F939D
:100DE0008F938DE292E09F938F93DF92CF920E9438
:100DF000680F0F900F900F900F900F900F90B12CE5
:100E0000A12C85E0882E912CF60101900020E9F7B5
:100E10003197EC19FD09C4018E1B9F0BA816B9066A
:100E200048F46BE272E0C8010E94430F8FEFA81AEA
:100E3000B80AEACFB601C8010E94430FF801019039
:100E40000020E9F73197AF01401B510BB8018CE44A
:100E500094E00E94C40B8CE494E00E94330CF801EF
:100E600001900020E9F73197E01BF10BFF93EF931E
:100E70008DE292E09F938F936E0193E3C90ED11C94
:100E8000DF92CF920E94680FB601C7010E94430F04
:100E9000F70101900020E9F73197AF014E195F0982
:100EA000B70189EE94E00E94C40B89EE94E00E94A1
:100EB000330C0E945B050E9476040E94F302F80145
:100EC00001900020E9F73197AF01401B510BB801A9
:100ED00089EE94E00E94C40B0E945B050E94760498
:100EE0000E94F30265E971E089EE94E00E94370CFC
:100EF0000E945B050E9476040E94F30266E871E09E
:100F000089EE94E00E94370C0E945B050E947604F3
:100F10000E94FB020F900F900F900F900F900F9078
:100F2000C259DF4F0FB6F894DEBF0FBECDBFDF91C1
:100F3000CF911F910F91FF90EF90DF90CF90BF90D6
:100F4000AF909F908F907F906F905F904F903F9069
:100F50002F9008950F931F93CF93DF936CE271E06E
:100F600080E090E00E94A00D86E895E00E94AC0829
:100F7000892B29F186E895E00E94AC088C01C8EE27
:100F8000D3E0CE01885E9340801791079CF486E8F9
:100F900095E00E94C608899340E150E0682F8CE4F8
:100FA00094E00E941A0D6CE172E08CE494E00E94DF
:100FB000240CE7CF8CE494E00E94330CD5CFDF9172
:100FC000CF911F910F910895CF93DF9300D000D060
:100FD0001F921F92CDB7DEB7898383E08A837B831C
:100FE0006C835D834E8366E070E0CE0101960E94C3
:100FF00038048F83988748E050E0BE016F5F7F4FD1
:1010000086E895E00E94C40B0E94AA0728960FB6B6
:10101000F894DEBF0FBECDBFDF91CF910895EF9260
:10102000FF920F931F93CF93DF93CDB7DEB7E29775
:101030000FB6F894DEBF0FBECDBFD90189838FE014
:101040008A837B836C835D834E83CA0157FD079639
:1010500023E0959587952A95E1F74770552701E09C
:10106000452B09F400E0202F280F2F83BD0137E026
:10107000080F192F111DE32EF12C3F5FCB018A1BA6
:101080009B0B8017910764F4FB018191BF0141E044
:1010900050E04C0F5D1FE40EF51EF7018083EBCF8F
:1010A00017FD00E0B701CE0101960E943804E1E08F
:1010B000F0E0EC0FFD1FEE0DFF1D8083E8E0E00F78
:1010C00021E030E02C0F3D1F2E0F311DF9019083E0
:1010D000075F402F50E0BE016F5F7F4F86E895E0CD
:1010E0000E94C40B0E94AA07E2960FB6F894DEBFD6
:1010F0000FBECDBFDF91CF911F910F91FF90EF9069
:10110000089541E050E070E060E081E00E94E40773
:101110000E9457039093DF028093DE026091E00209
:101120007091E1020E9464020E94B4029093DD0279
:101130008093DC026091E0027091E1020E9454060B
:101140000E94F2019C0141E050E070E060E082E02A
:101150000E940F080C944F03FC01918D228D892F62
:1011600090E0805C9F4F821B91098F7399270895AF
:10117000FC01918D828D981731F0828DE80FF11D61
:10118000858D90E008958FEF9FEF0895FC01918D7C
:10119000828D981761F0A28DAE0FBF2FB11D5D96A5
:1011A0008C91928D9F5F9F73928F90E008958FEF47
:1011B0009FEF0895FC01538D448D252F30E0842F3F
:1011C00090E0821B930B541710F0CF96089501976F
:1011D00008958FE59AE0892B49F080E090E0892B13
:1011E00029F00E945F0A81110E94000086EF9AE0B8
:1011F000892B49F080E090E0892B29F00E94F60AC3
:1012000081110E9400008DE89BE0892B49F080E06D
:1012100090E0892B29F00E948D0B81110E94000023
:1012200080E090E0892B49F080E090E0892B29F064
:101230000E94000081110C9400000895FC01A48D0F
:10124000A80FB92FB11DA35ABF4F2C91848D90E0E8
:1012500001968F739927848FA689B7892C93A089CB
:10126000B1898C91837080648C93938D848D981355
:1012700006C00288F389E02D80818F7D80830895E8
:10128000CF93DF93EC01888D8823B9F0AA89BB89BD
:10129000E889F9898C9185FD03C0808186FD0DC0A8
:1012A0000FB607FCF7CF8C9185FFF2CF808185FFC9
:1012B000EDCFCE010E941E09E9CFDF91CF910895B5
:1012C000EF92FF920F931F93CF93DF93EC0181E096
:1012D000888F9B8D8C8D98131AC0E889F98980813D
:1012E00085FF15C09FB7F894EE89FF896083E88970
:1012F000F98980818370806480839FBF81E090E062
:10130000DF91CF911F910F91FF90EF900895F62EEE
:101310000B8D10E00F5F1F4F0F731127E02E8C8D88
:101320008E110CC00FB607FCFACFE889F9898081CD
:1013300085FFF5CFCE010E941E09F1CFEB8DEC0F9A
:10134000FD2FF11DE35AFF4FF0829FB7F8940B8FEA
:10135000EA89FB8980818062CFCFCF92DF92EF92C2
:10136000FF921F93CF93DF93EC016A017B01122F51
:1013700060E874E88EE190E0A70196010E94050FF5
:1013800021503109410951095695479537952795BF
:10139000E889F98982E08083211580E1380798F097
:1013A000E889F989108260E472E48FE090E0A70197
:1013B00096010E94050F21503109410951095695A6
:1013C000479537952795EC85FD853083EE85FF851C
:1013D0002083188EEC89FD891083EA89FB8980813E
:1013E00088698083EA89FB8980818F7D8083DF9192
:1013F000CF911F91FF90EF90DF90CF9008951F92B3
:101400000F920FB60F9211240BB60F922F938F935A
:101410009F93EF93FF93E0915C04F0915D048081D2
:10142000E0916204F091630482FD1DC0908180917F
:1014300065048F5F8F7320916604821741F0E091FD
:101440006504F0E0E45BFB4F958F80936504FF91AA
:10145000EF919F918F912F910F900BBE0F900FBE28
:101460000F901F9018958081F2CF1F920F920FB6A8
:101470000F9211240BB60F922F933F934F935F93CC
:101480006F937F938F939F93AF93BF93EF93FF934C
:101490008CE494E00E941E09FF91EF91BF91AF91FF
:1014A0009F918F917F916F915F914F913F912F917C
:1014B0000F900BBE0F900FBE0F901F9018958CE4ED
:1014C00094E00E94AC0821E0892B09F420E0822FEF
:1014D0000895ECE4F4E01382128288EE93E0A0E039
:1014E000B0E084839583A683B78384E392E09183FD
:1014F000808385EC90E09587848784EC90E09787E3
:10150000868780EC90E0918B808B81EC90E0938BD0
:10151000828B82EC90E0958B848B86EC90E0978BAD
:10152000868B118E128E138E148E08951F920F9239
:101530000FB60F9211240BB60F922F938F939F9398
:10154000EF93FF93E091F904F091FA048081E09128
:10155000FF04F091000582FD1DC09081809102057D
:101560008F5F8F7320910305821741F0E091020590
:10157000F0E0E751FB4F958F80930205FF91EF91CB
:101580009F918F912F910F900BBE0F900FBE0F90D8
:101590001F9018958081F2CF1F920F920FB60F9275
:1015A00011240BB60F922F933F934F935F936F933A
:1015B0007F938F939F93AF93BF93EF93FF9389EEA6
:1015C00094E00E941E09FF91EF91BF91AF919F910E
:1015D0008F917F916F915F914F913F912F910F90DC
:1015E0000BBE0F900FBE0F901F90189589EE94E0E0
:1015F0000E94AC0821E0892B09F420E0822F089595
:10160000E9EEF4E01382128288EE93E0A0E0B0E00D
:1016100084839583A683B78384E392E09183808358
:101620008DEC90E0958784878CEC90E09787868797
:1016300088EC90E0918B808B89EC90E0938B828B8F
:101640008AEC90E0958B848B8EEC90E0978B868B68
:10165000118E128E138E148E08951F920F920FB654
:101660000F9211240BB60F922F938F939F93EF93AA
:10167000FF93E0919605F09197058081E0919C059C
:10168000F0919D0582FD1DC0908180919F058F5F27
:101690008F732091A005821741F0E0919F05F0E043
:1016A000EA57FA4F958F80939F05FF91EF919F9195
:1016B0008F912F910F900BBE0F900FBE0F901F9028
:1016C00018958081F2CF1F920F920FB60F921124BE
:1016D0000BB60F922F933F934F935F936F937F932C
:1016E0008F939F93AF93BF93EF93FF9386E895E01B
:1016F0000E941E09FF91EF91BF91AF919F918F9131
:101700007F916F915F914F913F912F910F900BBE01
:101710000F900FBE0F901F90189586E895E00E94DD
:10172000AC0821E0892B09F420E0822F0895E6E837
:10173000F5E01382128288EE93E0A0E0B0E08483AB
:101740009583A683B78384E392E09183808385EDBC
:1017500090E09587848784ED90E09787868780ED79
:1017600090E0918B808B81ED90E0938B828B82ED6A
:1017700090E0958B848B86ED90E0978B868B118E15
:10178000128E138E148E0895AF92BF92CF92DF9275
:10179000EF92FF920F931F93CF93DF936C017B0126
:1017A0008B01040F151FEB015E01AE18BF08C017B7
:1017B000D10759F06991D601ED91FC910190F0812A
:1017C000E02DC6011995892B79F7C501DF91CF91DD
:1017D0001F910F91FF90EF90DF90CF90BF90AF904F
:1017E0000895FB0101900020E9F73197AF01461BF6
:1017F000570BDC01ED91FC910280F381E02D1994EF
:10180000EF92FF920F931F93CF93DF938C017B0195
:10181000D0E0C0E0F701EC0FFD1F6491662361F09A
:10182000D801ED91FC910190F081E02DC80119954E
:10183000892B11F02196EECFCE01DF91CF911F9130
:101840000F91FF90EF9008956115710511F00C94C0
:10185000F10B90E080E00895DC01ED91FC910190A6
:10186000F081E02D199462E472E00C94F10B0F9377
:101870001F93CF93DF93EC010E94000C8C01CE01EB
:101880000E94330C800F911FDF91CF911F910F9118
:1018900008950F931F93CF93DF938C01D0E0C0E0A6
:1018A0006115710519F00E94F10BEC01C8010E944D
:1018B000330C8C0F9D1FDF91CF911F910F910895D5
:1018C0008F929F92AF92BF92EF92FF920F931F93CE
:1018D000CF93DF93CDB7DEB7A1970FB6F894DEBFF5
:1018E0000FBECDBF7C01FA01CB0119A2223008F452
:1018F0002AE08E010F5D1F4F822E912CB12CA12C5E
:10190000BF01A50194010E94050FF901CA016A30C7
:101910000CF5605DD8016E938D01232B242B252BB4
:1019200079F790E080E0109721F0BD01C7010E9497
:10193000F10BA1960FB6F894DEBF0FBECDBFDF91BD
:10194000CF911F910F91FF90EF90BF90AF909F901C
:101950008F900895695CDECFCF92DF92EF92FF9275
:101960000F931F93CF93DF932115310581F4DC0191
:10197000ED91FC910190F081E02D642FDF91CF91EA
:101980001F910F91FF90EF90DF90CF9019942A3024
:10199000310501F52AE077FF1DC06A017B01EC01EA
:1019A0006DE20E942C0C8C0144275527BA014C197A
:1019B0005D096E097F092AE0CE010E94600C800F4C
:1019C000911FDF91CF911F910F91FF90EF90DF90CA
:1019D000CF900895DF91CF911F910F91FF90EF90DD
:1019E000DF90CF900C94600C9A01AB01770F660BDF
:1019F000770B0C94AC0C0F931F93CF93DF93EC01F8
:101A00000E94F40C8C01CE010E94330C800F911FB8
:101A1000DF91CF911F910F9108952115310541F468
:101A2000DC01ED91FC910190F081E02D642F19947F
:101A30000C94600C9A01462F50E070E060E00C942A
:101A40000D0D08950E94D90D0E94210D0E940F06D0
:101A5000C9EED8E00E9481082097E1F30E94E908CE
:101A6000F9CF1F920F920FB60F9211242F933F932D
:101A70008F939F93AF93BF938091280690912906EF
:101A8000A0912A06B0912B063091270626E0230F5D
:101A90002D3768F129E8230F0396A11DB11D20936E
:101AA00027068093280690932906A0932A06B093D0
:101AB0002B068091230690912406A0912506B091D3
:101AC00026060196A11DB11D80932306909324063E
:101AD000A0932506B0932606BF91AF919F918F9159
:101AE0003F912F910F900FBE0F901F901895029667
:101AF000A11DB11DD4CF3FB7F894809123069091DA
:101B00002406A0912506B091260626B5A89B05C0FF
:101B10002F3F19F00196A11DB11D3FBFBA2FA92F6C
:101B2000982F8827BC01CD01620F711D811D911D69
:101B300043E0660F771F881F991F4A95D1F70895D4
:101B40008F929F92AF92BF92CF92DF92EF92FF92CD
:101B50006B017C010E947B0D4B015C01C114D1041F
:101B6000E104F104E9F00E94F00E0E947B0D681977
:101B700079098A099B09683E73408105910570F3D4
:101B800021E0C21AD108E108F10888EE880E83E04E
:101B9000981EA11CB11CC114D104E104F10429F761
:101BA000FF90EF90DF90CF90BF90AF909F908F907D
:101BB0000895789484B5836084BD85B5836085BDC0
:101BC000EEE6F0E0808181608083E1E8F0E082E091
:101BD0008083808181608083E0E8F0E080818160A3
:101BE0008083E1EBF0E0808184608083E0EBF0E0D3
:101BF000808181608083E1E9F0E08081836080837F
:101C0000E0E9F0E0808181608083E1EAF0E08081BA
:101C100083608083E0EAF0E0808181608083E1E29C
:101C2000F1E0808183608083E0E2F1E08081816087
:101C3000808386E880937A001092C10008958250D4
:101C4000823108F05FC0E82FF0E08827E55DF14FB2
:101C50008F4F0C94270F7F0E830E3D0E430E470EC1
:101C6000820E4B0E510E550E5B0E5F0E630E690E0B
:101C70006D0E820E710E770E7B0E809180008F7735
:101C8000809380000895809180008F7DF9CF8091AE
:101C90008000877FF5CF8091B0008F778093B00070
:101CA00008958091B0008F7DF9CF809190008F775B
:101CB000809390000895809190008F7DF9CF80915E
:101CC0009000877FF5CF8091A0008F778093A00050
:101CD00008958091A0008F7DF9CF8091A000877F2B
:101CE000F5CF809120018F77809320010895809116
:101CF00020018F7DF9CF80912001877FF5CF84B5BA
:101D00008F7784BD089584B58F7DFBCFCF93DF930C
:101D100090E0FC01E856FD4F249182519D4FFC015B
:101D200084918823C9F090E0880F991FFC01E25A42
:101D3000FC4FA591B491FC01EC5BFC4FC591D49193
:101D400061110DC09FB7F8948C91209582238C93DC
:101D50008881282328839FBFDF91CF910895623027
:101D600051F49FB7F8943C91822F809583238C93F4
:101D7000E8812E2BEFCF8FB7F894EC912E2B2C937C
:101D80008FBFEACF1F93CF93DF93282F30E0F90165
:101D9000EE5BFD4F8491F901E856FD4FD491F901B6
:101DA000E251FD4FC491CC23A9F0162F81110E945E
:101DB0001F0EEC2FF0E0EE0FFF1FEC5BFC4FA59128
:101DC000B4918FB7F894EC91111108C0D095DE232F
:101DD000DC938FBFDF91CF911F910895DE2BF8CF59
:101DE000089597FB072E16F4009407D077FD09D0CD
:101DF0000E942F0F07FC05D03EF4909581959F4FD0
:101E00000895709561957F4F0895A1E21A2EAA1B3F
:101E1000BB1BFD010DC0AA1FBB1FEE1FFF1FA2179A
:101E2000B307E407F50720F0A21BB30BE40BF50B97
:101E3000661F771F881F991F1A9469F76095709520
:101E4000809590959B01AC01BD01CF010895EE0FE7
:101E5000FF1F881F8BBF0790F691E02D1994AA1BD6
:101E6000BB1B51E107C0AA1FBB1FA617B70710F085
:101E7000A61BB70B881F991F5A95A9F780959095B7
:101E8000BC01CD010895FB01DC010D900020E9F7B4
:101E9000119701900D920020E1F70895FB015191F7
:101EA0005523A9F0BF01DC014D9145174111E1F720
:101EB00059F4CD010190002049F04D914015411198
:101EC000C9F3FB014111EFCF81E090E00197089544
:101ED0000F931F93CF93DF93CDB7DEB72E970FB637
:101EE000F894DEBF0FBECDBF0E891F8986E08C83BC
:101EF0001A8309838FEF9FE79E838D83AE01465E31
:101F00005F4F688D798DCE0101960E94980F2F81C9
:101F10003885020F131FF80110822E960FB6F89421
:101F2000DEBF0FBECDBFDF91CF911F910F910895FE
:101F30002F923F924F925F926F927F928F929F92D9
:101F4000AF92BF92CF92DF92EF92FF920F931F93C7
:101F5000CF93DF9300D000D000D01F921F92CDB757
:101F6000DEB77C013B018A01FC0117821682838166
:101F700081FFDDC1CE0101965C01F7019381F30180
:101F800093FD859193FF81913F01882309F453C10B
:101F9000853239F493FD859193FF81913F0185321C
:101FA00029F4B70190E00E94B011E7CF912C212CC9
:101FB000312CFFE1F31538F08B3211F190F48032BF
:101FC00009F1833229F137FC3CC020ED280F2A307B
:101FD00050F536FE20C08AE0989E200D1124922EE6
:101FE00006C08D3291F0803371F7689430F8F301B8
:101FF00093FD859193FF81913F018111DACF21C03B
:10200000689431F8689432F8F2CF689433F8EFCFDF
:10201000689434F8ECCFEAE02E9E200D1124222E95
:10202000689435F8E4CF8E3229F436FC04C1689404
:1020300036F8DDCF8C3619F4689437F8D8CF883667
:10204000B1F2982F9F7D95549330E0F08336A1F143
:102050008337C1F1833509F063C02801F2E04F0EE8
:10206000511CF801C080D180692D70E036FC02C09F
:102070006FEF7FEFC6010E949A114C01689437F808
:1020800082010AC00C5F1F4FFFE3F9838824839409
:10209000912C6501E89437F833FE2DC0522C811441
:1020A000910471F5552009F468CFB70180E290E002
:1020B0000E94B0115A94F6CFF801808189830E5F97
:1020C0001F4FE4CF2801F2E04F0E511CF801C080F1
:1020D000D180692D70E036FC02C06FEF7FEFC60142
:1020E0000E94A5114C018201D5CFB70180E290E09A
:1020F0000E94B0112A942814190409F0B0F7CECF29
:10210000F60137FC859137FE81916F01B70190E0B0
:102110000E94B01151105A94F1E08F1A9108BFCF6C
:10212000843619F0893609F077C0F80137FE6BC0A4
:1021300060817181828193810C5F1F4FF32DFF7647
:102140003F2E97FF09C090958095709561957F4FC0
:102150008F4F9F4F689437F82AE030E0A5010E9426
:10216000E011C82ECA188C2C432C36FE0CC0E89403
:1021700040F8C91440F434FE05C032FC03C0F32D0E
:10218000FE7E4F2E892C44FEAAC0FE01EC0DF11DEF
:102190008081803309F09CC0242D297E422E842D1D
:1021A0008870582E43FCAAC040FEA4C09C2C821408
:1021B00018F42C0C922C981844FEA6C0B70180E3AA
:1021C00090E00E94B01142FE09C088E790E041FE15
:1021D00002C088E590E0B7010E94B011C91408F46C
:1021E0009FC0CA94D12C9FEFC91AD90ACA0CDB1C14
:1021F000F60182916F01B70190E00E94B011AC141A
:10220000BD04B1F74FCF60817181072E000C880BA0
:10221000990B0E5F1F4F92CFD32CE894D4F82AE08D
:1022200030E08537E1F1232D297FD22E8F36A9F1B9
:10223000F0F4883551F1F701868197812B960FB61E
:10224000F894DEBF0FBECDBFDF91CF911F910F91EC
:10225000FF90EF90DF90CF90BF90AF909F908F90C6
:102260007F906F905F904F903F902F9008958037B0
:1022700049F0883701F7D4FE02C06894D2F820E113
:1022800030E00DC06894D4F8F6CF34FE03C0822F3E
:102290008660D82E20E132E002C028E030E0F8016C
:1022A000D7FE0FC060817181828193810C5F1F4FC7
:1022B000A5010E94E011C82ECA183D2CE89437F8F9
:1022C00052CF6081718190E080E00E5F1F4FF0CFB0
:1022D00042FC02C0839463CF8394839460CF842DA7
:1022E000867809F45CCFF6CFB70180E290E00E94D7
:1022F000B01183948214C0F3512C5ECF522C581825
:10230000821408F459CFF8CF842D867809F466CF6B
:102310008BE241FE80E247FC8DE2B70190E05CCFAA
:10232000B70180E390E00E94B0119A9457CF8FEFED
:102330009FEF84CFFC010590615070400110D8F7E9
:10234000809590958E0F9F1F0895FC0161507040FD
:1023500001900110D8F7809590958E0F9F1F0895DA
:102360000F931F93CF93DF93182F092FEB018B81CE
:1023700081FD09C01FEF0FEF812F902FDF91CF91CB
:102380001F910F91089582FF14C02E813F818C818F
:102390009D81281739073CF4E881F981CF01019626
:1023A0009983888310838E819F8101969F838E837A
:1023B000E3CFE885F985812F1995892BA1F3DACF31
:1023C000FA01AA27283051F1203181F1E8946F9366
:1023D0006E7F6E5F7F4F8F4F9F4FAF4FB1E03ED00C
:1023E000B4E03CD0670F781F891F9A1FA11D680FAA
:1023F000791F8A1F911DA11D6A0F711D811D911DDD
:10240000A11D20D009F468943F912AE0269F112451
:102410003019305D3193DEF6CF010895462F4770B5
:10242000405D4193B3E00FD0C9F7F6CF462F4F7010
:10243000405D4A3318F0495D31FD4052419302D06E
:10244000A9F7EACFB4E0A695979587957795679514
:10245000BA95C9F700976105710508959B01AC0114
:102460000A2E06945795479537952795BA95C9F73B
:10247000620F731F841F951FA01D0895F894FFCF4E
:102480000131003133004B0041542B434153454E41
:10249000443D302C000000000000000020004552A8
:1024A000524F52004F4B0025640033300025750019
:1024B000000000006009C40BDA084009AC08C60837
:0624C000B8080D0A00003F
:020000040003F7
:10FC000002C0F4C03CC1112484B790E89093610015
:10FC100010926100882369F0982F9A70923049F011
:10FC200081FF02C097EF94BF282E80E002D10C9490
:10FC3000000085E08093810082E08093C00088E12D
:10FC40008093C10080E18093C40086E08093C2006D
:10FC50008EE0EFD0279A84E028E13EEF91E03093E8
:10FC600085002093840096BBB09BFECF1F9AA89579
:10FC70004091C00047FD02C0815089F7CED0813449
:10FC800079F4CBD0C82FDBD0C23811F480E004C0A7
:10FC900088E0C13809F083E0B9D080E1B7D0EECF79
:10FCA000823419F484E1D3D0F8CF853411F485E09F
:10FCB000FACF853581F4B1D0E82EAFD0F82E87FF8A
:10FCC00007C08BB781608BBFEE0CFF1CB8D0E5CFAF
:10FCD0008BB78E7FF8CF863579F49FD08D3451F471
:10FCE0009CD0CBB79AD0C170880F8C2B8BBF81E092
:10FCF000AED0CCCF83E0FCCF843609F046C08DD0A7
:10FD0000C82FD0E0DC2FCC2788D0C82B86D0D82EA7
:10FD10005E018EEFB81A00E012E04801EFEF8E1A94
:10FD20009E0A7BD0F801808384018A149B04A9F782
:10FD300086D0F5E410E000E0DF1609F150E040E085
:10FD400063E0C70153D08701C12C92E0D92EF601A0
:10FD5000419151916F0161E0C80148D00E5F1F4F82
:10FD60002297A9F750E040E065E0C7013FD095CF6A
:10FD70006081C8018E0D9F1D01D10F5F1F4FF801DB
:10FD8000FE5FC017D107A1F788CF843701F545D0B2
:10FD9000C82FD0E0DC2FCC2740D0C82B3ED0D82EA7
:10FDA0004ED08701F5E4DF120BC0CE0DDF1DC80178
:10FDB000DDD02CD00F5F1F4FC017D107C1F76DCF1B
:10FDC000F80187918F0122D02197D1F766CF85372F
:10FDD00039F435D08EE11AD088E918D081E05CCFB3
:10FDE000813509F073CF88E024D070CFFC010A017F
:10FDF00067BFE895112407B600FCFDCF667029F0B7
:10FE0000452B19F481E187BFE89508959091C000D2
:10FE100095FFFCCF8093C60008958091C00087FFB6
:10FE2000FCCF8091C00084FD01C0A8958091C600E0
:10FE30000895E0E6F0E098E1908380830895EDDF97
:10FE4000803219F088E0F5DFFFCF84E1DFCFCF9378
:10FE5000C82FE3DFC150E9F7CF91F1CFCF92DF9206
:10FE6000EF92FF92DC01CB01642F6D01EE24FF24A1
:10FE7000CBBEA901FF90EF90DF90CF90B7CF2F922C
:10FE80003F924F925F926F927F928F929F92AF922A
:10FE9000BF92CF92DF92EF92FF920F931F93CF9377
:10FEA000DF9300D0CDB7DEB71801E9826B017C018A
:10FEB00010E000E029013A014C185D086E087F0847
:10FEC00046015701840C951CA61CB71C021513058E
:10FED00031F489818823A1F188E0ABDFFFCF30E0E6
:10FEE00020E043E0C701B601B9DF80E890E09B83E2
:10FEF0008A83ABBEF40127913691C501B401641920
:10FF000075098609970941E0A9DF8A819B810197DC
:10FF10009B838A8392E0890E911CA11CB11C8A816B
:10FF20009B81892B31F730E020E045E0C701B60125
:10FF300095DF9FEFD91AE90AF90A0F5F1F4FC0CF6B
:10FF40000F900F900F90DF91CF911F910F91FF9025
:10FF5000EF90DF90CF90BF90AF909F908F907F9069
:10FF60006F905F904F903F902F900895F999FECF3A
:10FF700092BD81BDF89A992780B50895262FF999E9
:10FF8000FECF1FBA92BD81BD20BD0FB6F894FA9A7C
:08FF9000F99A0FBE01960895D5
:02FFFE000008F9
:00000001FF
