:020000040000FA
:100000000C94D3010C948F0E0C94BA0E0C94E50E44
:100010000C94100F0C943B0F0C94660F0C94910FE2
:100020000C94BC0F0C9420080C9420080C9420080D
:100030000C9404020C9404020C9404020C94040228
:100040000C9404020C9404020C9404020C94040218
:100050000C9404020C9404020C9404020C94F70F08
:100060000C9404020C94830B0C94B90B0C940402B2
:100070000C9404020C9404020C9404020C940402E8
:100080000C9404020C9404020C9404020C940402D8
:100090000C941A0C0C94500C0C9404020C94040252
:1000A0000C9404020C9404020C9404020C940402B8
:1000B0000C9404020C9404020C9436090C949C08D1
:1000C0000C94E5090C9404020C9404020C94B10CF9
:1000D0000C94E70C0C9404020C9404020C9404029B
:1000E0000C9404020C94E30B0C943C0A0C94420410
:1000F0000C9425110C943D110C9434040C9448116B
:100100000C94110D0C941B110C9409110C944911B1
:100110000C941B0D0C9441110C9411110C94480D6E
:100120000C9421110C94ED0B0C942F110C94E40AF7
:100130000C9403110C9417110C940D110C945E0A7D
:100140000C944A0A0C9433110C9429110C948E0EC1
:100150000C9445110C94AA030C94840C0C946D0A15
:100160000C94BB030C9437110C94300A0C94990333
:100170000C947A0C0C94C40A0C94EC034154004186
:10018000542B4341524543563D302C3530004154A9
:100190002B434141434B3D300041542B43414F5091
:1001A000454E3D302C302C22554450222C223136E5
:1001B000342E39322E3136342E313638222C383026
:1001C00038300041542B434E4143543F0041542B9F
:1001D000434E4143543D302C310041542B434E4358
:1001E00046473D302C312C22696F742E316E636589
:1001F0002E6E6574220041542B43474E41504E00F1
:1002000041542B434F50533F0041542B43474154DB
:10021000543F0041542B434F50533D312C322C223C
:100220003233383230220041542B4346554E3D3153
:100230000041542B434744434F4E543D312C2249F7
:1002400050222C22696F742E316E63652E6E657498
:10025000220041542B4346554E3D300041542B4320
:1002600053510041542B47534E000000000A0B0C21
:1002700000000000000D0E0F09000000000804053A
:100280000600000000000011121300000000000032
:10029000000000000000000000000000000000005E
:1002A000000000000000000000000000000000004E
:1002B000000000000000000000000000000000033B
:1002C00001020408102040800102040810204001AF
:1002D0000204081020408080081001020408102049
:1002E000408001020408102040800102010204083D
:1002F000102040800102040810204004804020109B
:100300000804020180010204081020408001020458
:10031000081020408020050505050505050508088D
:10032000080808080802020202020202020807077F
:100330000C0C0C0C0C0C0C0C04040404040404043D
:10034000070703030303030303030A0A0A0A0A0A4B
:100350000A0701010101010101010A06060606065C
:100360000606060B0B0B0B0B0B0B0B0700002200FA
:10037000250028002B002E0031003400020100006F
:10038000050108010B0100002100240027002A00BC
:100390002D003000330001010000040107010A01B3
:1003A000ED0B840C1B0D11241FBECFEFD1E2DEBF7D
:1003B000CDBF00E00CBF12E0A0E0B2E0ECE0FAE25A
:1003C00000E00BBF02C007900D92A035B107D9F72E
:1003D00027E0A0E5B2E001C01D92AE36B207E1F71A
:1003E00011E0C3EDD1E000E006C021970109802FA4
:1003F000FE010E94ED11C03DD10780E00807A9F77A
:100400000E94E80F0C9404150C940000AF92BF9268
:10041000CF92DF92EF92FF920F931F93CF93DF93D0
:1004200000D000D000D01F92CDB7DEB78E010F5F95
:100430001F4F8AE0D8011D928A95E9F78091EA0260
:100440009091EB020A9774EBE72E72E0F72EF80119
:10045000A8E0CA2ED12C21E030E0AC01477055272E
:10046000452B11F430E020E0AC0197FF02C0495F5A
:100470005F4F63E0559547956A95E1F7240F351F67
:10048000AF01401B510B42175307FCF4B6010E9409
:10049000B711AC011816190614F048E050E060815D
:1004A000ABECB3E0B12CA12CC50101962D9101C09C
:1004B000220FAA94EAF7622B5C0184179507A1F733
:1004C0006193D7016D937D01C6CF84EB92E02A96AC
:1004D0000FB6F894DEBF0FBECDBFDF91CF911F9155
:1004E0000F91FF90EF90DF90CF90BF90AF90089565
:1004F000AF92BF92CF92DF92EF92FF920F931F9332
:10050000CF93DF931092EB021092EA02E0E5F2E063
:1005100024E6DF011D922A95E9F78B0177FF02C0DF
:100520000F5F1F4F15950795EC0130E5A32E32E0C4
:10053000B32ED12CC12CC016D106ECF4E8808981F1
:10054000FE2CE82E4AE050E0B7018EE895E00E94CC
:10055000680EF501E192F1925F018091EA029091BB
:10056000EB0201969093EB028093EA02FFEFCF1A21
:10057000DF0A2296E0CF80E592E0DF91CF911F91D4
:100580000F91FF90EF90DF90CF90BF90AF900895C4
:10059000FC0120813181245D3E4F3183208321E0A5
:1005A00030E03093EB022093EA0208950F931F93FB
:1005B000CF93DF938C01C4E7D4E0CE0184579440FD
:1005C0008017910774F4699140E150E08EE895E05E
:1005D0000E94870E6CE272E08EE895E00E94A80D02
:1005E000ECCF8EE895E0DF91CF911F910F910C94A5
:1005F000B70D60E085E00E94881160ED77E080E053
:1006000090E00E94661061E085E00C948811E2E0C1
:10061000F3E088ECDF011D928A95E9F70895CF9306
:10062000DF9380911D0320911C03022E000C330BDD
:10063000205331098033C4F43093EB022093EA0253
:10064000ECE1F0E02091EA023091EB02EE5FFC4F2A
:10065000AAECB3E0CD018A5C934082179307BCF407
:10066000819180538D93F6CF9AE0929FA001939F42
:10067000500D1124082E000C990BC097840F951F64
:100680009093EB028093EA02EDE1F0E0DBCFCAEC5D
:10069000D3E02091EA023091EB02CE018A5C9340D4
:1006A0008217930744F469914AE050E08EE895E0A0
:1006B0000E94870EEECF8EE895E00E94B70DDF9185
:1006C000CF910C940703E2E4F4E082E3DF011D9292
:1006D0008A95E9F708950F931F93CF93DF93E4E78B
:1006E000F4E082E3DF011D928A95E9F71092EC02B3
:1006F000E09143041092EB021092EA02E150E031E3
:1007000008F0B2C0F0E08827E757FC4F8F4F0C94F9
:10071000ED11EC03BB03AA03990342044204340421
:1007200034043404340434043404340434044204FB
:1007300042048091440490E0A5E4B4E0E4E7F4E0EE
:100740009F0124573440281739070CF096C02D918B
:100750002193F6CF8091440490E0A5E4B4E0E4E76F
:10076000F4E09F0124573440281739070CF085C066
:100770002D912193F6CF8091440490E0DC0143E079
:10078000AA0FBB1F4A95E1F7E2E4F4E001E010E0B4
:100790009F0122543440281739070CF050C0638160
:1007A000C4E7D4E030E020E070E02A173B070CF00B
:1007B00044C0A801022E02C0440F551F0A94E2F75C
:1007C00046235723022E02C0559547950A94E2F717
:1007D00049932F5F3F4FE9CF8091440490E0DC01C3
:1007E00033E0AA0FBB1F3A95E1F7E2E4F4E001E041
:1007F00010E09F01225434402817390704F5638123
:10080000C4E7D4E030E020E070E02A173B079CF416
:10081000A801022E02C0440F551F0A94E2F7462396
:100820005723022E02C0559547950A94E2F7499343
:100830002F5F3F4FEACF3196DCCF3196A9CF8A9F09
:1008400090018B9F300D9A9F300D11243093EB0255
:100850002093EA0223E0880F991F2A95E1F70E946E
:10086000D60281E08093EC020E94630384E794E067
:10087000DF91CF911F910F9108959093EB02809398
:10088000EA02EDCFC1E0C093740481E090E00E94E1
:10089000D602C093EC02E8CFAC01FC018FEF9FEFD2
:1008A0009F01241B350B261737079CF421918227C3
:1008B00028E030E0DC01A170BB2796958795AB2B33
:1008C00021F0A1E08A27A0EA9A272150310991F767
:1008D000E7CF0895FC0190E080E06150710977FD59
:1008E00012C02191922728E0AC01440F551F97FFB9
:1008F00008C0CA0131E2832730E193272150A1F7D4
:10090000ECCFCA01FBCF08950F931F93CF93DF93D2
:10091000BC01990F880B990B0E9466108BE296E040
:100920000E94300A892B99F08BE296E00E94300AEF
:100930008C01C2E0D3E0CE01825093408017910732
:1009400034F48BE296E00E944A0A8993F4CF6EE277
:1009500072E082E093E00E941412EC010E9407030F
:1009600081E0CD2B09F480E0DF91CF911F910F91B1
:100970000895CF93DF93809100028823C1F0C5E0F2
:10098000D0E06CE771E08BE296E00E94BB0D88EC52
:1009900090E00E9484048093ED0281111092000285
:1009A000219779F78111E7CF0E94F902E4CF81E026
:1009B00080930002DF91CF910C9407030F931F9354
:1009C000CF93DF9368EB7BE080E090E00E946610BD
:1009D0008BE296E00E94300A892B99F08BE296E038
:1009E0000E94300A8C01C2E0D3E0CE0182509340D5
:1009F000801791076CF78BE296E00E944A0A899370
:100A0000F4CF42E053E0FA0101900020E9F7AF0192
:100A10004350534062E073E08EE895E00E94480D39
:100A20008EE895E0DF91CF911F910F910C94B70D57
:100A300063E672E08BE296E00E94BB0D0E94DE044A
:100A4000ABE0B3E0EEEEF2E08D91819382E0ED3F1A
:100A5000F807D1F70C9407036CE572E08BE296E09F
:100A60000E94BB0D0E94DE040E94070362E572E053
:100A70008BE296E00E94BB0D0E94DE040E940703F9
:100A800061E372E08BE296E00E94BB0D0E94DE04FF
:100A90000E94070367E272E08BE296E00E94BB0DC2
:100AA0000E94DE040E94070363E172E08BE296E09D
:100AB0000E94BB0D0E94DE040E94070369E072E001
:100AC0008BE296E00E94BB0D0E94DE040E940703A9
:100AD00060E072E08BE296E00E94BB0D0E94DE04B3
:100AE0000E94070366EF71E08BE296E00E94BB0D67
:100AF0000E94DE040E9407036AED71E08BE296E03B
:100B00000E94BB0D0E94DE040E9407036DEC71E0A1
:100B10008BE296E00E94BB0D0E94DE040E94070358
:100B200063EC71E08BE296E00E94BB0D0E94DE0454
:100B30000E94070369E971E08BE296E00E94BB0D19
:100B40000E94DE040C94070326E040E855E260E0D2
:100B500070E08BE296E00E94310B26E040E855E21F
:100B600060E070E088EC96E00E94310B61E085E087
:100B70000E944C1161E085E00E94881160ED77E0F1
:100B800080E090E00E9466100E94B9040E9418055F
:100B90000C942C052F923F924F925F926F927F920E
:100BA0008F929F92AF92BF92CF92DF92EF92FF927D
:100BB0000F931F93CF93DF93CDB7DEB7CE56D109F6
:100BC0000FB6F894DEBF0FBECDBF5C011B017E01E6
:100BD00027E4E20EF11C8DE0E8E1F2E0D70101909C
:100BE0000D928A95E1F7F7013D9687E0DF011D92AE
:100BF0008A95E9F78E010F5F1F4F82E3F80111928A
:100C00008A95E9F72E01F5E64F0E511C8AE0D201D4
:100C1000E82F1D92EA95E9F76E01FBE5CF0ED11C96
:100C2000D6011D928A95E9F78EEE92E09F938F93FD
:100C30001F930F930E942E1266E072E0C8010E947B
:100C4000091263E072E0C8010E94091261E072E0DB
:100C5000C8010E94091235010F900F900F900F905C
:100C6000B12CA12C91E3892E92E0992EA214B30409
:100C7000E4F4F30180819181F2E06F0E711C9F9387
:100C80008F939F928F925F924F920E942E12B20189
:100C9000C8010E9409122FEFA21AB20A0F900F90FA
:100CA0000F900F900F900F90E1CF64E372E0C801B6
:100CB0000E940912F80101900020E9F73197BF0165
:100CC000601B710BC8010E946A049F938F9387E396
:100CD00092E09F938F93DF92CF920E942E120F90FB
:100CE0000F900F900F900F900F90B12CA12C85E0DA
:100CF000882E912CF60101900020E9F73197EC192C
:100D0000FD09C4018E1B9F0BA816B90648F465E3C4
:100D100072E0C8010E9409128FEFA81AB80AEACF40
:100D2000B601C8010E940912F80101900020E9F7FC
:100D30003197AF01401B510BB8018EE895E00E943E
:100D4000480D8EE895E00E94B70DF8010190002053
:100D5000E9F73197E01BF10BFF93EF9387E392E004
:100D60009F938F936E0193E3C90ED11CDF92CF92B4
:100D70000E942E12B601C7010E940912F7010190CC
:100D80000020E9F73197AF014E195F09B7018BE2F7
:100D900096E00E94480D8BE296E00E94B70D0E94FB
:100DA000DE040E940703F80101900020E9F7319763
:100DB000AF01401B510BB8018BE296E00E94480D39
:100DC0000E94DE040E9407036EE871E08BE296E069
:100DD0000E94BB0D0E94DE040E9407036FE771E0D2
:100DE0008BE296E00E94BB0D0E94DE040E940F037E
:100DF0000F900F900F900F900F900F90C259DF4FF0
:100E00000FB6F894DEBF0FBECDBFDF91CF911F911B
:100E10000F91FF90EF90DF90CF90BF90AF909F9099
:100E20008F907F906F905F904F903F902F9008959C
:100E30000F931F93CF93DF936CE271E080E090E01B
:100E40000E94661088EC96E00E94300A892B29F1F6
:100E500088EC96E00E94300A8C01C2E4D4E0CE0116
:100E600082549440801791079CF488EC96E00E948D
:100E70004A0A899340E150E0682F8EE895E00E948D
:100E8000870E6CE272E08EE895E00E94A80DE7CF35
:100E90008EE895E00E94B70DD5CFDF91CF911F91DD
:100EA0000F910895CF93DF9300D000D01F921F922F
:100EB000CDB7DEB7898383E08A837B836C835D83D0
:100EC0004E8366E070E0CE0101960E944C048F8351
:100ED000988748E050E0BE016F5F7F4F88EC96E056
:100EE0000E94480D0E94180728960FB6F894DEBF9E
:100EF0000FBECDBFDF91CF910895EF92FF920F9378
:100F00001F93CF93DF93CDB7DEB7E2970FB6F89478
:100F1000DEBF0FBECDBFD90189838FE08A837B837B
:100F20006C835D834E83CA0157FD079623E0959538
:100F300087952A95E1F74770552701E0452B09F47D
:100F400000E0202F280F2F83BD0137E0080F192F55
:100F5000111DE32EF12C3F5FCB018A1B9B0B8017E9
:100F6000910764F4FB018191BF0141E050E04C0F17
:100F70005D1FE40EF51EF7018083EBCF17FD00E047
:100F8000B701CE0101960E944C04E1E0F0E0EC0FC5
:100F9000FD1FEE0DFF1D8083E8E0E00F21E030E053
:100FA0002C0F3D1F2E0F311DF9019083075F402F3D
:100FB00050E0BE016F5F7F4F88EC96E00E94480DC5
:100FC0000E941807E2960FB6F894DEBF0FBECDBFA1
:100FD000DF91CF911F910F91FF90EF900895CF93E4
:100FE000DF9341E050E070E060E081E00E94520752
:100FF0000E946B039093E9028093E802C091EA0299
:10100000D091EB02BE010E947802BE010E94C8028C
:101010009093E7028093E6026091EA027091EB02FE
:101020000E94CA050E9406029C0141E050E070E067
:1010300060E082E00E947D07DF91CF910C94630312
:101040001F920F920FB60F9211240BB60F922F938F
:101050003F934F935F936F937F938F939F93AF9340
:10106000BF93EF93FF93E091E804F091E904309788
:1010700049F0A685B7858585968D91FF16C09C9110
:101080008923B1F4FF91EF91BF91AF919F918F911F
:101090007F916F915F914F913F912F910F900BBE78
:1010A0000F900FBE0F901F9018959C91892351F7B8
:1010B000A389B4899C918589809589238C9386899D
:1010C00097890197F1F7608D718DA685B785558554
:1010D00038E020E0CB010197F1F7822F90E0959561
:1010E0008795282F4C91452309F02068315091F7BE
:1010F000868D81FD20958091A70490E001968F73E5
:1011000099273091A604381799F0A091A704B0E070
:10111000A855BB4F2C938093A704828D938D019784
:10112000F1F7A389B4898C919589892B8C93AACFE7
:10113000868D8160868FF1CF1F920F920FB60F922E
:1011400011240BB60F922F933F934F935F936F939E
:101150007F938F939F93EF93FF932091320560913C
:101160003105809128019091290140918C05509181
:101170008D05309130052A3080F5840F951F762F2C
:101180007170293009F471E066952F5F371799F374
:10119000309120017723F1F0306C3093200190934F
:1011A00029018093280170933005609331052093C5
:1011B0003205FF91EF919F918F917F916F915F9198
:1011C0004F913F912F910F900BBE0F900FBE0F903C
:1011D0001F9018953F7B3068E0CF30912F05E0914C
:1011E0002E053E1319C02A3051F42BE0209332050E
:1011F000840F951F9093290180932801DACF1092D4
:101200003205809120018F738093200180917300BB
:101210008D7F80937300CDCFEF5FE43408F0E0E082
:10122000E0932E05F0E0E651FB4F3081309331051D
:1012300010923005309120013F7B306830932001BF
:101240002A3071F420918C0530918D05820F931F07
:10125000909329018093280181E080933205A9CFE2
:1012600080912401909125014096F2CF1F920F9218
:101270000FB60F9211240BB60F922F933F934F93FB
:101280005F936F937F938F939F93AF93BF93EF93EE
:10129000FF9380912601909127014091890520912B
:1012A0002101442309F440C02F7B20932101109297
:1012B000890530918B0531113EC0411122C020912A
:1012C000850530918605280F391F30932B01209317
:1012D0002A0124E02ABB209173002460209373002C
:1012E00020918C0530918D05820F931F369527959F
:1012F000280F391F309388052093870581E080935C
:101300008B05FF91EF91BF91AF919F918F917F914D
:101310006F915F914F913F912F910F900BBE0F9066
:101320000FBE0F901F90189520642093210120E894
:1013300020938905BECF4091870550918805609123
:101340008C0570918D05DB01A095B095E091890524
:1013500020918A05841B950BA817B90768F126957B
:101360002E2B460F571F3F5F861B970B3930A0F37C
:1013700020938A05809173008B7F80937300809106
:1013800084058F5F803508F080E090918305981781
:1013900049F0E82FF0E090918A05ED5CFA4F9083D8
:1013A00080938405809121018F7B8093210110928D
:1013B000890510928B05A5CF20938A055093880547
:1013C0004093870530938B059CCF1F920F920FB6E9
:1013D0000F9211240BB60F922F938F939F93EF933D
:1013E000FF93809173008B7F809373008091210124
:1013F0008F7B8093210180918B0520918905205856
:1014000090918A05893020F49695922B8F5FFACFC0
:1014100090938A05809184058F5F803508F080E085
:1014200020918305281739F0E82FF0E0ED5CFA4FA2
:1014300090838093840510928B05809121018F7B8E
:101440008093210110928905FF91EF919F918F91D7
:101450002F910F900BBE0F900FBE0F901F901895FD
:10146000FC01918D228D892F90E0805C9F4F821B23
:1014700091098F7399270895FC01918D828D98179A
:1014800031F0828DE80FF11D858D90E008958FEF8A
:101490009FEF0895FC01918D828D981761F0A28DC8
:1014A000AE0FBF2FB11D5D968C91928D9F5F9F7384
:1014B000928F90E008958FEF9FEF0895FC01538D78
:1014C000448D252F30E0842F90E0821B930B54171E
:1014D00010F0CF9608950197089583EE9BE0892B35
:1014E00049F080E090E0892B29F00E94E30B811104
:1014F0000E9400008AE79CE0892B49F080E090E0A0
:10150000892B29F00E947A0C81110E94000081E150
:101510009DE0892B49F080E090E0892B29F00E9422
:10152000110D81110E94000080E090E0892B49F0AC
:1015300080E090E0892B29F00E94000081110C943A
:1015400000000895FC01A48DA80FB92FB11DA35A66
:10155000BF4F2C91848D90E001968F739927848FD3
:10156000A689B7892C93A089B1898C9183708064F6
:101570008C93938D848D981306C00288F389E02D97
:1015800080818F7D80830895CF93DF93EC01888DD8
:101590008823B9F0AA89BB89E889F9898C9185FDEE
:1015A00003C0808186FD0DC00FB607FCF7CF8C917C
:1015B00085FFF2CF808185FFEDCFCE010E94A20A88
:1015C000E9CFDF91CF910895EF92FF920F931F9390
:1015D000CF93DF93EC0181E0888F9B8D8C8D9813E6
:1015E0001AC0E889F989808185FF15C09FB7F894F2
:1015F000EE89FF896083E889F9898081837080643E
:1016000080839FBF81E090E0DF91CF911F910F9188
:10161000FF90EF900895F62E0B8D10E00F5F1F4F97
:101620000F731127E02E8C8D8E110CC00FB607FCA6
:10163000FACFE889F989808185FFF5CFCE010E9434
:10164000A20AF1CFEB8DEC0FFD2FF11DE35AFF4FF6
:10165000F0829FB7F8940B8FEA89FB8980818062C2
:10166000CFCFCF92DF92EF92FF921F93CF93DF9372
:10167000EC016A017B01122F60E874E88EE190E0D2
:10168000A70196010E94CB1121503109410951094E
:101690005695479537952795E889F98982E08083A3
:1016A000211580E1380798F0E889F989108260E413
:1016B00072E48FE090E0A70196010E94CB112150C7
:1016C0003109410951095695479537952795EC857C
:1016D000FD853083EE85FF852083188EEC89FD899A
:1016E0001083EA89FB89808188698083EA89FB8984
:1016F00080818F7D8083DF91CF911F91FF90EF904C
:10170000DF90CF9008951F920F920FB60F92112481
:101710000BB60F922F938F939F93EF93FF93E091CC
:101720009E05F0919F058081E091A405F091A505AB
:1017300082FD1DC090818091A7058F5F8F732091DE
:10174000A805821741F0E091A705F0E0E257FA4FB3
:10175000958F8093A705FF91EF919F918F912F9186
:101760000F900BBE0F900FBE0F901F9018958081A9
:10177000F2CF1F920F920FB60F9211240BB60F9259
:101780002F933F934F935F936F937F938F939F9389
:10179000AF93BF93EF93FF938EE895E00E94A20A68
:1017A000FF91EF91BF91AF919F918F917F916F9139
:1017B0005F914F913F912F910F900BBE0F900FBEF5
:1017C0000F901F9018958EE895E00E94300A21E056
:1017D000892B09F420E0822F0895EEE8F5E01382CA
:1017E000128288EE93E0A0E0B0E084839583A68324
:1017F000B7838EE392E09183808385EC90E09587B8
:10180000848784EC90E09787868780EC90E0918BCA
:10181000808B81EC90E0938B828B82EC90E0958BB7
:10182000848B86EC90E0978B868B118E128E138EB4
:10183000148E08951F920F920FB60F9211240BB6BB
:101840000F922F938F939F93EF93FF93E0913B061B
:10185000F0913C068081E0914106F091420682FDC4
:101860001DC09081809144068F5F8F732091450643
:10187000821741F0E0914406F0E0E55DF94F958F65
:1018800080934406FF91EF919F918F912F910F903C
:101890000BBE0F900FBE0F901F9018958081F2CF56
:1018A0001F920F920FB60F9211240BB60F922F9327
:1018B0003F934F935F936F937F938F939F93AF93D8
:1018C000BF93EF93FF938BE296E00E94A20AFF91F1
:1018D000EF91BF91AF919F918F917F916F915F91A8
:1018E0004F913F912F910F900BBE0F900FBE0F9015
:1018F0001F9018958BE296E00E94300A21E0892B18
:1019000009F420E0822F0895EBE2F6E013821282C0
:1019100088EE93E0A0E0B0E084839583A683B7834C
:101920008EE392E0918380838DEC90E095878487AD
:101930008CEC90E09787868788EC90E0918B808B89
:1019400089EC90E0938B828B8AEC90E0958B848B72
:101950008EEC90E0978B868B118E128E138E148EE8
:1019600008951F920F920FB60F9211240BB60F928B
:101970002F938F939F93EF93FF93E091D806F0916D
:10198000D9068081E091DE06F091DF0682FD1DC060
:1019900090818091E1068F5F8F732091E20682171C
:1019A00041F0E091E106F0E0E853F94F958F809324
:1019B000E106FF91EF919F918F912F910F900BBEB8
:1019C0000F900FBE0F901F9018958081F2CF1F923D
:1019D0000F920FB60F9211240BB60F922F933F93D5
:1019E0004F935F936F937F938F939F93AF93BF9327
:1019F000EF93FF9388EC96E00E94A20AFF91EF918B
:101A0000BF91AF919F918F917F916F915F914F9116
:101A10003F912F910F900BBE0F900FBE0F901F9014
:101A2000189588EC96E00E94300A21E0892B09F491
:101A300020E0822F0895E8ECF6E01382128288EE0F
:101A400093E0A0E0B0E084839583A683B7838EE320
:101A500092E09183808385ED90E09587848784ED83
:101A600090E09787868780ED90E0918B808B81ED69
:101A700090E0938B828B82ED90E0958B848B86ED4A
:101A800090E0978B868B118E128E138E148E089594
:101A9000AF92BF92CF92DF92EF92FF920F931F937C
:101AA000CF93DF936C017B018B01040F151FEB01BA
:101AB0005E01AE18BF08C017D10759F06991D60171
:101AC000ED91FC910190F081E02DC6011995892BD3
:101AD00079F7C501DF91CF911F910F91FF90EF90A2
:101AE000DF90CF90BF90AF900895FB010190002050
:101AF000E9F73197AF01461B570BDC01ED91FC91E3
:101B00000280F381E02D1994EF92FF920F931F93BF
:101B1000CF93DF938C017B01D0E0C0E0F701EC0FA5
:101B2000FD1F6491662361F0D801ED91FC91019055
:101B3000F081E02DC8011995892B11F02196EECF87
:101B4000CE01DF91CF911F910F91FF90EF900895FB
:101B50006115710511F00C94750D90E080E0089509
:101B6000DC01ED91FC910190F081E02D19946CE481
:101B700072E00C94750D0F931F93CF93DF93EC01DC
:101B80000E94840D8C01CE010E94B70D800F911F21
:101B9000DF91CF911F910F9108958F929F92AF92F5
:101BA000BF92EF92FF920F931F93CF93DF93CDB726
:101BB000DEB7A1970FB6F894DEBF0FBECDBF7C0194
:101BC000FA01CB0119A2223008F42AE08E010F5D40
:101BD0001F4F822E912CB12CA12CBF01A501940185
:101BE0000E94CB11F901CA016A300CF5605DD80181
:101BF0006E938D01232B242B252B79F790E080E029
:101C0000109721F0BD01C7010E94750DA1960FB676
:101C1000F894DEBF0FBECDBFDF91CF911F910F9122
:101C2000FF90EF90BF90AF909F908F900895695C68
:101C3000DECFCF92DF92EF92FF920F931F93CF935D
:101C4000DF932115310581F4DC01ED91FC910190C8
:101C5000F081E02D642FDF91CF911F910F91FF90C4
:101C6000EF90DF90CF9019942A30310501F52AE0EA
:101C700077FF1DC06A017B01EC016DE20E94B00D8F
:101C80008C0144275527BA014C195D096E097F095B
:101C90002AE0CE010E94CD0D800F911FDF91CF91E0
:101CA0001F910F91FF90EF90DF90CF900895DF91FB
:101CB000CF911F910F91FF90EF90DF90CF900C94F8
:101CC000CD0D9A01AB01770F660B770B0C94190EB3
:101CD0000F931F93CF93DF93EC010E94610E8C0151
:101CE000CE010E94B70D800F911FDF91CF911F9100
:101CF0000F9108952115310541F4DC01ED91FC911E
:101D00000190F081E02D642F19940C94CD0D9A016F
:101D1000462F50E070E060E00C947A0E08951F9218
:101D20000F920FB60F9211240BB60F922F933F9381
:101D30004F935F936F937F938F939F93AF93BF93D3
:101D4000EF93FF93E0910802F09109021995FF913A
:101D5000EF91BF91AF919F918F917F916F915F9123
:101D60004F913F912F910F900BBE0F900FBE0F9090
:101D70001F9018951F920F920FB60F9211240BB659
:101D80000F922F933F934F935F936F937F938F9314
:101D90009F93AF93BF93EF93FF93E0910A02F0916B
:101DA0000B021995FF91EF91BF91AF919F918F9188
:101DB0007F916F915F914F913F912F910F900BBE4B
:101DC0000F900FBE0F901F9018951F920F920FB695
:101DD0000F9211240BB60F922F933F934F935F9363
:101DE0006F937F938F939F93AF93BF93EF93FF93E3
:101DF000E0910C02F0910D021995FF91EF91BF91C6
:101E0000AF919F918F917F916F915F914F913F9192
:101E10002F910F900BBE0F900FBE0F901F90189533
:101E20001F920F920FB60F9211240BB60F922F93A1
:101E30003F934F935F936F937F938F939F93AF9352
:101E4000BF93EF93FF93E0910E02F0910F0219956B
:101E5000FF91EF91BF91AF919F918F917F916F9182
:101E60005F914F913F912F910F900BBE0F900FBE3E
:101E70000F901F9018951F920F920FB60F9211247A
:101E80000BB60F922F933F934F935F936F937F9374
:101E90008F939F93AF93BF93EF93FF93E0911002C3
:101EA000F09111021995FF91EF91BF91AF919F9120
:101EB0008F917F916F915F914F913F912F910F90F3
:101EC0000BBE0F900FBE0F901F9018951F920F9290
:101ED0000FB60F9211240BB60F922F933F934F938F
:101EE0005F936F937F938F939F93AF93BF93EF9382
:101EF000FF93E0911202F09113021995FF91EF9177
:101F0000BF91AF919F918F917F916F915F914F9111
:101F10003F912F910F900BBE0F900FBE0F901F900F
:101F200018951F920F920FB60F9211240BB60F92B5
:101F30002F933F934F935F936F937F938F939F93D1
:101F4000AF93BF93EF93FF93E0911402F0911502CA
:101F50001995FF91EF91BF91AF919F918F917F91D3
:101F60006F915F914F913F912F910F900BBE0F900A
:101F70000FBE0F901F9018951F920F920FB60F92E1
:101F800011240BB60F922F933F934F935F936F9350
:101F90007F938F939F93AF93BF93EF93FF93E091C2
:101FA0001602F09117021995FF91EF91BF91AF9131
:101FB0009F918F917F916F915F914F913F912F9161
:101FC0000F900BBE0F900FBE0F901F9018950895A5
:101FD0000E949F100E94E70F0E94A405CDE6DAE060
:101FE0000E94EF072097E1F30E946D0AF9CF1F923C
:101FF0000F920FB60F9211242F933F938F939F93BD
:10200000AF93BF9380916A0790916B07A0916C0783
:10201000B0916D073091690726E0230F2D3768F1E5
:1020200029E8230F0396A11DB11D20936907809312
:102030006A0790936B07A0936C07B0936D0780912C
:10204000650790916607A0916707B09168070196B0
:10205000A11DB11D8093650790936607A093670744
:10206000B0936807BF91AF919F918F913F912F914E
:102070000F900FBE0F901F9018950296A11DB11DD5
:10208000D4CF3FB7F8948091650790916607A091EF
:102090006707B091680726B5A89B05C02F3F19F0C8
:1020A0000196A11DB11D3FBFBA2FA92F982F8827D8
:1020B000BC01CD01620F711D811D911D43E0660FB2
:1020C000771F881F991F4A95D1F708958F929F9285
:1020D000AF92BF92CF92DF92EF92FF926B017C01A1
:1020E0000E9441104B015C01C114D104E104F104D0
:1020F000E9F00E94B6110E944110681979098A0915
:102100009B09683E73408105910570F321E0C21A76
:10211000D108E108F10888EE880E83E0981EA11C22
:10212000B11CC114D104E104F10429F7FF90EF9030
:10213000DF90CF90BF90AF909F908F90089578944C
:1021400084B5836084BD85B5836085BDEEE6F0E02F
:10215000808181608083E1E8F0E082E0808380819B
:1021600081608083E0E8F0E0808181608083E1EB42
:10217000F0E0808184608083E0EBF0E0808181602A
:102180008083E1E9F0E0808183608083E0E9F0E032
:10219000808181608083E1EAF0E0808183608083D8
:1021A000E0EAF0E0808181608083E1E2F1E080811B
:1021B00083608083E0E2F1E080818160808386E853
:1021C00080937A001092C10008958250823108F005
:1021D0005FC0E82FF0E08827EF50FF4E8F4F0C9440
:1021E000ED1145114911031109110D11481111117A
:1021F00017111B112111251129112F11331148110C
:1022000037113D114111809180008F7780938000BC
:102210000895809180008F7DF9CF80918000877F25
:10222000F5CF8091B0008F778093B00008958091B2
:10223000B0008F7DF9CF809190008F7780939000D0
:102240000895809190008F7DF9CF80919000877FD5
:10225000F5CF8091A0008F778093A00008958091A2
:10226000A0008F7DF9CF8091A000877FF5CF80916E
:1022700020018F77809320010895809120018F7D28
:10228000F9CF80912001877FF5CF84B58F7784BD0A
:10229000089584B58F7DFBCFCF93DF9390E0FC0151
:1022A000E054FD4F24918A5E9C4FFC018491882369
:1022B000C9F090E0880F991FFC01EA57FC4FA591E7
:1022C000B491FC01E459FC4FC591D49161110DC04A
:1022D0009FB7F8948C91209582238C938881282332
:1022E00028839FBFDF91CF910895623051F49FB74B
:1022F000F8943C91822F809583238C93E8812E2B38
:10230000EFCF8FB7F894EC912E2B2C938FBFEACFA1
:102310001F93CF93DF93282F30E0F901E659FD4F4B
:102320008491F901E054FD4FD491F901EA5EFC4F2C
:10233000C491CC23A9F0162F81110E94E510EC2F37
:10234000F0E0EE0FFF1FE459FC4FA591B4918FB759
:10235000F894EC91111108C0D095DE23DC938FBF67
:10236000DF91CF911F910895DE2BF8CF089597FB51
:10237000072E16F4009407D077FD09D00E94F511BE
:1023800007FC05D03EF4909581959F4F0895709578
:1023900061957F4F0895A1E21A2EAA1BBB1BFD0178
:1023A0000DC0AA1FBB1FEE1FFF1FA217B307E40734
:1023B000F50720F0A21BB30BE40BF50B661F771F8C
:1023C000881F991F1A9469F760957095809590956C
:1023D0009B01AC01BD01CF010895EE0FFF1F881FC7
:1023E0008BBF0790F691E02D1994AA1BBB1B51E1FE
:1023F00007C0AA1FBB1FA617B70710F0A61BB70B75
:10240000881F991F5A95A9F780959095BC01CD0119
:102410000895FB01DC010D900020E9F71197019070
:102420000D920020E1F70895FB0151915523A9F089
:10243000BF01DC014D9145174111E1F759F4CD0180
:102440000190002049F04D9140154111C9F3FB0165
:102450004111EFCF81E090E0019708950F931F9312
:10246000CF93DF93CDB7DEB72E970FB6F894DEBFCC
:102470000FBECDBF0E891F8986E08C831A83098326
:102480008FEF9FE79E838D83AE01465E5F4F688D21
:10249000798DCE0101960E945E122F813885020F40
:1024A000131FF80110822E960FB6F894DEBF0FBEF0
:1024B000CDBFDF91CF911F910F9108952F923F9241
:1024C0004F925F926F927F928F929F92AF92BF9244
:1024D000CF92DF92EF92FF920F931F93CF93DF93F0
:1024E00000D000D000D01F921F92CDB7DEB77C0184
:1024F0003B018A01FC0117821682838181FFDDC1C5
:10250000CE0101965C01F7019381F30193FD859162
:1025100093FF81913F01882309F453C1853239F437
:1025200093FD859193FF81913F01853229F4B70195
:1025300090E00E947614E7CF912C212C312CFFE102
:10254000F31538F08B3211F190F4803209F18332B7
:1025500029F137FC3CC020ED280F2A3050F536FE1B
:1025600020C08AE0989E200D1124922E06C08D3244
:1025700091F0803371F7689430F8F30193FD859101
:1025800093FF81913F018111DACF21C0689431F826
:10259000689432F8F2CF689433F8EFCF689434F847
:1025A000ECCFEAE02E9E200D1124222E689435F8FF
:1025B000E4CF8E3229F436FC04C1689436F8DDCFBE
:1025C0008C3619F4689437F8D8CF8836B1F2982F42
:1025D0009F7D95549330E0F08336A1F18337C1F1AC
:1025E000833509F063C02801F2E04F0E511CF80159
:1025F000C080D180692D70E036FC02C06FEF7FEFA4
:10260000C6010E9460144C01689437F882010AC028
:102610000C5F1F4FFFE3F98388248394912C65019D
:10262000E89437F833FE2DC0522C8114910471F5D3
:10263000552009F468CFB70180E290E00E9476143B
:102640005A94F6CFF801808189830E5F1F4FE4CF43
:102650002801F2E04F0E511CF801C080D180692D95
:1026600070E036FC02C06FEF7FEFC6010E946B1472
:102670004C018201D5CFB70180E290E00E94761430
:102680002A942814190409F0B0F7CECFF60137FCCC
:10269000859137FE81916F01B70190E00E94761419
:1026A00051105A94F1E08F1A9108BFCF843619F077
:1026B000893609F077C0F80137FE6BC060817181FF
:1026C000828193810C5F1F4FF32DFF763F2E97FF82
:1026D00009C090958095709561957F4F8F4F9F4F62
:1026E000689437F82AE030E0A5010E94A614C82EAD
:1026F000CA188C2C432C36FE0CC0E89440F8C91440
:1027000040F434FE05C032FC03C0F32DFE7E4F2E94
:10271000892C44FEAAC0FE01EC0DF11D808180339E
:1027200009F09CC0242D297E422E842D8870582EBD
:1027300043FCAAC040FEA4C09C2C821418F42C0CAC
:10274000922C981844FEA6C0B70180E390E00E9446
:10275000761442FE09C088E790E041FE02C088E599
:1027600090E0B7010E947614C91408F49FC0CA947F
:10277000D12C9FEFC91AD90ACA0CDB1CF601829131
:102780006F01B70190E00E947614AC14BD04B1F75C
:102790004FCF60817181072E000C880B990B0E5F63
:1027A0001F4F92CFD32CE894D4F82AE030E085373D
:1027B000E1F1232D297FD22E8F36A9F1F0F488354F
:1027C00051F1F701868197812B960FB6F894DEBF01
:1027D0000FBECDBFDF91CF911F910F91FF90EF9072
:1027E000DF90CF90BF90AF909F908F907F906F9031
:1027F0005F904F903F902F900895803749F0883731
:1028000001F7D4FE02C06894D2F820E130E00DC098
:102810006894D4F8F6CF34FE03C0822F8660D82E99
:1028200020E132E002C028E030E0F801D7FE0FC01E
:1028300060817181828193810C5F1F4FA5010E948D
:10284000A614C82ECA183D2CE89437F852CF6081E0
:10285000718190E080E00E5F1F4FF0CF42FC02C01C
:10286000839463CF8394839460CF842D867809F416
:102870005CCFF6CFB70180E290E00E94761483949B
:102880008214C0F3512C5ECF522C5818821408F4D5
:1028900059CFF8CF842D867809F466CF8BE241FEBC
:1028A00080E247FC8DE2B70190E05CCFB70180E3A6
:1028B00090E00E9476149A9457CF8FEF9FEF84CFC9
:1028C000FC010590615070400110D8F780959095FB
:1028D0008E0F9F1F0895FC01615070400190011000
:1028E000D8F7809590958E0F9F1F08950F931F9393
:1028F000CF93DF93182F092FEB018B8181FD09C046
:102900001FEF0FEF812F902FDF91CF911F910F912C
:10291000089582FF14C02E813F818C819D812817EC
:1029200039073CF4E881F981CF01019699838883C6
:1029300010838E819F8101969F838E83E3CFE885EC
:10294000F985812F1995892BA1F3DACFFA01AA27EE
:10295000283051F1203181F1E8946F936E7F6E5FE2
:102960007F4F8F4F9F4FAF4FB1E03ED0B4E03CD090
:10297000670F781F891F9A1FA11D680F791F8A1F73
:10298000911DA11D6A0F711D811D911DA11D20D0DA
:1029900009F468943F912AE0269F11243019305D94
:1029A0003193DEF6CF010895462F4770405D419385
:1029B000B3E00FD0C9F7F6CF462F4F70405D4A33D2
:1029C00018F0495D31FD4052419302D0A9F7EACF9A
:1029D000B4E0A6959795879577956795BA95C9F7C9
:1029E00000976105710508959B01AC010A2E0694BC
:1029F0005795479537952795BA95C9F7620F731F75
:102A0000841F951FA01D0895F894FFCF0131003158
:102A1000310048008E0E00000000000000000000A1
:102A20000000000041542B434153454E443D302C9F
:102A3000000000000000000020004F4B0025640053
:102A400033300025750000000000E40A480D5E0ADE
:0C2A5000C40A300A4A0A3C0A0D0A0000C1
:020000040003F7
:10FC000002C0F4C03CC1112484B790E89093610015
:10FC100010926100882369F0982F9A70923049F011
:10FC200081FF02C097EF94BF282E80E002D10C9490
:10FC3000000085E08093810082E08093C00088E12D
:10FC40008093C10080E18093C40086E08093C2006D
:10FC50008EE0EFD0279A84E028E13EEF91E03093E8
:10FC600085002093840096BBB09BFECF1F9AA89579
:10FC70004091C00047FD02C0815089F7CED0813449
:10FC800079F4CBD0C82FDBD0C23811F480E004C0A7
:10FC900088E0C13809F083E0B9D080E1B7D0EECF79
:10FCA000823419F484E1D3D0F8CF853411F485E09F
:10FCB000FACF853581F4B1D0E82EAFD0F82E87FF8A
:10FCC00007C08BB781608BBFEE0CFF1CB8D0E5CFAF
:10FCD0008BB78E7FF8CF863579F49FD08D3451F471
:10FCE0009CD0CBB79AD0C170880F8C2B8BBF81E092
:10FCF000AED0CCCF83E0FCCF843609F046C08DD0A7
:10FD0000C82FD0E0DC2FCC2788D0C82B86D0D82EA7
:10FD10005E018EEFB81A00E012E04801EFEF8E1A94
:10FD20009E0A7BD0F801808384018A149B04A9F782
:10FD300086D0F5E410E000E0DF1609F150E040E085
:10FD400063E0C70153D08701C12C92E0D92EF601A0
:10FD5000419151916F0161E0C80148D00E5F1F4F82
:10FD60002297A9F750E040E065E0C7013FD095CF6A
:10FD70006081C8018E0D9F1D01D10F5F1F4FF801DB
:10FD8000FE5FC017D107A1F788CF843701F545D0B2
:10FD9000C82FD0E0DC2FCC2740D0C82B3ED0D82EA7
:10FDA0004ED08701F5E4DF120BC0CE0DDF1DC80178
:10FDB000DDD02CD00F5F1F4FC017D107C1F76DCF1B
:10FDC000F80187918F0122D02197D1F766CF85372F
:10FDD00039F435D08EE11AD088E918D081E05CCFB3
:10FDE000813509F073CF88E024D070CFFC010A017F
:10FDF00067BFE895112407B600FCFDCF667029F0B7
:10FE0000452B19F481E187BFE89508959091C000D2
:10FE100095FFFCCF8093C60008958091C00087FFB6
:10FE2000FCCF8091C00084FD01C0A8958091C600E0
:10FE30000895E0E6F0E098E1908380830895EDDF97
:10FE4000803219F088E0F5DFFFCF84E1DFCFCF9378
:10FE5000C82FE3DFC150E9F7CF91F1CFCF92DF9206
:10FE6000EF92FF92DC01CB01642F6D01EE24FF24A1
:10FE7000CBBEA901FF90EF90DF90CF90B7CF2F922C
:10FE80003F924F925F926F927F928F929F92AF922A
:10FE9000BF92CF92DF92EF92FF920F931F93CF9377
:10FEA000DF9300D0CDB7DEB71801E9826B017C018A
:10FEB00010E000E029013A014C185D086E087F0847
:10FEC00046015701840C951CA61CB71C021513058E
:10FED00031F489818823A1F188E0ABDFFFCF30E0E6
:10FEE00020E043E0C701B601B9DF80E890E09B83E2
:10FEF0008A83ABBEF40127913691C501B401641920
:10FF000075098609970941E0A9DF8A819B810197DC
:10FF10009B838A8392E0890E911CA11CB11C8A816B
:10FF20009B81892B31F730E020E045E0C701B60125
:10FF300095DF9FEFD91AE90AF90A0F5F1F4FC0CF6B
:10FF40000F900F900F90DF91CF911F910F91FF9025
:10FF5000EF90DF90CF90BF90AF909F908F907F9069
:10FF60006F905F904F903F902F900895F999FECF3A
:10FF700092BD81BDF89A992780B50895262FF999E9
:10FF8000FECF1FBA92BD81BD20BD0FB6F894FA9A7C
:08FF9000F99A0FBE01960895D5
:02FFFE000008F9
:00000001FF
