:100000000C94D5010C9406020C9406020C94060282
:100010000C9406020C9406020C9406020C94060240
:100020000C9406020C9406020C9406020C94060230
:100030000C9406020C9406020C9406020C94060220
:100040000C9406020C9406020C9406020C94060210
:100050000C9406020C9406020C9406020C94920E68
:100060000C9406020C9406020C9406020C940602F0
:100070000C9406020C9406020C9406020C940602E0
:100080000C9406020C9406020C9406020C940602D0
:100090000C94DE0C0C94140D0C9406020C940602C5
:1000A0000C9406020C9406020C9406020C940602B0
:1000B0000C9406020C9406020C9406020C940602A0
:1000C0000C9406020C9406020C9406020C94750D16
:1000D0000C94AB0D0C9406020C9406020C940602D0
:1000E0000C9406020C94640F0C94800F0C946E0F09
:1000F0000C94780F0C945A0F0C94DF0D0C944C0F49
:100100000C940C0E0C946A0F0C948A0F0C948B0BAD
:100110000C94920F0C94970B0C943E0D0C94C80BFE
:100120000C94A50B0C94560F0C94910F0C94600F2B
:100130000C943F0C0C941F0C0C94720F0C948E0FAB
:100140000C94480D0C947C0F0C94B90B0C94D50DA9
:100150000C94520F0C94E5020C94860F41542B43DF
:10016000414F50454E3D302C302C22554450222CCE
:10017000223136342E39322E3136342E3136382271
:100180002C383038300041542B434E4143543F000B
:1001900041542B434E4143543D302C310041542BAC
:1001A0004353510041542B43474E41504E0041545C
:1001B0002B434F50533F0041542B4346554E3D3146
:1001C0000041542B434744434F4E543D312C224968
:1001D00050222C22696F742E316E63652E6E657409
:1001E000220041542B4346554E3D300041542B4391
:1001F0004E4346473D302C312C22696F742E316EB0
:1002000063652E6E6574220041542B43474154545C
:100210003F0041542B47534E0041540041542B435F
:1002200041524543563D302C313436300041542B39
:100230004341524543563D302C3134363000415411
:100240002B434153454E443D302C31320041542B19
:100250004341524543563D302C31343630004154F1
:100260002B434153454E443D302C313600000000B5
:100270000A0B0C00000000000D0E0F09000000002A
:100280000804050600000000000011121300000021
:10029000000000000000000000000000000000005E
:1002A000000000000000000000000000000000004E
:1002B000000000000000000000000000000000003E
:1002C000000003010204081020408001020408100D
:1002D0002040010204081020408080081001020420
:1002E0000810204080010204081020408001020113
:1002F00002040810204080010204081020400480FD
:1003000040201008040201800102040810204080EF
:10031000010204081020408020050505050505059B
:100320000508080808080808020202020202020280
:100330000807070C0C0C0C0C0C0C0C040404040433
:10034000040404070703030303030303030A0A0A5D
:100350000A0A0A0A0701010101010101010A060650
:100360000606060606060B0B0B0B0B0B0B0B07000A
:10037000002200250028002B002E0031003400024E
:10038000010000050108010B0100002100240027E5
:10039000002A002D00300033000101000004010795
:1003A000010A0100E502480DDF0D11241FBECFEF49
:1003B000D1E2DEBFCDBF00E00CBF12E0A0E0B2E0B2
:1003C000E8EDF8E200E00BBF02C007900D92A23703
:1003D000B107D9F72CE1A2E7B2E001C01D92AD321E
:1003E000B207E1F711E0C5EDD1E000E006C02197CA
:1003F0000109802FFE010E942110C23DD10780E03B
:100400000807A9F70E94830E0C946A140C9400004C
:10041000DC01ED91FC910280F381E02D19948F9223
:100420009F92AF92BF92CF92DF92EF92FF926C01B8
:100430000E94DC0E4B015C010D2C000CEE08FF0845
:100440000E94DC0E681979098A099B096C157D05E3
:100450008E059F05A8F3FF90EF90DF90CF90BF909F
:10046000AF909F908F9008950F931F93CF93DF933A
:10047000CDB7DEB7A8970FB6F894DEBF0FBECDBFDD
:100480008DE0E7E0F2E0DE01559601900D928A954D
:10049000E1F7FE01B29687E0DF011D928A95E9F748
:1004A00080919A1690919B1601969F938F938DE25F
:1004B00092E09F938F938E010F5F1F4F1F930F93B7
:1004C0000E947E11B801CE0145960E944E1144E172
:1004D00050E0BE016B5E7F4F86EE9AE10E940802FB
:1004E00086EE9AE10E946C0E8CE291E00E940F026F
:1004F00040919A1650919B164F5F5F4F6CEF76E1DB
:1005000086EE9AE10E9408020F900F900F900F90D4
:100510000F900F90A8960FB6F894DEBF0FBECDBF18
:10052000DF91CF911F910F91089560E08BE20E94BF
:10053000D10F88EE93E00E940F0261E08BE20C94F1
:10054000D10FE091E41AF091E51A1182108208951A
:10055000EAECF6E182E3DF011D928A95E9F708955E
:10056000AC01FC018FEF9FEF9F01241B350B261779
:100570003707BCF42191022E000C330B82279327FE
:1005800028E030E0DC01A170BB2796958795AB2B66
:1005900021F0A1E08A27A0EA9A272150310991F79A
:1005A000E3CF089530E020E02417350754F4DC0150
:1005B000ED91FD91CD01E617F70729F02F5F3F4F31
:1005C000F3CF80E0089581E0089588EE93E00E94E3
:1005D00029109093E51A8093E41A08950F931F93BE
:1005E000CF93DF938CE291E00E940F0283E89BE1BE
:1005F0000E948B0B892B99F083E89BE10E948B0B67
:100600008C01CAECD6E1CE018A5C96418017910735
:100610006CF783E89BE10E94A50B8993F4CFDF91EF
:10062000CF911F910F9108952F923F924F925F9219
:100630006F927F928F929F92AF92BF92CF92DF92F2
:10064000EF92FF920F931F93CF93DF93CDB7DEB757
:10065000CC5AD5400FB6F894DEBF0FBECDBF809107
:100660009E1681116EC1EFE9F6E18EE1DF011D9268
:100670008A95E9F7E091E41AF091E51A8281938175
:10068000F82FE92FC555DA4FF983E883CB5AD540C7
:1006900004E0E02EF12CD12CC12CB12CA12C8CEA41
:1006A000282EC555DA4F28813981CB5AD540C2163C
:1006B000D30609F4ABC0E091E41AF091E51AEE0D0F
:1006C000FF1D308081814280582E3381C755DA4F1B
:1006D0003883C95AD54084816580782E032D032C38
:1006E000000C110BC8010E945414681621F0662DED
:1006F000C8010E945C1448014FEF841A940AC40197
:100700000E945414781621F0672DC4010E945C14D5
:10071000B8018FE996E10E945911892BA9F5F501DD
:10072000E156F94E3082209EC001219E900D112489
:100730008E589D4FFC01E858FF4F11821082865859
:100740009F4FDC011D921C92B32DE0E3BE02C0015D
:100750001124E1E0F0E0EC0FFD1FE80FF91FDF01CD
:1007600020E21D922A95E9F78096E1E0F0E0EC0F97
:10077000FD1FE80FF91FDF0120E11D922A95E9F71F
:10078000A5014F5F5F4F5A01C755DA4F5881C95ACB
:10079000D540209ED001219EB00D11245130F9F496
:1007A000A651BD4F8D919C9111979C012F5F3F4F9A
:1007B0002D933C93A6E5A09FF001A19FF00D11247D
:1007C000E80FF91FEE0FFF1FEE56FD4F51824082DA
:1007D000EFEFCE1ADE0AF6E0EF0EF11C62CFA45165
:1007E000BD4F8D919C9111979C012F5F3F4F2D9391
:1007F0003C93B6E5B09FF001B19FF00D1124E80FD6
:10080000F91FEE0FFF1FEE58FD4FE0CF0E94A1022F
:100810006FE976E15B01ACEA9A2ED5010D900020DC
:10082000E9F7CD01805A96419B012F59364128178F
:10083000390708F086C0FB018191BF01082E000C2A
:10084000990B989E7001999EF00C1124F701EE58B7
:10085000FD4FDF01A858BF4F0D911C911197101645
:10086000110674F520A131A1D49711963C932E93D3
:10087000EA5BFF4F3183208321E030E03F01021724
:100880001307F1F0A901440F551F4E0D5F1D4E587F
:100890005D4FFA0140A151A1CD90DC9011974C150C
:1008A0005D0518F411965C934E93F301C080D180DE
:1008B000C416D50610F4518340832F5F3F4FDFCF1E
:1008C000989EA001999E500D1124FA01EE58FD4FFB
:1008D000DF01A658BF4F0D911C91119710161106FC
:1008E0000CF09BCF80819181DA9711969C938E9327
:1008F000EE5BFF4F9183808321E030E06F010217B0
:10090000130709F48ACFC901880F991F840F951F17
:100910008E589D4FFC0180819181ED90FC90119744
:100920008E159F0518F411969C938E93F601E08026
:10093000F180E816F90610F4918380832F5F3F4F12
:10094000DECF81E080939E160FE916E128016CEA64
:10095000762E71EA872E75E0972E8C0E9D1EF6E09E
:100960008F0E911CE0E36E2EAA24A394B12CD20129
:100970000D900020E9F7CD01805A964198012F593A
:1009800036412817390708F029C1F8012081372D91
:100990002303C00111248E589D4FFC01E858FF4FDE
:1009A00040815181141615060CF08CC0D4011D92A3
:1009B0001C92CF55DA4F2883C15AD54022E0CE553C
:1009C000DA4F2883C25AD540F49720813181CD5522
:1009D000DA4F3883C35AD540CC55DA4F2883C45AEE
:1009E000D5408A5B9F4FFC0180819181AC014F5FB4
:1009F0005F4F421B530BCB55DA4F5883C55AD54036
:100A00008F5F821BCA55DA4F8883C65AD54066E08D
:100A100070E0CE018F559A4F0E94B002C955DA4F4F
:100A20008883C75AD540C855DA4F9883C85AD540ED
:100A300048E050E0BE016F557A4F83E89BE10E9489
:100A400008020E94EE026091CC1670E07B0153E038
:100A5000EE0CFF1C5A95E1F7EAECF6E1CF018A5C57
:100A600096418617970774F5D380D8014C9190E092
:100A700080E0262D4203A0011124A1E0B0E0AC0FDC
:100A8000BD1F4A0F5B1F2D2CDD0C33088E159F05F3
:100A9000BCF46A01C80ED91E9501082E02C0220FAF
:100AA000331F0A94E2F722213321082E02C0359524
:100AB00027950A94E2F7D60190962C930196E6CFFB
:100AC0003196CCCFF8012081372D2303C0011124AA
:100AD0008E589D4FFC01E658FF4F408151811416FE
:100AE00015060CF074C0D4011D921C92CF55DA4F3C
:100AF0002883C15AD54023E0CE55DA4F2883C25A05
:100B0000D540FA9720813181CD55DA4F3883C35AC9
:100B1000D540CC55DA4F2883C45AD5408E5B9F4FC1
:100B2000FC0180819181AC014F5F5F4F421B530BF1
:100B3000CB55DA4F5883C55AD5408F5F821BCA55B3
:100B4000DA4F8883C65AD54066E070E0CE018F55F3
:100B50009A4F0E94B002C955DA4F8883C75AD540D0
:100B6000C855DA4F9883C85AD54048E050E0BE01D6
:100B70006F557A4F83E89BE10E9408020E94EE02C3
:100B80008091CC16869590E0AAECB6E130E020E0AA
:100B900068E1129628173907D4F4F801408146031A
:100BA000F0011124E20FF31FEE0FFF1F41E050E0B0
:100BB0004C0F5D1FE40FF51F11965C911197129673
:100BC0004C911297518340832F5F3F4FE2CF8CE2CD
:100BD00091E00E940F020F5F1F4FC9CE0E94A80232
:100BE0008CE090E090939B1680939A1610910602E9
:100BF0001F5F109306028CEF96E10E94C510ECEF88
:100C0000F6E188EE93E0DF019C011D922150304017
:100C1000E1F7BF01E0ECF6E19F01D9010D90002062
:100C2000E9F7CD01815C9641AF01405C5641481720
:100C3000590728F48191DB018D93BD01EECF10930C
:100C4000041781E0809305178FE9882E86E1982E9E
:100C5000F12CE12C512CEFE9F6E101900020E9F7AD
:100C6000CF01805A964194012F59364128173907F0
:100C700008F0EFC0D4014D904D01C42C042C000CA1
:100C8000DD08BCEABC9D9001BD9D300D1124C90159
:100C90008E589D4FFC01E858FF4FA080B1801A1478
:100CA0001B040CF067C0F49700811181F901EE5626
:100CB000FD4FC755DA4FF983E883C95AD5408A5B9F
:100CC0009F4FDC018D919C91FC013196C555DA4F07
:100CD000F983E883CB5AD540F42D40E3F402300188
:100CE0001124601A710A1901201A310AC555DA4F08
:100CF00088819981CB5AD54080179107D9F1A501F8
:100D0000B801C755DA4F88819981C95AD5400E94E8
:100D1000D202882351F1F801E60DF71DA1E0B0E001
:100D2000AC0FBD1FEA0FFB1F20A1D101A00FB11F07
:100D3000A654BD4F9C91582E2917C9F080919A1640
:100D400090919B16FC01E450F94E4082118302837E
:100D50001382059690939B1680939A1624832C9366
:100D6000BFEFEB1AFB0A512C02C05520C9F30F5FED
:100D70001F4FBCCFECEAEC9D8001ED9D100D1124BE
:100D80000E581D4FF801E658FF4F60807180161411
:100D900017040CF060CFFA97C080D1803296208083
:100DA0003180FFEF2F1A3F0A342D20E332029001E9
:100DB0001124C755DA4F39832883C95AD540B12C3D
:100DC000A12CC214D30409F446CFA301B601C80173
:100DD0000E94D2028823A1F1C755DA4FE881F98138
:100DE000C95AD540EA0DFB1D41E050E04C0F5D1F94
:100DF000E40FF51F20813181D501A85ABF4FA00F04
:100E0000B11F4D915C911197582E24173507D1F0E1
:100E100080919A1690919B16FC01E450F94E408205
:100E2000D182C2823383059690939B1680939A1643
:100E300024832D933C935FEFE51AF50A512C02C0F1
:100E40005520C9F38FEFC81AD80A92E0A90EB11C39
:100E5000B8CF1E141F040CF048C0F0920617E092A1
:100E6000071700919A1610919B16B8018CEF96E126
:100E70000E94B0027801AFEFEA1AFA0AF0929B16CC
:100E8000E0929A16F801E450F94E9083B8018CEF85
:100E900096E10E94B0020E5F1F4F10939B160093C5
:100EA0009A16F701E450F94E808381E090E0909328
:100EB0009D1680939C16C455DA4F0FB6F894DEBF8A
:100EC0000FBECDBFDF91CF911F910F91FF90EF909B
:100ED000DF90CF90BF90AF909F908F907F906F905A
:100EE0005F904F903F902F90089510929D16109212
:100EF0009C16E1CF0F931F93CF93DF930E940F02B5
:100F000086EE9AE10E948B0B892BB9F086EE9AE16E
:100F10000E948B0B8C01D0E0C0E0C017D1076CF4AD
:100F200086EE9AE10E94A50BE091E41AF091E51A91
:100F3000EC0FFD1F80832196F0CF60E372E080917B
:100F4000E41A9091E51A0E946411EC010E94A1023A
:100F500081E0CD2B09F480E0DF91CF911F910F91BB
:100F600008950F931F93CF93DF9388EE93E00E9431
:100F70000F0286EE9AE10E948B0B892BB9F086EE68
:100F80009AE10E948B0B8C01D0E0C0E0C017D10722
:100F900084F786EE9AE10E94A50BE091E41AF091A5
:100FA000E51AEC0FFD1F80832196F0CFDF91CF91E2
:100FB0001F910F9108956F927F928F929F92AF929F
:100FC000BF92CF92DF92EF92FF920F931F93CF9336
:100FD000DF933C016B010E94DC0E4B015C01D0E011
:100FE000C0E0F12CE12C0E94B1070091E41A1091AD
:100FF000E51AB301C8010E946411892B09F464C089
:1010000061E081E40E94D10F8DE790E00E940F0221
:1010100060E081E40E94D10F8DE790E00E940F0212
:1010200061E081E40E94D10F8DE790E00E940F0201
:1010300060E081E40E94D10F8DE790E00E940F02F2
:1010400011E0C1E0D0E00E94DC0E681979098A093C
:101050009B09C616D706E806F90618F561E082E492
:101060000E94D10F8DE790E00E940F0260E082E4C1
:101070000E94D10F8DE790E00E940F0261E082E4B0
:101080000E94D10F8DE790E00E940F0260E082E4A1
:101090000E94D10F8DE790E00E940F02D0E0C0E0E7
:1010A00003C0112309F49FCFCE01DF91CF911F918F
:1010B0000F91FF90EF90DF90CF90BF90AF909F90F7
:1010C0008F907F906F90089563E372E0C8010E9453
:1010D000641110E0892B09F4B6CF61E080E40E942E
:1010E000D10F8DE790E00E940F0260E080E40E9443
:1010F000D10F8DE790E00E940F0261E080E40E9432
:10110000D10F8DE790E00E940F0260E080E40E9422
:10111000D10F8DE790E00E940F0211E0C2E0D0E015
:1011200092CF1F93CF93DF93C5E0D0E011E069E148
:1011300072E086EE9AE10E94700E88EC90E00E94C8
:101140007A07811110E0219791F7811102C00E9466
:1011500095021111E9CF0E94A10262E172E086EED0
:101160009AE10E94700E60E177E280E392E00E94D3
:10117000DB07C091E41AD091E51AFE01A1ECB6E1BB
:1011800030E020E02115310521F4898580538093DA
:10119000C0162F5F3F4F82858295807F9385905345
:1011A000892B8D9332962730310561F70E94A10279
:1011B00068E072E086EE9AE10E94700E60E177E2EC
:1011C00089E392E00E94DB070E94A1026CEE71E0CD
:1011D00086EE9AE10E94700E60E177E280E392E091
:1011E0000E94DB07019751F162EE71E086EE9AE111
:1011F0000E94700E60E177E280E392E00E94DB07DC
:101200000E94A10261EC71E086EE9AE10E94700EEC
:1012100060E177E280E392E00E94DB070E94A10296
:1012200067EB71E086EE9AE10E94700E60E177E272
:1012300080E392E00E94DB070E94A1020E94A102CB
:101240006EEA71E086EE9AE10E94700E68E873E142
:101250008AE592E00E94DB07019731F068E873E1CC
:101260008BE392E00E94DB070E94A10264EA71E036
:1012700086EE9AE10E94700E60E177E28DE392E0E3
:101280000E94DB070E94A1026DE971E086EE9AE1FF
:101290000E94700E60E177E280E392E00E94DB073B
:1012A000E091E41AF091E51A87818093BD1680855C
:1012B0008093BE160E94A10260E971E086EE9AE179
:1012C0000E94700E60E177E28CE492E00E94DB07FE
:1012D0000E94A10266E871E086EE9AE10E94700E1B
:1012E00060E177E280E392E00E94DB070E94A102C6
:1012F0006CE571E086EE9AE10E94700E60E177E2A3
:1013000085E592E00E94DB07DF91CF911F910C945D
:10131000A102CF92DF92EF92FF920F931F93CF9390
:10132000DF93CDB7DEB7C85ED3400FB6F894DEBF0B
:101330000FBECDBF8CE291E00E940F028E010F5FC5
:101340001F4F86EE9AE10E948B0B009709F042C076
:10135000F801AF01401B510B21912C32D1F72A85A6
:101360002053330B4430510509F049C06B8560535D
:10137000770BE4E6E69FA001E79F500D1124E8EE0D
:10138000F3E02E9FB0012F9F700D3E9F700D112432
:101390009A01260F371F4C85FAE04F9F200D311D13
:1013A0001124205E31404D85240F311D2053310919
:1013B000EEE0F0E0E00FF11F821793070CF051C050
:1013C0004191A091E41AB091E51AA80FB91F4C936E
:1013D0000196F2CF86EE9AE10E948B0B6C017801A8
:1013E000C701801B910B8C159D050CF0AACF86EED2
:1013F0009AE10E94A50BF70181937F01F1CF433061
:101400005105D1F46B856053770BEAE0E69FA001AC
:10141000E79F500D1124E4E6E29FB001E39F700DB9
:101420001124460F571F2C85240F352F311D2053B3
:101430003109EDE0F0E0BECFEBE0F0E042305105E5
:1014400009F0B8CF6AE0629FA001639F500D11249C
:101450002B85240F352F311D20533109ECE0F0E0AE
:10146000A9CFC851DC4F0FB6F894DEBF0FBECDBF79
:10147000DF91CF911F910F91FF90EF90DF90CF9070
:101480000895EF92FF920F931F93CF93DF93CDB701
:10149000DEB7E5970FB6F894DEBF0FBECDBF80E88C
:1014A000809361001092610026E040E855E260E020
:1014B00070E086EE9AE10E948C0C26E040E855E24E
:1014C00060E070E083E89BE10E948C0C61E08AE2BE
:1014D0000E94950F61E08BE20E94950F61E082E42B
:1014E0000E94950F61E081E40E94950F61E080E425
:1014F0000E94950F60E083E40E94950F60E082E413
:101500000E94D10F60E081E40E94D10F60E080E48E
:101510000E94D10F61E08BE20E94D10F60E08AE26D
:101520000E94D10F80ED97E00E940F020E94910867
:10153000809106028F5F809306029E012F5F3F4FCE
:101540007901A0ECB6E18901AD01FA01019000201A
:10155000E9F79F01215C3641BD01605C764162176D
:10156000730728F49D91F70191937F01EECF89874E
:1015700082E08A871B8681E08C871D868E876EE0DD
:1015800070E0C8010E94B0029F876EE070E0C80161
:101590000E94B002888B6EE572E086EE9AE10E94AE
:1015A000700E84EF91E00E940F020E94A10244E1BC
:1015B00050E0B80186EE9AE10E94080260E177E20D
:1015C00080E392E00E94DB070E94A1026DE472E0DA
:1015D00086EE9AE10E94700E60E177E289E592E082
:1015E0000E94DB070E94A102809106028F5F809318
:1015F00006027E01F7E2EF0EF11CA0ECB6E18701D6
:10160000AD01FA0101900020E9F79F01215C36410C
:10161000BD01605C76416217730728F49D91F70164
:1016200091937F01EECF8FA783E088AB6AE070E0F3
:10163000C8010E94B00299AB6AE070E0C8010E9444
:10164000B0028AAB6EE372E086EE9AE10E94700E01
:1016500084EF91E00E940F020E94A1024FE050E04F
:10166000B80186EE9AE10E94080260E177E280E329
:1016700092E00E94DB070E94A1026DE272E086EE1A
:101680009AE10E94700E0E9489090E94A10282E1E3
:10169000EBE1F2E0DE01559601900D928A95E1F7BB
:1016A000DE01559690E080E02D91E091E41AF091F2
:1016B000E51AE80FF91F2083019682319105A1F701
:1016C000E5960FB6F894DEBF0FBECDBFDF91CF9188
:1016D0001F910F91FF90EF90089580919C1690912B
:1016E0009D16009719F0019719F008950C941403B2
:1016F00088EE93E00E940F020E9434026CE172E0D7
:1017000086EE9AE10E94700E0E94890910929D1641
:1017100010929C160895FC01918D228D892F90E0E6
:10172000805C9F4F821B91098F7399270895FC015C
:10173000918D828D981731F0828DE80FF11D858D86
:1017400090E008958FEF9FEF0895FC01918D828DB9
:10175000981761F0A28DAE0FBF2FB11D5D968C91D1
:10176000928D9F5F9F73928F90E008958FEF9FEF10
:101770000895FC01538D448D252F30E0842F90E097
:10178000821B930B541710F0CF960895019708957C
:1017900080E090E0892B49F080E090E0892B29F0EF
:1017A0000E94000081110E9400008EE39DE0892BC1
:1017B00049F080E090E0892B29F00E943E0D8111D4
:1017C0000E94000085ED9DE0892B49F080E090E0CB
:1017D000892B29F00E94D50D81110E94000080E024
:1017E00090E0892B49F080E090E0892B29F00E945D
:1017F000000081110C9400000895FC01A48DA80F35
:10180000B92FB11DA35ABF4F2C91848D90E0019642
:101810008F739927848FA689B7892C93A089B18962
:101820008C91837080648C93938D848D981306C003
:101830000288F389E02D80818F7D80830895CF9386
:10184000DF93EC01888D8823B9F0AA89BB89E889E8
:10185000F9898C9185FD03C0808186FD0DC00FB68E
:1018600007FCF7CF8C9185FFF2CF808185FFEDCF0C
:10187000CE010E94FD0BE9CFDF91CF910895EF9249
:10188000FF920F931F93CF93DF93EC0181E0888F3A
:101890009B8D8C8D98131AC0E889F989808185FF0A
:1018A00015C09FB7F894EE89FF896083E889F989AC
:1018B00080818370806480839FBF81E090E0DF91AE
:1018C000CF911F910F91FF90EF900895F62E0B8D01
:1018D00010E00F5F1F4F0F731127E02E8C8D8E11BC
:1018E0000CC00FB607FCFACFE889F989808185FF23
:1018F000F5CFCE010E94FD0BF1CFEB8DEC0FFD2F4C
:10190000F11DE35AFF4FF0829FB7F8940B8FEA89DD
:10191000FB8980818062CFCFCF92DF92EF92FF92DE
:101920001F93CF93DF93EC016A017B01122F60E8D4
:1019300074E88EE190E0A70196010E94FF0F21500C
:101940003109410951095695479537952795E889F9
:10195000F98982E08083211580E1380798F0E889D1
:10196000F989108260E472E48FE090E0A7019601AB
:101970000E94FF0F215031094109510956954795A1
:1019800037952795EC85FD853083EE85FF8520838F
:10199000188EEC89FD891083EA89FB89808188692A
:1019A0008083EA89FB8980818F7D8083DF91CF915D
:1019B0001F91FF90EF90DF90CF9008951F920F92AC
:1019C0000FB60F9211240BB60F922F938F939F9304
:1019D000EF93FF93E091F61AF091F71A8081E0916E
:1019E000FC1AF091FD1A82FD1DC090818091FF1AB2
:1019F0008F5F8F732091001B821741F0E091FF1AD7
:101A0000F0E0EA51F54E958F8093FF1AFF91EF9128
:101A10009F918F912F910F900BBE0F900FBE0F9043
:101A20001F9018958081F2CF1F920F920FB60F92E0
:101A300011240BB60F922F933F934F935F936F93A5
:101A40007F938F939F93AF93BF93EF93FF9386EE14
:101A50009AE10E94FD0BFF91EF91BF91AF919F9191
:101A60008F917F916F915F914F913F912F910F9047
:101A70000BBE0F900FBE0F901F90189586EE9AE147
:101A80000E948B0B21E0892B09F420E0822F08951E
:101A9000E6EEFAE11382128288EE93E0A0E0B0E075
:101AA00084839583A683B78380E692E091838083C5
:101AB0008DEC90E0958784878CEC90E09787868703
:101AC00088EC90E0918B808B89EC90E0938B828BFB
:101AD0008AEC90E0958B848B8EEC90E0978B868BD4
:101AE000118E128E138E148E08951F920F920FB6C0
:101AF0000F9211240BB60F922F938F939F93EF9316
:101B0000FF93E091931BF091941B8081E091991BCE
:101B1000F0919A1B82FD1DC0908180919C1B8F5F6C
:101B20008F7320919D1B821741F0E0919C1BF0E088
:101B3000ED57F44E958F80939C1BFF91EF919F91F1
:101B40008F912F910F900BBE0F900FBE0F901F9093
:101B500018958081F2CF1F920F920FB60F92112429
:101B60000BB60F922F933F934F935F936F937F9397
:101B70008F939F93AF93BF93EF93FF9383E89BE182
:101B80000E94FD0BFF91EF91BF91AF919F918F91BB
:101B90007F916F915F914F913F912F910F900BBE6D
:101BA0000F900FBE0F901F90189583E89BE10E9445
:101BB0008B0B21E0892B09F420E0822F0895E3E8C4
:101BC000FBE11382128288EE93E0A0E0B0E0848310
:101BD0009583A683B78380E692E09183808385ED29
:101BE00090E09587848784ED90E09787868780EDE5
:101BF00090E0918B808B81ED90E0938B828B82EDD6
:101C000090E0958B848B86ED90E0978B868B118E80
:101C1000128E138E148E0895AF92BF92CF92DF92E0
:101C2000EF92FF920F931F93CF93DF936C017B0191
:101C30008B01040F151FEB015E01AE18BF08C01722
:101C4000D10759F06991D601ED91FC910190F08195
:101C5000E02DC6011995892B79F7C501DF91CF9148
:101C60001F910F91FF90EF90DF90CF90BF90AF90BA
:101C70000895FB0101900020E9F73197AF01461B61
:101C8000570BDC01ED91FC910280F381E02D19945A
:101C9000EF92FF920F931F93CF93DF938C017B0101
:101CA000D0E0C0E0F701EC0FFD1F6491662361F006
:101CB000D801ED91FC910190F081E02DC8011995BA
:101CC000892B11F02196EECFCE01DF91CF911F919C
:101CD0000F91FF90EF9008956EE672E00C94390E2C
:101CE0000F931F93CF93DF93EC010E94480E8C015A
:101CF000CE010E946C0E800F911FDF91CF911F913A
:101D00000F91089508950E94E80E0E94820E0E948D
:101D1000410AC8ECDBE00E946D0B2097E1F30E94C2
:101D2000C80BF9CF1F920F920FB60F9211242F9369
:101D30003F938F939F93AF93BF938091251C909176
:101D4000261CA091271CB091281C3091241C26E051
:101D5000230F2D3768F129E8230F0396A11DB11D2C
:101D60002093241C8093251C9093261CA093271C51
:101D7000B093281C8091201C9091211CA091221CC2
:101D8000B091231C0196A11DB11D8093201C90933E
:101D9000211CA093221CB093231CBF91AF919F9153
:101DA0008F913F912F910F900FBE0F901F9018951C
:101DB0000296A11DB11DD4CF2FB7F8946091251CB8
:101DC0007091261C8091271C9091281C2FBF08958C
:101DD000789484B5836084BD85B5836085BDEEE667
:101DE000F0E0808181608083E1E8F0E082E0808340
:101DF000808181608083E0E8F0E080818160808381
:101E0000E1EBF0E0808184608083E0EBF0E08081B2
:101E100081608083E1E9F0E0808183608083E0E994
:101E2000F0E0808181608083E1EAF0E0808183607E
:101E30008083E0EAF0E0808181608083E1E2F1E08C
:101E4000808183608083E0E2F1E080818160808333
:101E500086E880937A001092C10008958250823102
:101E600008F05FC0E82FF0E08827E65CF04F8F4F66
:101E70000C9421108E0F920F4C0F520F560F910F92
:101E80005A0F600F640F6A0F6E0F720F780F7C0F7E
:101E9000910F800F860F8A0F809180008F7780933B
:101EA00080000895809180008F7DF9CF809180001F
:101EB000877FF5CF8091B0008F778093B000089531
:101EC0008091B0008F7DF9CF809190008F778093C3
:101ED00090000895809190008F7DF9CF80919000BF
:101EE000877FF5CF8091A0008F778093A000089521
:101EF0008091A0008F7DF9CF8091A000877FF5CFE2
:101F0000809120018F778093200108958091200196
:101F10008F7DF9CF80912001877FF5CF84B58F77B2
:101F200084BD089584B58F7DFBCFCF93DF9390E080
:101F3000FC01ED53FD4F2491875E9C4FFC01849181
:101F40008823C9F090E0880F991FFC01E757FC4FE8
:101F5000A591B491FC01E159FC4FC591D491611157
:101F60000DC09FB7F8948C91209582238C93888123
:101F7000282328839FBFDF91CF910895623051F4C9
:101F80009FB7F8943C91822F809583238C93E881AE
:101F90002E2BEFCF8FB7F894EC912E2B2C938FBF75
:101FA000EACF1F93CF93DF93282F30E0F901E35955
:101FB000FD4F8491F901ED53FD4FD491F901E75E96
:101FC000FC4FC491CC23A9F0162F81110E942E0F33
:101FD000EC2FF0E0EE0FFF1FE159FC4FA591B491FB
:101FE0008FB7F894EC91111108C0D095DE23DC93E3
:101FF0008FBFDF91CF911F910895DE2BF8CFA1E223
:102000001A2EAA1BBB1BFD010DC0AA1FBB1FEE1F72
:10201000FF1FA217B307E407F50720F0A21BB30BBD
:10202000E40BF50B661F771F881F991F1A9469F739
:1020300060957095809590959B01AC01BD01CF0195
:102040000895EE0FFF1F881F8BBF0790F691E02DBC
:1020500019940F931F93CF93DF938230910510F45F
:1020600082E090E0E0912B1CF0912C1C30E020E00D
:10207000B0E0A0E0309799F42115310509F44AC089
:10208000281B390B24303105D8F58A819B816115D5
:10209000710589F1FB0193838283FE0111C04081A8
:1020A00051810281138148175907E0F048175907F9
:1020B00099F4109761F012960C93129713961C9353
:1020C0003296CF01DF91CF911F910F910895009328
:1020D0002B1C10932C1CF4CF2115310551F0421705
:1020E000530738F0A901DB019A01BD01DF01F801B6
:1020F000C1CFEF01F9CF90932C1C80932B1CCDCF37
:10210000FE01E20FF31F819391932250310939832D
:102110002883D7CF2091291C30912A1C232B41F4EE
:10212000209102023091030230932A1C2093291C33
:1021300020910002309101022115310541F42DB7A3
:102140003EB74091040250910502241B350BE091EB
:10215000291CF0912A1CE217F307A0F42E1B3F0B59
:102160002817390778F0AC014E5F5F4F2417350709
:1021700048F04E0F5F1F50932A1C4093291C8193F7
:1021800091939FCFF0E0E0E09CCFCF93DF93009757
:10219000E9F0FC01329713821282A0912B1CB091BE
:1021A0002C1CED0130E020E01097A1F4208131815A
:1021B000820F931F2091291C30912A1C2817390760
:1021C00009F061C0F0932A1CE093291CDF91CF91A4
:1021D0000895EA01CE17DF07E8F54A815B819E0189
:1021E00041155105B1F7E901FB83EA834991599102
:1021F000C40FD51FEC17FD0761F480819181029611
:10220000840F951FE90199838883828193819B8341
:102210008A83F0E0E0E012968D919C9113970097ED
:10222000B9F52D913C911197CD010296820F931F24
:102230002091291C30912A1C2817390739F630972C
:1022400051F510922C1C10922B1CB0932A1CA093B9
:10225000291CBCCFD383C28340815181840F951F39
:10226000C817D90761F44E5F5F4F88819981480F85
:10227000591F518340838A819B81938382832115D7
:10228000310509F0B0CFF0932C1CE0932B1C9ECFAE
:10229000FD01DC01C0CF13821282D7CFFB01DC012C
:1022A0000D900020E9F7119701900D920020E1F7C1
:1022B0000895FC018191861721F08823D9F7992789
:1022C00008953197CF010895FB0151915523A9F04D
:1022D000BF01DC014D9145174111E1F759F4CD01E2
:1022E0000190002049F04D9140154111C9F3FB01C7
:1022F0004111EFCF81E090E0019708950F931F9374
:10230000CF93DF93CDB7DEB72E970FB6F894DEBF2D
:102310000FBECDBF0E891F8986E08C831A83098387
:102320008FEF9FE79E838D83AE01465E5F4F688D82
:10233000798DCE0101960E94AE112F813885020F52
:10234000131FF80110822E960FB6F894DEBF0FBE51
:10235000CDBFDF91CF911F910F9108952F923F92A2
:102360004F925F926F927F928F929F92AF92BF92A5
:10237000CF92DF92EF92FF920F931F93CF93DF9351
:1023800000D000D000D01F921F92CDB7DEB77C01E5
:102390003B018A01FC0117821682838181FFDDC126
:1023A000CE0101965C01F7019381F30193FD8591C4
:1023B00093FF81913F01882309F453C1853239F499
:1023C00093FD859193FF81913F01853229F4B701F7
:1023D00090E00E94C613E7CF912C212C312CFFE115
:1023E000F31538F08B3211F190F4803209F1833219
:1023F00029F137FC3CC020ED280F2A3050F536FE7D
:1024000020C08AE0989E200D1124922E06C08D32A5
:1024100091F0803371F7689430F8F30193FD859162
:1024200093FF81913F018111DACF21C0689431F887
:10243000689432F8F2CF689433F8EFCF689434F8A8
:10244000ECCFEAE02E9E200D1124222E689435F860
:10245000E4CF8E3229F436FC04C1689436F8DDCF1F
:102460008C3619F4689437F8D8CF8836B1F2982FA3
:102470009F7D95549330E0F08336A1F18337C1F10D
:10248000833509F063C02801F2E04F0E511CF801BA
:10249000C080D180692D70E036FC02C06FEF7FEF05
:1024A000C6010E94B0134C01689437F882010AC03B
:1024B0000C5F1F4FFFE3F98388248394912C6501FF
:1024C000E89437F833FE2DC0522C8114910471F535
:1024D000552009F468CFB70180E290E00E94C6134E
:1024E0005A94F6CFF801808189830E5F1F4FE4CFA5
:1024F0002801F2E04F0E511CF801C080D180692DF7
:1025000070E036FC02C06FEF7FEFC6010E94BB1384
:102510004C018201D5CFB70180E290E00E94C61342
:102520002A942814190409F0B0F7CECFF60137FC2D
:10253000859137FE81916F01B70190E00E94C6132B
:1025400051105A94F1E08F1A9108BFCF843619F0D8
:10255000893609F077C0F80137FE6BC06081718160
:10256000828193810C5F1F4FF32DFF763F2E97FFE3
:1025700009C090958095709561957F4F8F4F9F4FC3
:10258000689437F82AE030E0A5010E94F613C82EBF
:10259000CA188C2C432C36FE0CC0E89440F8C914A1
:1025A00040F434FE05C032FC03C0F32DFE7E4F2EF6
:1025B000892C44FEAAC0FE01EC0DF11D8081803300
:1025C00009F09CC0242D297E422E842D8870582E1F
:1025D00043FCAAC040FEA4C09C2C821418F42C0C0E
:1025E000922C981844FEA6C0B70180E390E00E94A8
:1025F000C61342FE09C088E790E041FE02C088E5AC
:1026000090E0B7010E94C613C91408F49FC0CA9491
:10261000D12C9FEFC91AD90ACA0CDB1CF601829192
:102620006F01B70190E00E94C613AC14BD04B1F76E
:102630004FCF60817181072E000C880B990B0E5FC4
:102640001F4F92CFD32CE894D4F82AE030E085379E
:10265000E1F1232D297FD22E8F36A9F1F0F48835B0
:1026600051F1F701868197812B960FB6F894DEBF62
:102670000FBECDBFDF91CF911F910F91FF90EF90D3
:10268000DF90CF90BF90AF909F908F907F906F9092
:102690005F904F903F902F900895803749F0883792
:1026A00001F7D4FE02C06894D2F820E130E00DC0FA
:1026B0006894D4F8F6CF34FE03C0822F8660D82EFB
:1026C00020E132E002C028E030E0F801D7FE0FC080
:1026D00060817181828193810C5F1F4FA5010E94EF
:1026E000F613C82ECA183D2CE89437F852CF6081F3
:1026F000718190E080E00E5F1F4FF0CF42FC02C07E
:10270000839463CF8394839460CF842D867809F477
:102710005CCFF6CFB70180E290E00E94C6138394AD
:102720008214C0F3512C5ECF522C5818821408F436
:1027300059CFF8CF842D867809F466CF8BE241FE1D
:1027400080E247FC8DE2B70190E05CCFB70180E307
:1027500090E00E94C6139A9457CF8FEF9FEF84CFDB
:10276000FC010590615070400110D8F7809590955C
:102770008E0F9F1F0895FC01615070400190011061
:10278000D8F7809590958E0F9F1F08950F931F93F4
:10279000CF93DF93182F092FEB018B8181FD09C0A7
:1027A0001FEF0FEF812F902FDF91CF911F910F918E
:1027B000089582FF14C02E813F818C819D8128174E
:1027C00039073CF4E881F981CF0101969983888328
:1027D00010838E819F8101969F838E83E3CFE8854E
:1027E000F985812F1995892BA1F3DACFFA01AA2750
:1027F000283051F1203181F1E8946F936E7F6E5F44
:102800007F4F8F4F9F4FAF4FB1E03ED0B4E03CD0F1
:10281000670F781F891F9A1FA11D680F791F8A1FD4
:10282000911DA11D6A0F711D811D911DA11D20D03B
:1028300009F468943F912AE0269F11243019305DF5
:102840003193DEF6CF010895462F4770405D4193E6
:10285000B3E00FD0C9F7F6CF462F4F70405D4A3333
:1028600018F0495D31FD4052419302D0A9F7EACFFB
:10287000B4E0A6959795879577956795BA95C9F72A
:1028800000976105710508959B01AC010A2E06941D
:102890005795479537952795BA95C9F7620F731FD6
:1028A000841F951FA01D0895F999FECF92BD81BD8B
:1028B000F89A992780B50895262FF999FECF1FBA67
:1028C00092BD81BD20BD0FB6F894FA9AF99A0FBE59
:0828D00001960895F894FFCF72
:1028D80000002D1C8000FF41542B434153454E44BA
:1028E8003D302C000000000000000001030002023F
:1028F8000000010000010000020000656F2575005E
:102908004F4B004552524F52003100370022696F39
:10291800742E316E63652E6E65742200302C41432F
:102928005449564500302C3000343900000000006E
:102938003F0C0C0EB90B1F0C8B0BA50B970B0D0A3C
:0229480000008D
:00000001FF
