:100000000C94BF010C94F0010C94F0010C94F001DD
:100010000C94F0010C94F0010C94F0010C94F0019C
:100020000C94F0010C94F0010C94F0010C94F0018C
:100030000C94F0010C94F0010C94F0010C94F0017C
:100040000C94F0010C94F0010C94F0010C94F0016C
:100050000C94F0010C94F0010C94F0010C94E10F5D
:100060000C94F0010C94F0010C94F0010C94F0014C
:100070000C94F0010C94F0010C94F0010C94F0013C
:100080000C94F0010C94F0010C94F0010C94F0012C
:100090000C94B5100C948B100C94F0010C94F0019E
:1000A0000C94F0010C94F0010C94F0010C94F0010C
:1000B0000C94F0010C94F0010C94F0010C94F001FC
:1000C0000C94F0010C94F0010C94F0010C94551078
:1000D0000C942B100C94F0010C94F0010C94F00192
:1000E0000C94F0010C94F5020C944B020C946702F2
:1000F0000C9447020C9475020C9417030C94630241
:100100000C94C4030C9422020C9439020C945502F2
:100110000C9441020C94E6020C946D020C94AF0214
:100120000C9427020C9471020C9451020C94590304
:100130000C945F020C9459020C94EB100C943D0249
:100140000C9479020C94090341542B43414F5045C0
:100150004E3D302C302C22554450222C2232303748
:100160002E3135342E3235312E313731222C383084
:1001700038300041542B434E4143543F0041542BEF
:10018000434E4143543D302C310041542B434E43A8
:1001900046473D302C312C22696F742E316E6365D9
:1001A0002E6E6574220041542B4353510041542B51
:1001B00043474E41504E0041542B434F50533F0054
:1001C00041542B43474154543F0041542B47534E15
:1001D0000041540041542B4341524543563D302C7D
:1001E000313436300041542B434153454E443D3069
:1001F0002C31310041542B4341524543563D302C64
:10020000313436300041542B434153454E443D3048
:100210002C31350041542B4341524543563D302C3F
:10022000313436300041542B434153454E443D3028
:100230002C31380041542B4341524543563D302C1C
:10024000313436300000002100240027002A002D20
:10025000003000330001010000040107010A010021
:10026000002200250028002B002E0031003400025F
:10027000010000050108010B01050505050505053F
:100280000508080808080808020202020202020221
:100290000807070C0C0C0C0C0C0C0C0404040404D4
:1002A000040404070703030303030303030A0A0AFE
:1002B0000A0A0A0A0701010101010101010A0606F1
:1002C0000606060606060B0B0B0B0B0B0B0B0701AA
:1002D000020408102040800102040810204001029E
:1002E00004081020408080081001020408102040FB
:1002F000800102040810204080010201020408105D
:100300002040800102040810204004804020100892
:100310000402018001020408102040800102040848
:1003200010204080200000000A0B0C00000000009C
:100330000D0E0F0900000000080405060000000073
:100340000000111213000000000000000000000077
:10035000000000000000000000000000000000009D
:10036000000000000000000000000000000000008D
:10037000000000000000000000000300EB1011244A
:100380001FBECFEFD1E2DEBFCDBF00E00CBF12E059
:10039000A0E0B2E0E2E8F4E300E00BBF02C00790A7
:1003A0000D92A036B107D9F728E1A0E6B2E001C06E
:1003B0001D92AA33B207E1F711E0CFEBD1E000E0E4
:1003C00006C021970109802FFE010E94B218CE3B82
:1003D000D10780E00807A9F70E944E110C943F1A3C
:1003E0000C940000282F30E0F901EB5DFC4F949154
:1003F000F901E153FD4F449127583D4FF9012491F4
:10040000222309F435C0992311F192509231F8F466
:10041000E92FF0E08827E05FFD4F8F4F0C94B21872
:1004200075027902220239023D0227024102470287
:100430004B025102550259025F0263022702670212
:100440006D027102809180008F7780938000E22F8F
:10045000F0E0EE0FFF1FE15AFD4FA591B4918FB769
:10046000F894EC91611148C040954E234C938FBF96
:100470000895809180008F7DE8CF80918000877FF4
:10048000E4CF8091B0008F778093B000E0CF80916F
:10049000B0008F7DF9CF809190008F77809390008E
:1004A000D6CF809190008F7DF9CF80919000877F8B
:1004B000F5CF8091A0008F778093A000C8CF809166
:1004C000A0008F7DF9CF8091A000877FF5CF80912C
:1004D00020018F7780932001BACF809120018F7DFA
:1004E000F9CF80912001877FF5CF84B58F7784BDC8
:1004F000AECF84B58F7DFBCF4E2BB8CFCF93DF939C
:1005000090E0FC01E153FD4F249187589D4FFC0181
:1005100084918823D1F090E0880F991FFC01EB5B58
:10052000FD4FA591B491FC01E15AFD4FC591D491C5
:1005300061110EC09FB7F8948C91E22FE0958E2345
:100540008C932881E223E8839FBFDF91CF910895A8
:100550008FB7F894EC91E22BEC938FBFF6CFAF926C
:10056000BF92CF92DF92EF92FF920F931F93CF93A0
:10057000DF936C017B018B01040F151FEB015E0102
:10058000AE18BF08C017D10759F06991D601ED9197
:10059000FC910190F081E02DC6011995892B79F726
:1005A000C501DF91CF911F910F91FF90EF90DF90E8
:1005B000CF90BF90AF9008950C94AF0242E050E00E
:1005C0006DE272E085E997E10C94AF02FC01538D76
:1005D000448D252F30E0842F90E0821B930B54171D
:1005E00010F0CF96089501970895FC01918D828DAA
:1005F000981761F0A28DAE0FBF2FB11D5D968C9143
:10060000928D9F5F9F73928F90E008958FEF9FEF81
:100610000895FC01918D828D981731F0828DE80F3D
:10062000F11D858D90E008958FEF9FEF0895FC01F7
:10063000918D228D892F90E0805C9F4F821B9109C4
:100640008F739927089588EF96E10E94170321E0A0
:10065000892B09F420E0822F089585E997E10E9413
:10066000170321E0892B09F420E0822F0895FC0173
:10067000A48DA80FB92FB11DA35ABF4F2C91848D03
:1006800090E001968F739927848FA689B7892C9360
:10069000A089B1898C91837080648C93938D848DB3
:1006A000981306C00288F389E02D80818F7D8083B6
:1006B0000895EF92FF920F931F93CF93DF93EC0176
:1006C00081E0888F9B8D8C8D98131AC0E889F989F9
:1006D000808185FF15C09FB7F894EE89FF896083FC
:1006E000E889F98980818370806480839FBF81E07D
:1006F00090E0DF91CF911F910F91FF90EF900895BF
:10070000F62E0B8D10E00F5F1F4F0F731127E02E99
:100710008C8D8E110CC00FB607FCFACFE889F989D1
:10072000808185FFF5CFCE010E943703F1CFEB8D9D
:10073000EC0FFD2FF11DE35AFF4FF0829FB7F894A5
:100740000B8FEA89FB8980818062CFCF0F931F9343
:10075000CF93DF938C01D0E0C0E0F801EC0FFD1FD8
:100760006491662341F085E997E10E945903892B42
:1007700011F02196F2CF0E94DE028C0F9D1FDF91B7
:10078000CF911F910F910895CF93DF93EC01888D46
:100790008823B9F0AA89BB89E889F9898C9185FDFC
:1007A00003C0808186FD0DC00FB607FCF7CF8C918A
:1007B00085FFF2CF808185FFEDCFCE010E94370308
:1007C000E9CFDF91CF91089580E090E0892B49F047
:1007D00080E090E0892B29F00E94000081110E94A6
:1007E000000080E090E0892B29F00E942D03811108
:1007F0000E94000080E090E0892B29F00E942303F2
:1008000081110E94000080E090E0892B49F080E097
:1008100090E0892B29F00E94000081110C940000C7
:100820000895AC01FC018FEF9FEF9F01241B350B56
:1008300026173707BCF42191022E000C330B8227B8
:10084000932728E030E0DC01A170BB2796958795BF
:10085000AB2B21F0A1E08A27A0EA9A272150310989
:1008600091F7E3CF08950F931F934FB7F89400913A
:10087000F4161091F5162091F6163091F7164FBF29
:10088000092E000CAA0BBB0BEFB7F8944091F4169D
:100890005091F5166091F6167091F716EFBF401B58
:1008A000510B620B730B481759076A077B0760F3FC
:1008B0001F910F910895CF92DF92EF92FF920F93C5
:1008C0001F93CF93DF93CDB7DEB7C85ED3400FB68B
:1008D000F894DEBF0FBECDBF8CE291E00E943304DE
:1008E0008E010F5F1F4F85E997E10E941703892B47
:1008F00009F042C0F8019F01201B310B81918C321D
:10090000D1F78A858053990B2430310509F049C00D
:100910004B854053550B64E6649F9001659F300DF5
:10092000112468EE73E0869FA001879F500D969F6B
:10093000500D1124C901840F951F2C85FAE02F9FBB
:10094000800D911D1124805E91402D85820F911D97
:10095000C097EEE0F0E0E00FF11F209134183091E5
:100960003518D901AD01421B530B481759070CF03C
:1009700048C041914D93F6CF85E997E10E94170356
:100980006C017801C701801B910B8C159D050CF043
:10099000AACF85E997E10E94F502F70181937F01D3
:1009A000F1CF23303105C9F44B854053550B6AE034
:1009B000649F9001659F300D112464E6689FA0013B
:1009C000699F500D1124240F351F8C85820F932FA2
:1009D000911DC097EDE0F0E0BECFEBE0F0E02230FB
:1009E000310509F0B8CF4AE0489F9001499F300D8A
:1009F00011248B85820F932F911DC097ECE0F0E0BE
:100A0000AACFC851DC4F0FB6F894DEBF0FBECDBFE2
:100A1000DF91CF911F910F91FF90EF90DF90CF90DA
:100A200008950F931F93CF93DF9384E690E00E9485
:100A3000330488EF96E10E941703892B99F088EF21
:100A400096E10E9417038C01C6EAD6E1CE01865AD0
:100A50009641801791076CF788EF96E10E94F502A6
:100A60008993F4CFDF91CF911F910F9108952F9229
:100A70003F924F925F926F927F928F929F92AF922E
:100A8000BF92CF92DF92EF92FF920F931F93CF937B
:100A9000DF932C018FB7F8948090F4169090F516A0
:100AA000A090F616B090F7168FBFD0E0C0E06B01B3
:100AB000F12CE12C88EE93E00E94330485E997E164
:100AC0000E941703892B81F185E997E10E941703A2
:100AD0003C01312C212C009134181091351826142A
:100AE000370464F785E997E10E94F502F801E20D09
:100AF000F31D80838FEF281A380AEDCF2223D1F21D
:100B0000CE01DF91CF911F910F91FF90EF90DF9079
:100B1000CF90BF90AF909F908F907F906F905F909D
:100B20004F903F902F9008950091341810913518F0
:100B3000B201C8010E94F519892B09F45BC061E07C
:100B400081E40E94F2018DE790E00E94330460E0AE
:100B500081E40E94F2018DE790E00E94330461E09D
:100B600081E40E94F2018DE790E00E94330460E08E
:100B700081E40E94F2018DE790E00E94330421E0BD
:100B8000C1E0D0E03FB7F8948091F4169091F5164B
:100B9000A091F616B091F7163FBF88199909AA09D6
:100BA000BB09C816D906EA06FB0608F0A7CF61E024
:100BB00082E40E94F2018DE790E00E94330460E03D
:100BC00082E40E94F2018DE790E00E94330461E02C
:100BD00082E40E94F2018DE790E00E94330460E01D
:100BE00082E40E94F2018DE790E00E943304D0E09D
:100BF000C0E086CF60E372E0C8010E94F51920E0F2
:100C0000892B09F4BFCF61E080E40E94F2018DE7F7
:100C100090E00E94330460E080E40E94F2018DE7DE
:100C200090E00E94330461E080E40E94F2018DE7CD
:100C300090E00E94330460E080E40E94F2018DE7BE
:100C400090E00E94330421E0C2E0D0E09BCFE0912D
:100C50003418F09135181182108208952F923F9226
:100C60004F925F926F927F928F929F92AF92BF92BC
:100C7000CF92DF92EF92FF920F931F93CF93DF9368
:100C8000CDB7DEB7C451DF400FB6F894DEBF0FBE5C
:100C9000CDBFE0913418F091351881819281582EA2
:100CA000492EC95FD04F59824882C750DF4067E064
:100CB000662E712CB12CA12C912C812C8E010D5102
:100CC000114FCD5FD04F19830883C350DF407EE7BB
:100CD000472EE0E23E2EFFE32F2EC95FD04FC880A3
:100CE000D980C750DF40AC14BD0409F4F3C00091B3
:100CF000341810913518060D171DF80134975080DF
:100D00003196E08031968081FE2CE82ED801119634
:100D1000BC91CB5FD04FB883C550DF40C52C052CAC
:100D2000000CDD08B601CE018D51914F0E94EA19E9
:100D3000892B09F054C0E3EEFEE0EC0FFD1FE80D37
:100D4000F91D5082E52DF42DEF02C0011124E1E0E0
:100D5000F0E0EC0FFD1FE80FF91FDF01532C1D928F
:100D60005A94E9F7FC01B09621E030E02C0F3D1FCA
:100D7000E20FF31FDF01532C1D925A94E9F7FC0197
:100D8000E05CFF4FE20FF31FDF01532C1D925A94DA
:100D9000E9F78C599F4FF901E80FF91FDF0150E186
:100DA000552E1D925A94E9F74C9CC0014D9C900D14
:100DB000112421E030E02C0F3D1F820F931FFC0116
:100DC000E858FF4F118210823296118210828458A7
:100DD0009F4FDC011D921C92F40131964F01CB5FB5
:100DE000D04FF881C550DF40F130B1F54C9CC001C7
:100DF0004D9C900D112421E030E02C0F3D1F820FFF
:100E0000931FFC01E658FF4F20813181A9014F5FFC
:100E10005F4F518340832C9CF0012D9CF00D1124D9
:100E2000E20FF31F7096EE0FFF1FA1E0B0E0AC0FD2
:100E3000BD1FEA0FFB1FF182E082F8012081E80E5E
:100E4000F91EF701EC59FF4F2083BFEFAB1ABB0A25
:100E5000E6E06E0E711C41CF4C9CF0014D9CF00DF4
:100E6000112421E030E02C0F3D1FE20FF31FE45866
:100E7000FF4FA081B1819D012F5F3F4F31832083C0
:100E80002C9CF0012D9CF00D1124AE0FBF1FAA0F5A
:100E9000BB1F81E090E08C0F9D1FA80FB91FED9242
:100EA000FC92D80111978C9190E0982F8827EE0D35
:100EB000FF1DB096EE0FFF1FA1E0B0E0AC0FBD1F0D
:100EC000EA0FFB1F91838083D8012C91822B9183A1
:100ED0008083BBCF0E9427068E010D51114F180150
:100EE000CF5FD04F19830883C150DF408EE7F82EC3
:100EF00005EC1EE00C0F1D1F0A5F1F4FC55FD04F92
:100F000019830883CB50DF40CF5FD04FE881F98150
:100F1000C150DF4001900020E9F73197CF5FD04FFB
:100F200048805980C150DF40E419F509C101CD5F07
:100F3000D04FA880B980C350DF408A199B098E1713
:100F40009F0708F0E9C2D101EC904E2D0E2C000C49
:100F5000550BF49EF001F59EF00D112444244394AA
:100F6000512C4C0E5D1EE40DF51DDF01A658BF4F40
:100F70006D917C9111970E2D1EE701022001112425
:100F8000161617068CF580A191A1169711969C93C1
:100F90008E93EA58FF4F9183808381E090E06F0148
:100FA0006817790709F19C01220F331F240D351DA5
:100FB000E1E0F0E0EC0FFD1F2E0F3F1FF90120A133
:100FC00031A10D911C9111972017310718F411963A
:100FD0003C932E93F601008111810217130710F440
:100FE000318320830196DCCFF49EF001F59EF00D55
:100FF0001124AA24A394B12CAC0EBD1EEA0DFB1D36
:10100000DF01A458BF4F0D911C91119710161106C6
:1010100094F5808191815C9711969C938E93EE5903
:10102000FF4F9183808381E090E05F0108171907EB
:1010300011F19C01220F331F240D351DCC24C394C4
:10104000D12CCC0EDD1E2C0D3D1DF90120813181EE
:10105000CD90DC9011972C153D0518F411963C931A
:101060002E93F501C080D180C216D30610F43183CF
:1010700020830196DBCFF49EC001F59E900D1124D4
:10108000AA24A394B12CAC0EBD1E8A0D9B1DFC019D
:10109000E858FF4F11821082DC01AA58BF4FCD9053
:1010A000DC901197CB5FD04FD982C882C550DF400A
:1010B00012976D907C9046010FEF801A900A861867
:1010C0009708ACEAA49F9001A59F300D1124C75F3B
:1010D000D04F39832883C950DF409301B12CA12C14
:1010E000CF5ED04F99838883C151DF40C75FD04F17
:1010F00008811981C950DF4002581D4FCD5ED04F85
:1011000019830883C351DF408A149B0409F496C0F5
:1011100010E000E090E080E0C95FD04F1882C75037
:10112000DF40CF5ED04FC880D980C151DF40C20EB2
:10113000D31ED601AC59BF4FC35FD04FB983A8832C
:10114000CD50DF40CD5ED04FC880D980C351DF4045
:10115000C20ED31ED601A456BF4FC15FD04FB98374
:10116000A883CF50DF40061717070CF042C0D80104
:10117000AA0FBB1FA40DB51DCC24C394D12CCC0E3B
:10118000DD1EAC0DBD1D90960D90BC91A02DA2173B
:10119000B30761F5C35FD04FA881B981CD50DF405F
:1011A000BC91C95FD04FB883C750DF408B2B6C0117
:1011B0000A2C02C0CC0CDD1C0A94E2F7A081B1819C
:1011C000AC29BD29B183A083C95FD04FC880C75067
:1011D000DF40C15FD04FA881B981CF50DF40CC92B2
:1011E000A1E0C95FD04FA883C750DF400F5F1F4FFA
:1011F000BACFC95FD04FB881C750DF40B11118C016
:10120000C75FD04FA881B981C950DF40A20FB31F7B
:10121000A65EBC4FAC918A2B0A2C02C0880F991F86
:101220000A94E2F7A081B1818A2B9B2B9183808362
:101230000FEFA01AB00A2F5F3F4F66CF16161706A2
:101240000CF06FC088E1C55FD04FA881B981CB5049
:10125000DF401D928A95E9F7CB53D14FE882C55CF8
:10126000DE408FE0CA53D14F8883C65CDE40C9534D
:10127000D14F7882C75CDE40C853D14F6882C85CCA
:10128000DE40C753D14F9882C95CDE40CB5FD04F60
:101290008881C550DF408F5F8619C653D14F888340
:1012A000CA5CDE40F49EF001F59EF00D112444244A
:1012B0004394512C4C0E5D1EE40DF51DE858FF4F74
:1012C0008081918109E08016910408F4FEC022E03B
:1012D000C553D14F2883CB5CDE40C453D14F8883A4
:1012E000CC5CDE40C353D14F9883CD5CDE4009E037
:1012F00010E0B801CE018B53914F0E941104E5EC30
:10130000FEE0EC0FFD1FE00FF11F80839183A80129
:101310004E5F5F4FBE016B53714F88EF96E10E94A5
:10132000DC02D1011D911D01612F012E000C770BF4
:10133000F69E9001F79E300D1124E1E0F0E0EC0FF5
:10134000FD1F2E0F3F1FD901A458BF4F4D905C9039
:10135000CB5FD04F59824882C550DF40141415042A
:101360000CF0D2CD88E1C55FD04FA881B981CB50B8
:10137000DF401D928A95E9F7CB53D14F1883C55CA6
:10138000DE4080E1CA53D14F8883C65CDE40C9018C
:10139000805A9F4FFC0180819181C953D14F98831E
:1013A000C75CDE40C853D14F8883C85CDE402E59ED
:1013B0003F4FD9014D915C919A012F5F3F4F281B00
:1013C000390BC753D14F3883C95CDE404F5F481B90
:1013D000C653D14F4883CA5CDE40422F440FC553E9
:1013E000D14F4883CB5CDE40BF2D1B02400111244E
:1013F0003C01E6E51E02600C711C1124660C771C92
:1014000050E040E007E010E0EFE3E69F6001E79F77
:10141000D00C11244217530709F465C070E060E056
:10142000E12CF601E80FF91FB096EE0FFF1F4424E0
:101430004394512C4C0E5D1EE40DF51D5B01AA0C6E
:10144000BB1CA80CB91CA1E0B0E0AC0FBD1FAA0EDC
:10145000BB1ED501AD90BC90A816B90691F4E080F2
:101460005180A5ECAA2EAEE0BA2EAC0EBD1EA00E89
:10147000B11ED5015C921196EC920E5F1F4FEE24C7
:10148000E3946F5F7F4FCB5FD04F48805980C5504A
:10149000DF404616570691F6E11013C0FA01EE0F31
:1014A000FF1FE60DF71DE650FD4F60817181E5ECF1
:1014B000FEE0EC0FFD1FE00FF11F708361830E5FF4
:1014C0001F4F4F5F5F4F0196A5CF91E0C553D14F9E
:1014D0009883CB5CDE40C453D14F8883CC5CDE4024
:1014E00008E010E006CFB801CE018B53914F0E9467
:1014F0001104E5ECFEE0EC0FFD1FE00FF11F80830F
:101500009183A8014E5F5F4FBE016B53714F88EF0F
:1015100096E10E94DC02F8CCCC5ED04F0FB6F89476
:10152000DEBF0FBECDBFDF91CF911F910F91FF9016
:10153000EF90DF90CF90BF90AF909F908F907F9073
:101540006F905F904F903F902F9008952F923F9211
:101550004F925F926F927F928F929F92AF92BF92C3
:10156000CF92DF92EF92FF920F931F93CF93DF936F
:10157000CDB7DEB7CB5AD5400FB6F894DEBF0FBE5D
:10158000CDBF8091EC1681116EC1E0E6F2E08EE1F4
:10159000DF011D928A95E9F7E0913418F091351832
:1015A00081819281D82EC92EC655DA4FD982C88240
:1015B000CA5AD54003E0E02EF12CD12CC12CB12C1D
:1015C000A12C8CEA282EC655DA4F28813981CA5AB7
:1015D000D540C216D30609F4ABC0E0913418F0919F
:1015E0003518EE0DFF1D308081814280582E3381E9
:1015F000C755DA4F3883C95AD54084816580782E23
:10160000032D032C000C110BC8010E9478176816DB
:1016100021F0662DC8010E94801748014FEF841AFF
:10162000940AC4010E947817781621F0672DC4012E
:101630000E948017B80180E692E00E94EA19892B87
:10164000A9F5F501E05AFD4F3082209EC001219E90
:10165000900D112482589D4FFC01E858FF4F1182D4
:10166000108286589F4FDC011D921C92B32DE0E33F
:10167000BE02C0011124E1E0F0E0EC0FFD1FE80F15
:10168000F91FDF0120E21D922A95E9F78096E1E03B
:10169000F0E0EC0FFD1FE80FF91FDF0120E11D92C4
:1016A0002A95E9F7A5014F5F5F4F5A01C755DA4FF9
:1016B0005881C95AD540209ED001219EB00D1124D9
:1016C0005130F9F4AA50BD4F8D919C9111979C0116
:1016D0002F5F3F4F2D933C9366E5609FF001619F24
:1016E000F00D1124E80FF91FEE0FFF1FE256FD4F1A
:1016F000518240828FEFC81AD80A96E0E90EF11C99
:1017000062CFA850BD4F8D919C9111979C012F5F86
:101710003F4F2D933C9376E5709FF001719FF00D44
:101720001124E80FF91FEE0FFF1FE258FD4FE0CF25
:101730000E94270660E672E05B01ACEA9A2ED501B2
:101740000D900020E9F7CD01815692409B01205673
:1017500032402817390708F086C0FB018191BF018C
:10176000082E000C990B989E7001999EF00C112484
:10177000F701E258FD4FDF01A858BF4F0D911C91B2
:1017800011971016110674F520A131A1D497119666
:101790003C932E93EA5BFF4F3183208321E030E0BE
:1017A0003F0102171307F1F0A901440F551F4E0D19
:1017B0005F1D42585D4FFA0140A151A1CD90DC90D0
:1017C00011974C155D0518F411965C934E93F30137
:1017D000C080D180C416D50610F4518340832F5F9A
:1017E0003F4FDFCF989EA001999E500D1124FA0122
:1017F000E258FD4FDF01A658BF4F0D911C91119784
:10180000101611060CF09BCF80819181DA9711960A
:101810009C938E93EE5BFF4F9183808321E030E0B9
:101820006F010217130709F48ACFC901880F991FA6
:10183000840F951F82589D4FFC0180819181ED900E
:10184000FC9011978E159F0518F411969C938E931A
:10185000F601E080F180E816F90610F491838083A8
:101860002F5F3F4FDECF81E08093EC1600E612E061
:101870002801FCEA7F2EA1EA8A2EA5E09A2E8C0E82
:101880009D1EF6E08F0E911CB0E36B2EAA24A3944C
:10189000B12CD2010D900020E9F7CD018156924084
:1018A0009801205632402817390708F026C1F80160
:1018B0002081372D2303C001112482589D4FFC0144
:1018C000E858FF4F40815181141615060CF08CC06A
:1018D000D4011D921C92CF55DA4F2883C15AD540AE
:1018E00022E0CE55DA4F2883C25AD540F4972081A2
:1018F0003181CD55DA4F3883C35AD540CC55DA4FB4
:101900002883C45AD5408A5B9F4FFC018081918116
:10191000AC014F5F5F4F421B530BCB55DA4F5883DF
:10192000C55AD5408F5F821BCA55DA4F8883C65A85
:10193000D54066E070E0CE018F559A4F0E941104A9
:10194000C955DA4F8883C75AD540C855DA4F9883AE
:10195000C85AD54048E050E0BE016F557A4F88EF35
:1019600096E10E94DC020E9411056091A81670E0C9
:101970007B01E3E0EE0CFF1CEA95E1F7E6EAF6E115
:10198000CF01865A96418617970774F5D380D80100
:101990004C9190E080E0262D4203A0011124A1E0AB
:1019A000B0E0AC0FBD1F4A0F5B1F2D2CDD0C3308C0
:1019B0008E159F05BCF46A01C80ED91E9501082E2C
:1019C00002C0220F331F0A94E2F722213321082E8E
:1019D00002C0359527950A94E2F7D60190962C938C
:1019E0000196E6CF3196CCCFF8012081372D230325
:1019F000C001112482589D4FFC01E658FF4F4081E1
:101A00005181141615060CF075C0D4011D921C925C
:101A1000CF55DA4F2883C15AD54023E0CE55DA4F4F
:101A20002883C25AD540FA9720813181CD55DA4FAB
:101A30003883C35AD540CC55DA4F2883C45AD54091
:101A40008E5B9F4FFC0180819181AC014F5F5F4FA6
:101A5000421B530BCB55DA4F5883C55AD5408F5F85
:101A6000821BCA55DA4F8883C65AD54066E070E0BB
:101A7000CE018F559A4F0E941104C955DA4F8883C1
:101A8000C75AD540C855DA4F9883C85AD54048E060
:101A900050E0BE016F557A4F88EF96E10E94DC025C
:101AA0000E9411058091A816869590E0A6EAB6E1FD
:101AB00030E020E068E1129628173907DCF4F801DD
:101AC00040814603F0011124E20FF31FEE0FFF1FC8
:101AD000CC24C394D12CCC0EDD1EEC0DFD1D119633
:101AE0005C91119712964C911297518340832F5F0E
:101AF0003F4FE1CF0F5F1F4FCCCEE6EAF6E182E326
:101B0000DF011D928A95E9F7809100028F5F809333
:101B100000020091321810913318F80111821082DE
:101B2000A8EDB6E19801215F3F4F9D9191932E174B
:101B30003F07D9F7D8011F968C931F9781E05096E5
:101B40008C93E0E6F2E050E040E0C755DA4F1882AF
:101B5000C95AD54063E1E62EF12C2CEA70E3672EDA
:101B6000A0E6B2E00D900020E9F7CD018156924049
:101B7000BF01605672406817790708F083C1608121
:101B80006203D0011124AA50BD4F8D919C9118166B
:101B900019060CF0A5C090E080E07080672D072C3E
:101BA000000C770B269F4001279F900C1124D40135
:101BB000A258BD4F5D016D01B4E4CB0ED11CD6011E
:101BC0004D905C906501B6E4CB0ED11CD601CD9052
:101BD000DC90BFEFCB1ADB0AC418D5088C159D0525
:101BE00008F07EC0D501A858BF4F2D903C90480EFC
:101BF000591ED401A256BD4FD12CC12CC214D304FE
:101C00000CF07AC1AD90BD904A145B0409F47CC11C
:101C10003FEFC31AD30AF2CFB8016E0D7F1DDB016F
:101C20007C9230813203D0011124AE53BD4F0D9010
:101C3000BC91A02D6D01C80ED91EDB011196DC925E
:101C400030813203D0011124AE53BD4F3C91380F87
:101C5000DB0112963C93129713961C923081662DED
:101C60003603D0011124CC24C394D12CCC0EDD1E1C
:101C7000AC0DBD1DA80FB91F90963C91D7011496CD
:101C8000A00FB11F65E0E60EF11C3C93C0800C2C48
:101C9000000CDD082C9DD0012D9DB00D1124A80F46
:101CA000B91FBD016A537D4F5B016C9CB0016D9CF7
:101CB000700D1124A1E0B0E0AC0FBD1F6A0F7B1FB7
:101CC000680F791FDB0190963C91D5013C934F5FE3
:101CD0005F4FC755DA4F1882C95AD54001965DCF7C
:101CE00060816203D0011124A850BD4F8D919C9159
:101CF000181619060CF0C4C090E080E03080632D07
:101D0000032C000C770B269F5001279FB00C112449
:101D1000D501A258BD4F5D016D01B0E4CB0ED11CC1
:101D2000D6018D909C906501B2E4CB0ED11CD601FA
:101D3000CD90DC90BFEFCB1ADB0AC818D9088C1500
:101D40009D0508F09DC065013AE7C30ED11CD60180
:101D50004D905C90880E991ED501D12CC12CC414D5
:101D6000D5040CF0F7C0AD90BD908A149B0409F423
:101D7000F9C03FEFC31AD30AF2CF5801AE0CBF1C13
:101D8000D5013C9230813203D0011124A254BD4FC1
:101D90000D90BC91A02D6D01C80ED91ED5011196D4
:101DA000DC9230813203D0011124A254BD4F3C910A
:101DB000380FD50112963C93A08138E16A2F630356
:101DC000D0011124A80FB91FAA0FBB1FCC24C394A4
:101DD000D12CCC0EDD1EAC0DBD1D11963C91D50154
:101DE00013963C93B7016C5F7F4F6B01C00ED11E01
:101DF000B5E0EB0EF11CA08138E16A2F6303D0013E
:101E00001124A80FB91FAA0FBB1F61E070E06C0F6F
:101E10007D1FA60FB71F3C91D6013C93C0800C2CB0
:101E2000000CDD0836E53C9DD0013D9DB00D112430
:101E3000A80FB91FAA0FBB1FBD016A527D4F5B01DE
:101E4000A8E1AC9DB001AD9D700D1124680F791F04
:101E5000660F771FCC24C394D12CCC0EDD1E6C0DE5
:101E60007D1DDB016D917C91D5016D937C934F5F5E
:101E70005F4FC755DA4F1882C95AD54001963ECFF9
:101E800031966ECE1416150694F5F801518B428BDF
:101E900001900020E9F73197BF01601B710BC80169
:101EA0000E941104F801EE0DFF1D9083818381E0F3
:101EB00090E09093EE168093ED16C555DA4F0FB66D
:101EC000F894DEBF0FBECDBFDF91CF911F910F9170
:101ED000FF90EF90DF90CF90BF90AF909F908F904A
:101EE0007F906F905F904F903F902F900895109249
:101EF000EE161092ED16E1CFC755DA4FC880C95AD9
:101F0000D540C110EBCEE3CE669E6001679ED00C3B
:101F10001124A1E0B0E0AC0FBD1FCA0EDB1EC80E3D
:101F2000D91E269FD001279FB00D1124A80FB91FDD
:101F3000BD016A537D4F5B01D60190966C91D5012E
:101F40003C91631369CEB1E0C755DA4FB883C95AE3
:101F5000D540C4CEC755DA4FC880C95AD540C11044
:101F60008DCF85CF38E1369F6001379FD00C11248B
:101F7000C80ED91ECC0CDD1CA1E0B0E0AC0FBD1F1B
:101F8000CA0EDB1E36E5369FD001379FB00D1124F7
:101F9000A80FB91FAA0FBB1FBD016A527D4F5B017D
:101FA000D6016D917C91D501CD90DC906C157D05AD
:101FB00009F0E3CEB1E0C755DA4FB883C95AD5402E
:101FC0005DCF1F920F920FB60F9211242F933F9364
:101FD0008F939F93AF93BF938091F4169091F516D2
:101FE000A091F616B091F7163091F31626E0230F64
:101FF0002D3768F129E8230F0396A11DB11D209309
:10200000F3168093F4169093F516A093F616B093FA
:10201000F7168091EF169091F016A091F116B091FD
:10202000F2160196A11DB11D8093EF169093F01644
:10203000A093F116B093F216BF91AF919F918F913B
:102040003F912F910F900FBE0F901F901895029601
:10205000A11DB11DD4CF1F920F920FB60F92112464
:102060000BB60F922F933F934F935F936F937F9392
:102070008F939F93AF93BF93EF93FF9388EF96E176
:102080000E943703FF91EF91BF91AF919F918F9184
:102090007F916F915F914F913F912F910F900BBE68
:1020A0000F900FBE0F901F9018951F920F920FB6B2
:1020B0000F9211240BB60F922F938F939F93EF9350
:1020C000FF93E0910817F09109178081E0910E17B6
:1020D000F0910F1782FD1DC09081809111178F5FC5
:1020E0008F7320911217821741F0E0911117F0E0E1
:1020F000E850F94E958F80931117FF91EF919F91C2
:102100008F912F910F900BBE0F900FBE0F901F90CD
:1021100018958081F2CF1F920F920FB60F92112463
:102120000BB60F922F933F934F935F936F937F93D1
:102130008F939F93AF93BF93EF93FF9385E997E1BD
:102140000E943703FF91EF91BF91AF919F918F91C3
:102150007F916F915F914F913F912F910F900BBEA7
:102160000F900FBE0F901F9018951F920F920FB6F1
:102170000F9211240BB60F922F938F939F93EF938F
:10218000FF93E091A517F091A6178081E091AB171E
:10219000F091AC1782FD1DC090818091AE178F5FCA
:1021A0008F732091AF17821741F0E091AE17F0E0E6
:1021B000EB56F84E958F8093AE17FF91EF919F915C
:1021C0008F912F910F900BBE0F900FBE0F901F900D
:1021D00018958081F2CFE8EFF6E11382128248EE83
:1021E00053E060E070E044835583668377838FE13A
:1021F00092E09183808325ED30E03587248724EDBC
:1022000030E03787268720ED30E0318B208B21EDC1
:1022100030E0338B228B22ED30E0358B248B26EDA2
:1022200030E0378B268B118E128E138E148EE5E9DB
:10223000F7E1138212824483558366837783918307
:1022400080838DEC90E0958784878CEC90E0978775
:10225000868788EC90E0918B808B89EC90E0938B63
:10226000828B8AEC90E0958B848B8EEC90E0978B40
:10227000868B118E128E138E148E88EE93E00E9440
:10228000BA18909335188093341880ED97E00E9427
:10229000BA1890933318809332180895CF93DF9330
:1022A000CDB7DEB7A8970FB6F894DEBF0FBECDBF8F
:1022B000789484B5836084BD85B5836085BD809145
:1022C0006E00816080936E0082E080938100909127
:1022D0008100916090938100909180009160909333
:1022E00080009091B10094609093B1009091B00003
:1022F00091609093B00090919100936090939100C1
:10230000909190009160909390009091A1009360C3
:102310009093A1009091A00091609093A000909163
:1023200021019360909321019091200191609093FD
:10233000200196E890937A001092C10090E8909363
:10234000610010926100E091A517F091A6178083BB
:10235000E091A117F091A2171082E091A317F091DC
:10236000A41737E630831092AD17E091A917F091CA
:10237000AA1726E02083E091A717F091A817908173
:1023800098699083E091A717F091A81790819F7D9D
:102390009083E0910817F09109178083E09104176A
:1023A000F09105171082E0910617F091071730831E
:1023B00010921017E0910C17F0910D172083E09107
:1023C0000A17F0910B17808188698083E0910A17C2
:1023D000F0910B1780818F7D808361E08AE20E94FB
:1023E0007E0261E08BE20E947E0261E082E40E9454
:1023F0007E0261E081E40E947E0261E080E40E944E
:102400007E0260E083E40E947E0261E082E40E943A
:10241000F20161E080E40E94F20161E081E40E9447
:10242000F20161E08BE20E94F20160E08AE20E9428
:10243000F20184E0E82EF12C9924939481ED91E04F
:102440000E94A6038CE291E00E94330485E997E1A3
:102450000E9417038C01892BC9F085E997E10E943E
:1024600017035C0110E000E0C0903418D0903518DC
:102470000A151B055CF785E997E10E94F502F60154
:10248000E00FF11F80830F5F1F4FEECF66E372E016
:1024900080913418909135180E94F519892B09F410
:1024A000C8C00E94270681E0912C91E0E91AF1084A
:1024B00029F681110CC060E08BE20E94F20188EEE7
:1024C00093E00E94330461E08BE20E94F2019110DC
:1024D000B0CF0E9427068AEC91E00E94A60360E13B
:1024E00077E286E392E00E943705A0913418B0911C
:1024F0003518E8EDF6E119968C9119978053990BF0
:1025000054E0880F991F5A95E1F780830730110531
:1025100031F01A969C911A979053892B80830F5F04
:102520001F4F129631960830110529F70E94270691
:1025300080EC91E00E94A60360E177E289E392E0FB
:102540000E9437050E94270687EB91E00E94A603B0
:1025500068E873E18BE392E00E943705019731F060
:1025600068E873E18DE392E00E9437050E94270638
:102570008DEA91E00E94A60360E177E28FE392E0AA
:102580000E9437050E94270686EA91E00E94A60372
:1025900060E177E286E392E00E9437050E94270619
:1025A0008AE891E00E94A60360E177E286E392E088
:1025B0000E9437050E9427068DE791E00E94A6033E
:1025C00060E177E280E592E00E9437050E942706ED
:1025D00083E791E00E94A60360E177E286E392E060
:1025E0000E9437050E94270688E491E00E94A60316
:1025F00060E177E286E392E00E9437050E942706B9
:10260000BE016F5F7F4FA8EDB6E18B019D01F9011F
:1026100001900020E9F7CF01895D9641AD01485D49
:1026200056414817590748F48D91FB018193BF012A
:10263000EECF0E94270680E038CF82E089871A8695
:1026400081E08B871C868D876DE070E0C8010E9459
:1026500011048E876DE070E0C8010E9411049F870D
:1026600085E092E00E94A60360E177E286E392E0D3
:102670000E9437050E942706F80101900020E9F723
:102680003197AF01401B510BB80185E997E10E94DA
:10269000DC0260E177E286E392E00E94370584EF96
:1026A00091E00E94A60360E177E289E592E00E9452
:1026B0003705BE016B5E7F4FA8EDB6E17B019D0142
:1026C000F90101900020E9F7CF01895D9641AD0144
:1026D000485D56414817590728F48D91FB018193B5
:1026E000BF01EECF83E08D8F69E070E0C7010E94EB
:1026F00011048E8F69E070E0C7010E9411049F8F62
:1027000085EE91E00E94A60360E177E286E392E025
:102710000E9437050E942706F70101900020E9F783
:102720003197AF014E195F09B70185E997E10E9422
:10273000DC0260E177E286E392E00E94370584EDF7
:1027400091E00E94A6030E945B0497E0292E2E01CF
:10275000F2E24F0E511C2CE5622E22E0722E32E086
:10276000A32EB12C3324339443E0842E912CC090BB
:10277000ED16D090EE1681E0C816D10409F457C0CA
:102780009CF5CD2809F450C080917B00877F809311
:102790007B00B0E4B0937C0080917A0080648093E9
:1027A0007A0080917A0086FDFCCF6091780070916C
:1027B0007900072E000C880B990B0E9490172AE0D5
:1027C00038E240EA5BE30E94D01720E030E040E0CE
:1027D00050E40E94CB17181624F09092EE168092C7
:1027E000ED160E94E403C3CFA2E0CA16D10409F497
:1027F00089C0A801E8EDF6E1B3E0CB16D10421F6DB
:10280000A8EDB6E10D900020E9F7CD01895D964174
:102810009F01285D36412817390708F085C081914E
:10282000DA018D93AD01ECCF0E94A60AADCF8DE009
:10283000E7E0F2E0DE01559601900D928A95E1F70E
:10284000F201822D11928A95E9F7A0913218B09188
:102850003318FD0101900020E9F73197EA1BFB0BCB
:10286000FF93EF937F926F921F930F930E940F1A23
:10287000B801C7010E94DF19F70101900020E9F7B4
:102880003197AF014E195F09B70185E997E10E94C1
:10289000DC020E94DE0288EC90E00E94330460912A
:1028A000321870913318FB0101900020E9F731973D
:1028B000AF01461B570B85E997E10E94DC0284E3D8
:1028C00092E00E94A6030E945B04E0913418F0910C
:1028D00035180F900F900F900F900F900F909081E0
:1028E0008091000298131BC08181811105C0109254
:1028F000EE161092ED1606C0813039F4B092EE1645
:10290000A092ED160E942E063FCF823081F38330D5
:1029100019F41092EC16EBCF8430A1F7E8CFD092E7
:10292000EE16C092ED16EECF39861A863B861C86CF
:102930001D863E861F86388A60E170E0C8010E94CD
:102940001104898B60E170E0C8010E9411049A8B28
:1029500085E292E00E94A60360E177E286E392E0DE
:102960000E9437050E942706F80101900020E9F730
:102970003197AF01401B510BB80185E997E10E94E7
:10298000DC0260E177E286E392E00E94370584E1B1
:1029900092E00E94A60360E177E289E592E00E945E
:1029A0003705F2CE2F923F924F925F926F927F92B5
:1029B0008F929F92AF92BF92CF92DF92EF92FF924F
:1029C0000F931F93CF93DF9300D000D000D01F92BE
:1029D0001F92CDB7DEB77C013B018A01FC01178253
:1029E0001682838181FFDDC1CE0101965C01F70172
:1029F0009381F30193FD859193FF81913F0188239A
:102A000009F453C1853239F493FD859193FF819187
:102A10003F01853229F4B70190E00E94EA16E7CF22
:102A2000912C212C312CFFE1F31538F08B3211F170
:102A300090F4803209F1833229F137FC3CC020ED5B
:102A4000280F2A3050F536FE20C08AE0989E200DCF
:102A50001124922E06C08D3291F0803371F7689464
:102A600030F8F30193FD859193FF81913F0181112E
:102A7000DACF21C0689431F8689432F8F2CF6894C4
:102A800033F8EFCF689434F8ECCFEAE02E9E200DB7
:102A90001124222E689435F8E4CF8E3229F436FCC6
:102AA00004C1689436F8DDCF8C3619F4689437F891
:102AB000D8CF8836B1F2982F9F7D95549330E0F0AF
:102AC0008336A1F18337C1F1833509F063C0280152
:102AD000F2E04F0E511CF801C080D180692D70E0EA
:102AE00036FC02C06FEF7FEFC6010E94D4164C0186
:102AF000689437F882010AC00C5F1F4FFFE3F98327
:102B000088248394912C6501E89437F833FE2DC016
:102B1000522C8114910471F5552009F468CFB70146
:102B200080E290E00E94EA165A94F6CFF801808184
:102B300089830E5F1F4FE4CF2801F2E04F0E511C36
:102B4000F801C080D180692D70E036FC02C06FEFC3
:102B50007FEFC6010E94DF164C018201D5CFB7017D
:102B600080E290E00E94EA162A942814190409F0E1
:102B7000B0F7CECFF60137FC859137FE81916F011A
:102B8000B70190E00E94EA1651105A94F1E08F1AB2
:102B90009108BFCF843619F0893609F077C0F80163
:102BA00037FE6BC060817181828193810C5F1F4F02
:102BB000F32DFF763F2E97FF09C090958095709575
:102BC00061957F4F8F4F9F4F689437F82AE030E030
:102BD000A5010E941A17C82ECA188C2C432C36FE49
:102BE0000CC0E89440F8C91440F434FE05C032FC2F
:102BF00003C0F32DFE7E4F2E892C44FEAAC0FE0199
:102C0000EC0DF11D8081803309F09CC0242D297EBC
:102C1000422E842D8870582E43FCAAC040FEA4C0CA
:102C20009C2C821418F42C0C922C981844FEA6C0EC
:102C3000B70180E390E00E94EA1642FE09C088E7EF
:102C400090E041FE02C088E590E0B7010E94EA16DC
:102C5000C91408F49FC0CA94D12C9FEFC91AD90A8D
:102C6000CA0CDB1CF60182916F01B70190E00E9453
:102C7000EA16AC14BD04B1F74FCF60817181072E05
:102C8000000C880B990B0E5F1F4F92CFD32CE8944A
:102C9000D4F82AE030E08537E1F1232D297FD22EC8
:102CA0008F36A9F1F0F4883551F1F70186819781CB
:102CB0002B960FB6F894DEBF0FBECDBFDF91CF913C
:102CC0001F910F91FF90EF90DF90CF90BF90AF904A
:102CD0009F908F907F906F905F904F903F902F903C
:102CE0000895803749F0883701F7D4FE02C0689410
:102CF000D2F820E130E00DC06894D4F8F6CF34FE6D
:102D000003C0822F8660D82E20E132E002C028E086
:102D100030E0F801D7FE0FC060817181828193811C
:102D20000C5F1F4FA5010E941A17C82ECA183D2C10
:102D3000E89437F852CF6081718190E080E00E5FB7
:102D40001F4FF0CF42FC02C0839463CF83948394DF
:102D500060CF842D867809F45CCFF6CFB70180E28E
:102D600090E00E94EA1683948214C0F3512C5ECF47
:102D7000522C5818821408F459CFF8CF842D867835
:102D800009F466CF8BE241FE80E247FC8DE2B70199
:102D900090E05CCFB70180E390E00E94EA169A943D
:102DA00057CF8FEF9FEF84CFFC01059061507040AB
:102DB0000110D8F7809590958E0F9F1F0895FC0104
:102DC0006150704001900110D8F7809590958E0F5A
:102DD0009F1F08950F931F93CF93DF93182F092FF1
:102DE000EB018B8181FD09C01FEF0FEF812F902F29
:102DF000DF91CF911F910F91089582FF14C02E8112
:102E00003F818C819D81281739073CF4E881F98145
:102E1000CF0101969983888310838E819F810196CB
:102E20009F838E83E3CFE885F985812F1995892BC0
:102E3000A1F3DACFFA01AA27283051F1203181F12C
:102E4000E8946F936E7F6E5F7F4F8F4F9F4FAF4FB2
:102E5000B1E03ED0B4E03CD0670F781F891F9A1FC5
:102E6000A11D680F791F8A1F911DA11D6A0F711D79
:102E7000811D911DA11D20D009F468943F912AE085
:102E8000269F11243019305D3193DEF6CF0108956D
:102E9000462F4770405D4193B3E00FD0C9F7F6CF9E
:102EA000462F4F70405D4A3318F0495D31FD405266
:102EB000419302D0A9F7EACFB4E0A69597958795FC
:102EC00077956795BA95C9F70097610571050895DB
:102ED0009B01AC010A2E0694579547953795279587
:102EE000BA95C9F7620F731F841F951FA01D08951F
:102EF000F999FECF92BD81BDF89A992780B50895C2
:102F0000262FF999FECF1FBA92BD81BD20BD0FB605
:102F1000F894FA9AF99A0FBE01960895E89409C0B8
:102F200097FB3EF490958095709561957F4F8F4FFC
:102F30009F4F9923A9F0F92F96E9BB279395F69512
:102F4000879577956795B795F111F8CFFAF4BB0F90
:102F500011F460FF1BC06F5F7F4F8F4F9F4F16C0F4
:102F6000882311F096E911C0772321F09EE8872F7E
:102F7000762F05C0662371F096E8862F70E060E03A
:102F80002AF09A95660F771F881FDAF7880F9695B3
:102F9000879597F908950E943D1808F48FEF0895DA
:102FA0000E94E3170C9478180E946A1838F00E9467
:102FB000711820F0952311F00C9461180C94671887
:102FC00011240C94AC180E94891870F3959FC1F3DA
:102FD000950F50E0551F629FF001729FBB27F00DC7
:102FE000B11D639FAA27F00DB11DAA1F649F66271C
:102FF000B00DA11D661F829F2227B00DA11D621F6B
:10300000739FB00DA11D621F839FA00D611D221F24
:10301000749F3327A00D611D231F849F600D211D08
:10302000822F762F6A2F11249F5750409AF0F1F08B
:1030300088234AF0EE0FFF1FBB1F661F771F881FF4
:1030400091505040A9F79E3F510580F00C946118B3
:103050000C94AC185F3FE4F3983ED4F386957795D3
:103060006795B795F795E7959F5FC1F7FE2B880F9A
:10307000911D9695879597F90895990F0008550F1A
:10308000AA0BE0E8FEEF16161706E807F907C0F0EE
:1030900012161306E407F50798F0621B730B840BF6
:1030A000950B39F40A2661F0232B242B252B21F4D0
:1030B00008950A2609F4A140A6958FEF811D811D70
:1030C000089597F99F6780E870E060E008959FEFAA
:1030D00080EC089500240A941616170618060906AF
:1030E000089500240A94121613061406050608957E
:1030F000092E0394000C11F4882352F0BB0F40F406
:10310000BF2B11F460FF04C06F5F7F4F8F4F9F4F45
:10311000089557FD9058440F551F59F05F3F71F0C7
:103120004795880F97FB991F61F09F3F79F087952E
:103130000895121613061406551FF2CF4695F1DFB7
:1031400008C0161617061806991FF1CF8695710547
:10315000610508940895E894BB2766277727CB017B
:1031600097F90895EE0FFF1F881F8BBF0790F69108
:10317000E02D19940F931F93CF93DF938230910525
:1031800010F482E090E0E0913818F091391830E0C6
:1031900020E0B0E0A0E0309799F42115310509F462
:1031A0004AC0281B390B24303105D8F58A819B8110
:1031B0006115710589F1FB0193838283FE0111C0C2
:1031C000408151810281138148175907E0F0481767
:1031D000590799F4109761F012960C931297139671
:1031E0001C933296CF01DF91CF911F910F910895DB
:1031F0000093381810933918F4CF2115310551F088
:103200004217530738F0A901DB019A01BD01DF0124
:10321000F801C1CFEF01F9CF909339188093381896
:10322000CDCFFE01E20FF31F81939193225031091C
:1032300039832883D7CF2091361830913718232B24
:1032400041F4209103023091040230933718209307
:10325000361820910102309102022115310541F406
:103260002DB73EB74091050250910602241B350B45
:10327000E0913618F0913718E217F307A0F42E1BEF
:103280003F0B2817390778F0AC014E5F5F4F2417CA
:10329000350748F04E0F5F1F50933718409336188C
:1032A000819391939FCFF0E0E0E09CCFCF93DF93A9
:1032B0000097E9F0FC01329713821282A09138182E
:1032C000B0913918ED0130E020E01097A1F4208191
:1032D0003181820F931F20913618309137182817AB
:1032E000390709F061C0F0933718E0933618DF9181
:1032F000CF910895EA01CE17DF07E8F54A815B8197
:103300009E0141155105B1F7E901FB83EA8349911B
:103310005991C40FD51FEC17FD0761F4808191818D
:103320000296840F951FE901998388838281938196
:103330009B838A83F0E0E0E012968D919C91139735
:103340000097B9F52D913C911197CD010296820F0E
:10335000931F20913618309137182817390739F6FE
:10336000309751F51092391810923818B0933718D9
:10337000A0933618BCCFD383C28340815181840F80
:10338000951FC817D90761F44E5F5F4F88819981F7
:10339000480F591F518340838A819B819383828385
:1033A0002115310509F0B0CFF0933918E0933818A2
:1033B0009ECFFD01DC01C0CF13821282D7CFFB016B
:1033C000DC010D900020E9F7119701900D9200208B
:1033D000E1F70895FC018191861721F08823D9F740
:1033E000992708953197CF010895FB0151915523F5
:1033F000A9F0BF01DC014D9145174111E1F759F4E6
:10340000CD010190002049F04D9140154111C9F3C3
:10341000FB014111EFCF81E090E0019708950F93F8
:103420001F93CF93DF93CDB7DEB72E970FB6F894E7
:10343000DEBF0FBECDBF0E891F8986E08C831A8345
:1034400009838FEF9FE79E838D83AE01465E5F4FBA
:10345000688D798DCE0101960E94D2142F81388516
:10346000020F131FF80110822E960FB6F894DEBFDC
:103470000FBECDBFDF91CF911F910F910895F894AA
:02348000FFCF7C
:10348200FF00003A18800041542B434153454E44FB
:103492003D302C0000000000000000000000005938
:1034A20003AF02E602C4031703F50209030D0A0083
:1034B2004552524F52004F4B003100390037003114
:1034C2002C22696F742E316E63652E6E6574220034
:1034D200302C4143544956450030300025750000D8
:00000001FF
