:100000000C94CB010C94FC010C94FC010C94FC01AD
:100010000C94FC010C94FC010C94FC010C94FC016C
:100020000C94FC010C94FC010C94FC010C94FC015C
:100030000C94FC010C94FC010C94FC010C94FC014C
:100040000C94FC010C94FC010C94FC010C94FC013C
:100050000C94FC010C94FC010C94FC010C94CC134A
:100060000C94FC010C94FC010C94FC010C94FC011C
:100070000C94FC010C94FC010C94FC010C94FC010C
:100080000C94FC010C94FC010C94FC010C94FC01FC
:100090000C9418120C944E120C94FC010C94FC015C
:1000A0000C94FC010C94FC010C94FC010C94FC01DC
:1000B0000C94FC010C94FC010C94FC010C94FC01CC
:1000C0000C94FC010C94FC010C94FC010C94AF12F8
:1000D0000C94E5120C94FC010C94FC010C94FC01B2
:1000E0000C94FC010C94E0140C9478120C94E6141B
:1000F0000C9446130C94DF100C94C4140C94F3105D
:100100000C9402110C94D2140C94B2140C94BA14E2
:100110000C94C5100C94D1100C94F1140C9479111A
:100120000C94DC140C94AC140C94C0140C94D814DF
:100130000C94F2140C940F130C9419130C94EA14ED
:100140000C9482120C94B6140C94CA140C94CE1411
:100150000C9459110C94EE140C94900741542B43B9
:10016000414F50454E3D302C302C22554450222CCE
:10017000223230372E3135342E3235312E3137316F
:10018000222C383038300041542B434E4143543FE9
:100190000041542B434E4143543D302C31004154D7
:1001A0002B434E4346473D302C312C22696F742E31
:1001B000316E63652E6E6574220041542B4353519A
:1001C0000041542B43474E41504E0041542B434F66
:1001D00050533F0041542B43474154543F00415436
:1001E0002B47534E0041540041542B434152454349
:1001F000563D302C313436300041542B4341534569
:100200004E443D302C31380041542B43415245433C
:10021000563D302C313436300041542B4341524549
:1002200043563D302C313436300041542B4341533A
:10023000454E443D302C31310041542B4341524511
:1002400043563D302C313436300041542B4341531A
:10025000454E443D302C3135000000000A0B0C00A7
:10026000000000000D0E0F09000000000804050644
:100270000000000000001112130000000000000048
:10028000000000000000000000000000000000006E
:10029000000000000000000000000000000000005E
:1002A000000000000000000000000000000003014A
:1002B00002040810204080010204081020400102BE
:1002C000040810204080800810010204081020401B
:1002D000800102040810204080010201020408107D
:1002E00020408001020408102040048040201008B3
:1002F0000402018001020408102040800102040869
:10030000102040802005050505050505050808089D
:100310000808080802020202020202020807070C8B
:100320000C0C0C0C0C0C0C04040404040404040752
:100330000703030303030303030A0A0A0A0A0A0A58
:100340000701010101010101010A06060606060670
:1003500006060B0B0B0B0B0B0B0B070000220025EB
:100360000028002B002E003100340002010000059F
:100370000108010B0100002100240027002A002DA4
:10038000003000330001010000040107010A0100F0
:1003900090078212191311241FBECFEFD1E2DEBFE6
:1003A000CDBF00E00CBF12E0A0E0B2E0E0EEF5E36C
:1003B00000E00BBF02C007900D92A036B107D9F73D
:1003C00028E1A0E6B2E001C01D92A334B207E1F734
:1003D00011E0CBECD1E000E006C021970109802FAD
:1003E000FE010E94A516C83CD10780E00807A9F7C6
:1003F0000E94BD130C94EE1A0C940000DC01ED91E8
:10040000FC910280F381E02D1994CF9385E40E9442
:10041000681490938D1680938C16BC01990F880BED
:10042000990B0E9461152AE038E240EA5BE30E94E2
:100430001616609388167093891680938A16909387
:100440008B16C1E020E030E040E050E40E9411163D
:1004500018160CF0C0E08C2FCF9108958F929F92C8
:10046000AF92BF92CF92DF92EF92FF926C010E9407
:1004700016144B015C010D2C000CEE08FF080E94C5
:100480001614681979098A099B096C157D058E0572
:100490009F05A8F3FF90EF90DF90CF90BF90AF90B3
:1004A0009F908F900895EF92FF920F931F93CF9399
:1004B000DF93CDB7DEB7A8970FB6F894DEBF0FBEB7
:1004C000CDBF8DE0E8E0F2E0DE01559601900D929F
:1004D0008A95E1F7FE01B29687E0DF011D928A95C9
:1004E000E9F7A091F816B091F916FD0101900020EE
:1004F000E9F73197EA1BFB0BFF93EF938CE192E056
:100500009F938F93CE0101967C019F938F930E94BE
:1005100002188E010B5E1F4FB701C8010E94D2174F
:10052000F80101900020E9F73197AF01401B510B12
:10053000B8018CEF96E10E94FE018CEF96E10E94DB
:10054000A61388EC90E00E942E026091F81670913C
:10055000F916FB0101900020E9F73197AF01461B26
:10056000570B8CEF96E10E94FE010F900F900F90B9
:100570000F900F900F90A8960FB6F894DEBF0FBEA5
:10058000CDBFDF91CF911F910F91FF90EF90089514
:1005900060E08BE20E94311588EE93E00E942E020B
:1005A00061E08BE20C943115E091FA16F091FB16A4
:1005B000118210820895E6ECF6E182E3DF011D92DC
:1005C0008A95E9F70895AC01FC018FEF9FEF9F0139
:1005D000241B350B26173707BCF42191022E000C83
:1005E000330B8227932728E030E0DC01A170BB2782
:1005F00096958795AB2B21F0A1E08A27A0EA9A2750
:100600002150310991F7E3CF08952F923F924F92F5
:100610005F926F927F928F929F92AF92BF92CF9292
:10062000DF92EF92FF920F931F93CF93DF93CDB79B
:10063000DEB7C451DF400FB6F894DEBF0FBECDBFAA
:10064000E091FA16F091FB1681819281582E492E85
:10065000C95FD04F59824882C750DF4067E0662E9D
:10066000712CB12CA12C912C812C8E010B53114F8C
:10067000CD5FD04F19830883C350DF407EE7472EFC
:10068000E0E23E2EFFE32F2EC95FD04FC880D98015
:10069000C750DF40AC14BD0409F4F3C00091FA1652
:1006A0001091FB16060D171DF801349750803196F6
:1006B000E08031968081FE2CE82ED8011196BC9105
:1006C000CB5FD04FB883C550DF40C52C052C000C44
:1006D000DD08B601CE018B53914F0E94DD17892BA7
:1006E00009F054C0E5ECFEE0EC0FFD1FE80DF91D2C
:1006F0005082E52DF42DEF02C0011124E1E0F0E07D
:10070000EC0FFD1FE80FF91FDF01532C1D925A94C7
:10071000E9F7FC01B09621E030E02C0F3D1FE20F1D
:10072000F31FDF01532C1D925A94E9F7FC01E05CA2
:10073000FF4FE20FF31FDF01532C1D925A94E9F78C
:100740008C599F4FF901E80FF91FDF0150E1552E39
:100750001D925A94E9F74C9CC0014D9C900D1124B8
:1007600021E030E02C0F3D1F820F931FFC01E85861
:10077000FF4F1182108232961182108284589F4F4F
:10078000DC011D921C92F40131964F01CB5FD04FDA
:10079000F881C550DF40F130B1F54C9CC0014D9C53
:1007A000900D112421E030E02C0F3D1F820F931F8C
:1007B000FC01E658FF4F20813181A9014F5F5F4F57
:1007C000518340832C9CF0012D9CF00D1124E20FED
:1007D000F31F7096EE0FFF1FA1E0B0E0AC0FBD1F3E
:1007E000EA0FFB1FF182E082F8012081E80EF91E7A
:1007F000F701EC59FF4F2083BFEFAB1ABB0AE6E0CD
:100800006E0E711C41CF4C9CF0014D9CF00D1124DB
:1008100021E030E02C0F3D1FE20FF31FE458FF4FA3
:10082000A081B1819D012F5F3F4F318320832C9C9C
:10083000F0012D9CF00D1124AE0FBF1FAA0FBB1F9E
:1008400081E090E08C0F9D1FA80FB91FED92FC92E4
:10085000D80111978C9190E0982F8827EE0DFF1DFD
:10086000B096EE0FFF1FA1E0B0E0AC0FBD1FEA0F86
:10087000FB1F91838083D8012C91822B91838083ED
:10088000BBCF0E94D4028E010B53114F1801CF5FD2
:10089000D04F19830883C150DF408EE7F82E03EE56
:1008A0001EE00C0F1D1F0A5F1F4FC55FD04F19833D
:1008B0000883CB50DF40CF5FD04FE881F981C15032
:1008C000DF4001900020E9F73197CF5FD04F48809B
:1008D0005980C150DF40E419F509C101CD5FD04F07
:1008E000A880B980C350DF408A199B098E179F07E3
:1008F00008F0E9C2D101EC904E2D0E2C000C550BE6
:10090000F49EF001F59EF00D112444244394512CE3
:100910004C0E5D1EE40DF51DDF01A658BF4F6D9115
:100920007C9111970E2D1EE701022001112416164D
:1009300017068CF580A191A1169711969C938E9322
:10094000EA58FF4F9183808381E090E06F01681740
:10095000790709F19C01220F331F240D351DE1E0B9
:10096000F0E0EC0FFD1F2E0F3F1FF90120A131A178
:100970000D911C9111972017310718F411963C9393
:100980002E93F601008111810217130710F43183B1
:1009900020830196DCCFF49EF001F59EF00D11242A
:1009A000AA24A394B12CAC0EBD1EEA0DFB1DDF01E1
:1009B000A458BF4F0D911C9111971016110694F574
:1009C000808191815C9711969C938E93EE59FF4F95
:1009D0009183808381E090E05F010817190711F18E
:1009E0009C01220F331F240D351DCC24C394D12C20
:1009F000CC0EDD1E2C0D3D1DF90120813181CD90E5
:100A0000DC9011972C153D0518F411963C932E930C
:100A1000F501C080D180C216D30610F43183208343
:100A20000196DBCFF49EC001F59E900D1124AA24FF
:100A3000A394B12CAC0EBD1E8A0D9B1DFC01E85881
:100A4000FF4F11821082DC01AA58BF4FCD90DC907D
:100A50001197CB5FD04FD982C882C550DF40129723
:100A60006D907C9046010FEF801A900A86189708C7
:100A7000ACEAA49F9001A59F300D1124C75FD04F11
:100A800039832883C950DF409301B12CA12CCF5E5C
:100A9000D04F99838883C151DF40C75FD04F088111
:100AA0001981C950DF40005A1D4FCD5ED04F1983C8
:100AB0000883C351DF408A149B0409F496C010E0F8
:100AC00000E090E080E0C95FD04F1882C750DF405F
:100AD000CF5ED04FC880D980C151DF40C20ED31E37
:100AE000D601AC59BF4FC35FD04FB983A883CD5057
:100AF000DF40CD5ED04FC880D980C351DF40C20EE9
:100B0000D31ED601A456BF4FC15FD04FB983A8836F
:100B1000CF50DF40061717070CF042C0D801AA0FCC
:100B2000BB1FA40DB51DCC24C394D12CCC0EDD1E4F
:100B3000AC0DBD1D90960D90BC91A02DA217B307D2
:100B400061F5C35FD04FA881B981CD50DF40BC9122
:100B5000C95FD04FB883C750DF408B2B6C010A2C84
:100B600002C0CC0CDD1C0A94E2F7A081B181AC2953
:100B7000BD29B183A083C95FD04FC880C750DF4073
:100B8000C15FD04FA881B981CF50DF40CC92A1E0A6
:100B9000C95FD04FA883C750DF400F5F1F4FBACF48
:100BA000C95FD04FB881C750DF40B11118C0C75FCF
:100BB000D04FA881B981C950DF40A20FB31FA45004
:100BC000BD4FAC918A2B0A2C02C0880F991F0A9442
:100BD000E2F7A081B1818A2B9B2B918380830FEF59
:100BE000A01AB00A2F5F3F4F66CF161617060CF0FB
:100BF0006FC088E1C55FD04FA881B981CB50DF407D
:100C00001D928A95E9F7CD51D14FE882C35EDE404F
:100C10008FE0CC51D14F8883C45EDE40CB51D14FA1
:100C20007882C55EDE40CA51D14F6882C65EDE4022
:100C3000C951D14F9882C75EDE40CB5FD04F8881CB
:100C4000C550DF408F5F8619C851D14F8883C85E79
:100C5000DE40F49EF001F59EF00D112444244394EF
:100C6000512C4C0E5D1EE40DF51DE858FF4F8081A0
:100C7000918109E08016910408F4FEC022E0C7517A
:100C8000D14F2883C95EDE40C651D14F8883CA5EEA
:100C9000DE40C551D14F9883CB5EDE4009E010E0C5
:100CA000B801CE018D51914F0E94E302E3EEFEE0C8
:100CB000EC0FFD1FE00FF11F80839183A8014E5FB1
:100CC0005F4FBE016D51714F89E997E10E94FE01AE
:100CD000D1011D911D01612F012E000C770BF69E95
:100CE0009001F79E300D1124E1E0F0E0EC0FFD1FC4
:100CF0002E0F3F1FD901A458BF4F4D905C90CB5F82
:100D0000D04F59824882C550DF40141415040CF0AE
:100D1000D2CD88E1C55FD04FA881B981CB50DF40EB
:100D20001D928A95E9F7CD51D14F1883C35EDE40FD
:100D300080E1CC51D14F8883C45EDE40C901805A26
:100D40009F4FFC0180819181CB51D14F9883C55E2B
:100D5000DE40CA51D14F8883C65EDE402E593F4FD8
:100D6000D9014D915C919A012F5F3F4F281B390BA0
:100D7000C951D14F3883C75EDE404F5F481BC85111
:100D8000D14F4883C85EDE40422F440FC751D14F38
:100D90004883C95EDE40BF2D1B02400111243C0187
:100DA000E6E51E02600C711C1124660C771C50E0F5
:100DB00040E007E010E0EFE3E69F6001E79FD00C22
:100DC00011244217530709F465C070E060E0E12C7C
:100DD000F601E80FF91FB096EE0FFF1F442443946D
:100DE000512C4C0E5D1EE40DF51D5B01AA0CBB1CC5
:100DF000A80CB91CA1E0B0E0AC0FBD1FAA0EBB1E31
:100E0000D501AD90BC90A816B90691F4E080518050
:100E1000A3EEAA2EAEE0BA2EAC0EBD1EA00EB11EE1
:100E2000D5015C921196EC920E5F1F4FEE24E39475
:100E30006F5F7F4FCB5FD04F48805980C550DF40F8
:100E40004616570691F6E11013C0FA01EE0FFF1F88
:100E5000E60DF71DE452FD4F60817181E3EEFEE087
:100E6000EC0FFD1FE00FF11F708361830E5F1F4FBA
:100E70004F5F5F4F0196A5CF91E0C751D14F988347
:100E8000C95EDE40C651D14F8883CA5EDE4008E0AD
:100E900010E006CFB801CE018D51914F0E94E302C0
:100EA000E3EEFEE0EC0FFD1FE00FF11F8083918366
:100EB000A8014E5F5F4FBE016D51714F89E997E107
:100EC0000E94FE01F8CCCC5ED04F0FB6F894DEBF86
:100ED0000FBECDBFDF91CF911F910F91FF90EF908B
:100EE000DF90CF90BF90AF909F908F907F906F904A
:100EF0005F904F903F902F90089530E020E02417AE
:100F0000350754F4DC01ED91FD91CD01E617F707AB
:100F100029F02F5F3F4FF3CF80E0089581E00895DF
:100F200088EE93E00E94AD169093FB168093FA161C
:100F300080ED97E00E94AD169093F9168093F81615
:100F400008950F931F93CF93DF9384E690E00E9460
:100F50002E0289E997E10E94C510892B99F089E951
:100F600097E10E94C5108C01C6ECD6E1CE01865CEB
:100F70009641801791076CF789E997E10E94DF108D
:100F80008993F4CFDF91CF911F910F9108952F9204
:100F90003F924F925F926F927F928F929F92AF9209
:100FA000BF92CF92DF92EF92FF920F931F93CF9356
:100FB000DF93CDB7DEB7CB5AD5400FB6F894DEBF7E
:100FC0000FBECDBF8091901681116EC1E1E9F6E1AF
:100FD0008EE1DF011D928A95E9F7E091FA16F09112
:100FE000FB1681819281F82FE92FC655DA4FF983DC
:100FF000E883CA5AD54003E0E02EF12CD12CC12C55
:10100000B12CA12C8CEA282EC655DA4F28813981C3
:10101000CA5AD540C216D30609F4ABC0E091FA16FD
:10102000F091FB16EE0DFF1D308081814280582E1D
:101030003381C755DA4F3883C95AD54084816580DA
:10104000782E032D032C000C110BC8010E94D81A16
:10105000681621F0662DC8010E94E01A48014FEF82
:10106000841A940AC4010E94D81A781621F0672DB8
:10107000C4010E94E01AB80181E996E10E94DD17DF
:10108000892BA9F5F501EF56F94E3082209EC0015B
:10109000219E900D1124805A9D4FFC01E858FF4F6E
:1010A0001182108286589F4FDC011D921C92B32D35
:1010B000E0E3BE02C0011124E1E0F0E0EC0FFD1F0F
:1010C000E80FF91FDF0120E21D922A95E9F78096CB
:1010D000E1E0F0E0EC0FFD1FE80FF91FDF0120E178
:1010E0001D922A95E9F7A5014F5F5F4F5A01C75539
:1010F000DA4F5881C95AD540209ED001219EB00DAB
:1011000011245130F9F4A852BD4F8D919C91119743
:101110009C012F5F3F4F2D933C93A6E5A09FF001CC
:10112000A19FF00D1124E80FF91FEE0FFF1FE058EB
:10113000FD4F51824082EFEFCE1ADE0AF6E0EF0E4D
:10114000F11C62CFA652BD4F8D919C9111979C01CD
:101150002F5F3F4F2D933C93B6E5B09FF001B19FB9
:10116000F00D1124E80FF91FEE0FFF1FE05AFD4F9D
:10117000E0CF0E94D40261E976E15B01ACEA9A2EED
:10118000D5010D900020E9F7CD01825996419B01D0
:10119000215936412817390708F086C0FB01819193
:1011A000BF01082E000C990B989E7001999EF00CBF
:1011B0001124F701E05AFD4FDF01A858BF4F0D91F0
:1011C0001C9111971016110674F520A131A1D49726
:1011D00011963C932E93EA5BFF4F3183208321E0ED
:1011E00030E03F0102171307F1F0A901440F551F2A
:1011F0004E0D5F1D405A5D4FFA0140A151A1CD90A7
:10120000DC9011974C155D0518F411965C934E9384
:10121000F301C080D180C416D50610F451834083F9
:101220002F5F3F4FDFCF989EA001999E500D112454
:10123000FA01E05AFD4FDF01A658BF4F0D911C91F6
:101240001197101611060CF09BCF80819181DA97CF
:1012500011969C938E93EE5BFF4F9183808321E0E8
:1012600030E06F010217130709F48ACFC901880F14
:10127000991F840F951F805A9D4FFC018081918199
:10128000ED90FC9011978E159F0518F411969C9384
:101290008E93F601E080F180E816F90610F4918350
:1012A00080832F5F3F4FDECF81E08093901601E96E
:1012B00016E128016CEA762E71EA872E75E0972EEA
:1012C0008C0E9D1EF6E08F0E911CE0E36E2EAA247C
:1012D000A394B12CD2010D900020E9F7CD018259E1
:1012E00096419801215936412817390708F025C140
:1012F000F8012081372D2303C0011124805A9D4F0E
:10130000FC01E858FF4F40815181141615060CF07E
:101310008CC0D4011D921C92CF55DA4F2883C15A3C
:10132000D54022E0CE55DA4F2883C25AD540F497F3
:1013300020813181CD55DA4F3883C35AD540CC5501
:10134000DA4F2883C45AD5408A5B9F4FFC018081C5
:101350009181AC014F5F5F4F421B530BCB55DA4F6E
:101360005883C55AD5408F5F821BCA55DA4F888390
:10137000C65AD54066E070E0CE018F559A4F0E9464
:10138000E302C955DA4F8883C75AD540C855DA4FAA
:101390009883C85AD54048E050E0BE016F557A4F57
:1013A00089E997E10E94FE010E94A1076091C81699
:1013B00070E07B0153E0EE0CFF1C5A95E1F7E6EC80
:1013C000F6E1CF01865C96418617970774F5D380C6
:1013D000D8014C9190E080E0262D4203A001112419
:1013E000A1E0B0E0AC0FBD1F4A0F5B1F2D2CDD0C40
:1013F00033088E159F05BCF46A01C80ED91E9501ED
:10140000082E02C0220F331F0A94E2F72221332153
:10141000082E02C0359527950A94E2F7D6019096DA
:101420002C930196E6CF3196CCCFF8012081372D51
:101430002303C0011124805A9D4FFC01E658FF4F41
:1014400040815181141615060CF074C0D4011D9210
:101450001C92CF55DA4F2883C15AD54023E0CE5590
:10146000DA4F2883C25AD540FA9720813181CD5571
:10147000DA4F3883C35AD540CC55DA4F2883C45A43
:10148000D5408E5B9F4FFC0180819181AC014F5F05
:101490005F4F421B530BCB55DA4F5883C55AD5408B
:1014A0008F5F821BCA55DA4F8883C65AD54066E0E3
:1014B00070E0CE018F559A4F0E94E302C955DA4F72
:1014C0008883C75AD540C855DA4F9883C85AD54043
:1014D00048E050E0BE016F557A4F89E997E10E94DC
:1014E000FE010E94A1078091C816869590E0A6ECA7
:1014F000B6E130E020E068E1129628173907D4F40D
:10150000F80140814603F0011124E20FF31FEE0FB2
:10151000FF1F41E050E04C0F5D1FE40FF51F1196D7
:101520005C91119712964C911297518340832F5FD3
:101530003F4FE2CF0F5F1F4FCDCE0E94DB02809165
:1015400006028F5F80930602E091F816F091F9167B
:1015500011821082A2EBB6E190E080E02D91E09143
:10156000F816F091F916E80FF91F208301968F30D5
:101570009105A1F7E091F816F091F9168091060215
:10158000878781E0808B61E9E62E66E1F62E912C5B
:10159000812CA12C03E110E07CEAB72EE0E32E2E93
:1015A000A1E9B6E10D900020E9F7CD0182599641FD
:1015B0009701215936412817390708F0AAC1F701C8
:1015C00020813B2D2303F0011124E852FD4F80813F
:1015D0009181181619060CF0B5C0D12CC12CD70179
:1015E0003C90432C032C000C5508B49CC001B59CC6
:1015F000900D1124FC01E05AFD4F3F01EC5BFF4FC1
:10160000608171813296208131812F5F3F4F261B8F
:10161000370BC216D30608F095C0F296408151816F
:101620006C0D7D1D80589D4F0E947D07882309F415
:1016300083C0249CD001259CB00D112421E030E012
:101640002C0F3D1FA20FB31FAC0DBD1D6C0C7D1CDC
:10165000F301E85BFF4F90962C919081A82E2917FB
:1016600009F46CC0E091F816F091F916E00FF11F43
:101670003082A091F816B091F916A00FB11FF701B2
:1016800020813B2D2303F0011124EC55FD4F808177
:1016900091818C0D9D1D11969C93A091F816B0918F
:1016A000F916A00FB11FF70120812303F0011124C7
:1016B000EC55FD4F80818C0D12968C93E091F816BD
:1016C000F091F916E00FF11F1382D7012C91322D02
:1016D0002303F001112441E050E04C0F5D1FE40FA3
:1016E000F51FEC0DFD1D20A1E091F816F091F91603
:1016F000C8010496E80FF91F0B5F1F4F20838C91E0
:10170000082E000C990BB89ED001B99EB00D112483
:10171000AC0DBD1DA855BD4F289EF001299EF00DB2
:101720001124E40FF51FEC0DFD1D80A18C935FEFDC
:10173000851A950AA12C02C0AA20C9F38FEFC81AF6
:10174000D80A4DCFD7012C913B2D2303F001112452
:10175000E652FD4F80819181181619060CF0D5C014
:10176000D12CC12CD7015C90652C052C000C77087E
:10177000B69CC001B79C900D1124805A9D4FFC016E
:10178000E05CFF4F608171813296208131812F5F53
:101790003F4F261B370BC216D30608F0B6C0F8968B
:1017A000408151816C0D7D1D0E947D07882309F4C5
:1017B000A6C0E8E1E69DD001E79DB00D1124AC0D77
:1017C000BD1DAA0FBB1F21E030E02C0F3D1FA20F53
:1017D000B31F36E5369DF001379DF00D1124EC0D59
:1017E000FD1DEE0FFF1FE854FD4F4D915C912081D0
:1017F0003181A82E4217530709F483C0E091F816EF
:10180000F091F916E00FF11F5082A091F816B091F7
:10181000F916A00FB11FF70120813B2D2303F00122
:101820001124E056FD4F808191818C0D9D1D1196F4
:101830009C93A091F816B091F916A00FB11FF70173
:1018400020812303F0011124E056FD4F80818C0D8F
:1018500012968C93A091F816B091F916A00FB11FB3
:10186000F701208138E12303F0011124EC0DFD1D67
:10187000EE0FFF1F41E050E04C0F5D1FE40FF51F1E
:10188000818113968C93A091F816B091F916C80136
:101890000496A80FB91F0B5F1F4FF7012081230388
:1018A000F0011124EC0DFD1DEE0FFF1FE40FF51FDD
:1018B00080818C93D7018C91082E000C990BB6E592
:1018C000B89FF001B99FF00D1124EC0DFD1DEE0F36
:1018D000FF1FE854FD4F389FD001399FB00D1124F0
:1018E000AC0DBD1DAA0FBB1FA40FB51F8D919C9100
:1018F00091838083EFEF8E1A9E0AA12C02C0AA204A
:10190000C9F3FFEFCF1ADF0A2DCF2FEFE21AF20A49
:1019100047CE181419040CF041C0E090F816F0906E
:10192000F916D70151969C92519752968C92F701D5
:1019300001900020E9F73197BF016E197F09C701B7
:101940000E94E302F701E00FF11F90832091F81647
:101950003091F916020F131FF801818381E090E0A6
:1019600090938F1680938E16C555DA4F0FB6F89464
:10197000DEBF0FBECDBFDF91CF911F910F91FF90C2
:10198000EF90DF90CF90BF90AF909F908F907F901F
:101990006F905F904F903F902F90089510928F1608
:1019A00010928E16E1CF0F931F93CF93DF930E9477
:1019B0002E028CEF96E10E94C510892BB9F08CEFB6
:1019C00096E10E94C5108C01D0E0C0E0C017D1079D
:1019D00084F78CEF96E10E94DF10E091FA16F09107
:1019E000FB16EC0FFD1F80832196F0CF6FE172E0B4
:1019F0008091FA169091FB160E94E817EC010E9464
:101A0000D40281E0CD2B09F480E0DF91CF911F91CA
:101A10000F9108950F931F93CF93DF9388EE93E078
:101A20000E942E028CEF96E10E94C510892BB9F01E
:101A30008CEF96E10E94C5108C01D0E0C0E0C01789
:101A4000D10784F78CEF96E10E94DF10E091FA163F
:101A5000F091FB16EC0FFD1F80832196F0CFDF91F4
:101A6000CF911F910F9108956F927F928F929F92C5
:101A7000AF92BF92CF92DF92EF92FF920F931F939C
:101A8000CF93DF933C016B010E9416144B015C0164
:101A9000D0E0C0E0F12CE12C0E940A0D0091FA1672
:101AA0001091FB16B301C8010E94E817892B09F4B5
:101AB00064C061E081E40E9431158DE790E00E94EE
:101AC0002E0260E081E40E9431158DE790E00E94D3
:101AD0002E0261E081E40E9431158DE790E00E94C2
:101AE0002E0260E081E40E9431158DE790E00E94B3
:101AF0002E0211E0C1E0D0E00E94161468197909A5
:101B00008A099B09C616D706E806F90618F561E0AA
:101B100082E40E9431158DE790E00E942E0260E081
:101B200082E40E9431158DE790E00E942E0261E070
:101B300082E40E9431158DE790E00E942E0260E061
:101B400082E40E9431158DE790E00E942E02D0E0E1
:101B5000C0E003C0112309F49FCFCE01DF91CF91E4
:101B60001F910F91FF90EF90DF90CF90BF90AF90BB
:101B70009F908F907F906F90089562E272E0C8010D
:101B80000E94E81710E0892B09F4B6CF61E080E4E9
:101B90000E9431158DE790E00E942E0260E080E403
:101BA0000E9431158DE790E00E942E0261E080E4F2
:101BB0000E9431158DE790E00E942E0260E080E4E3
:101BC0000E9431158DE790E00E942E0211E0C2E0E4
:101BD000D0E092CF1F93CF93DF93C4E0D0E011E029
:101BE00065EE71E08CEF96E10E94AA138CE291E021
:101BF0000E94D30C811110E0219791F7811102C04E
:101C00000E94C8021111E9CF0E94D4026EED71E06A
:101C10008CEF96E10E94AA130E940A0D8091FA1699
:101C20009091FB16FC013996A2EBB6E14896219102
:101C30002D93E817F907D9F70E94D40264ED71E0FB
:101C40008CEF96E10E94AA1360E177E28BE292E0CA
:101C50000E94340D0E94D4026BEC71E08CEF96E18F
:101C60000E94AA1368E873E18DE292E00E94340DAD
:101C7000019731F068E873E18FE292E00E94340D41
:101C80000E94D40261EC71E08CEF96E10E94AA13ED
:101C900060E177E281E392E00E94340D0E94D40279
:101CA0006AEB71E08CEF96E10E94AA130E940A0D84
:101CB000E091FA16F091FB1687818093AF1680852C
:101CC0008093B0160E94D4026EE971E08CEF96E129
:101CD0000E94AA1360E177E28FE192E00E94340D46
:101CE0000E94D40261E971E08CEF96E10E94AA1390
:101CF00060E177E282E492E00E94340D0E94D40217
:101D000067E871E08CEF96E10E94AA1360E177E248
:101D10008FE192E00E94340D0E94D4026CE571E0E4
:101D20008CEF96E10E94AA1360E177E28FE192E0E6
:101D30000E94340DDF91CF911F910C94D402CF9269
:101D4000DF92EF92FF920F931F93CF93DF93CDB764
:101D5000DEB7C85ED3400FB6F894DEBF0FBECDBF6E
:101D60008CE291E00E942E028E010F5F1F4F8CEFDC
:101D700096E10E94C5100097A1F08CEF96E10E94B9
:101D8000C5106C017801C701801B910B8C159D0556
:101D900074F78CEF96E10E94DF10F70181937F01C9
:101DA000F2CF4C8D2B8D2053330BECE1F0E0403320
:101DB00070F05AE0529FB001539F700D1124E42F30
:101DC000E053FF0B9F01260F371FEDE1F0E0E00F1E
:101DD000F11F8217930754F44191A091FA16B09124
:101DE000FB16A80FB91F4C930196F3CFC851DC4FD7
:101DF0000FB6F894DEBF0FBECDBFDF91CF911F911C
:101E00000F91FF90EF90DF90CF9008950F931F9365
:101E1000CF93DF93CDB7DEB76F970FB6F894DEBFE1
:101E20000FBECDBF80E8809361001092610026E074
:101E300040E855E260E070E08CEF96E10E94C61148
:101E400026E040E855E260E070E089E997E10E9411
:101E5000C61161E08AE20E94F51461E08BE20E9403
:101E6000F51461E082E40E94F51461E081E40E94CF
:101E7000F51461E080E40E94F51460E083E40E94C0
:101E8000F51461E08BE20E94311560E08AE20E9465
:101E900031150E94EA0DBE016F5F7F4FA2EBB6E1E4
:101EA0008B019D01F90101900020E9F7CF01835BCF
:101EB0009641AD01425B56414817590728F48D9170
:101EC000FB018193BF01EECF82E089871A8681E012
:101ED0008B871C868D876DE070E0C8010E94E3024D
:101EE0008E876DE070E0C8010E94E3029F876AE47C
:101EF00072E08CEF96E10E94AA1360E177E28FE135
:101F000092E00E94340D0E94D402F801019000205A
:101F1000E9F73197AF01401B510BB8018CEF96E107
:101F20000E94FE0160E177E28FE192E00E94340DB1
:101F300069E372E08CEF96E10E94AA1360E177E218
:101F400088E292E00E94340DBE016F5E7F4FA2EBEB
:101F5000B6E18B019D01F90101900020E9F7CF0165
:101F6000835B9641AD01425B56414817590728F4FF
:101F70008D91FB018193BF01EECF83E0898F69E0F2
:101F800070E0C8010E94E3028A8F69E070E0C80136
:101F90000E94E3029B8F6AE272E08CEF96E10E945E
:101FA000AA1360E177E28FE192E00E94340D0E9473
:101FB000D402F80101900020E9F73197AF01401BEE
:101FC000510BB8018CEF96E10E94FE0160E177E2CF
:101FD0008FE192E00E94340D69E172E08CEF96E1AE
:101FE0000E94AA130E949F0E6F960FB6F894DEBF50
:101FF0000FBECDBFDF91CF911F910F9108950F9329
:102000001F93CF93DF93CDB7DEB764970FB6F894E5
:10201000DEBF0FBECDBF00918E1610918F1601301E
:102020001105D9F1BCF4012BA9F10E94050281111F
:1020300006C083E090E090938F1680938E1664968E
:102040000FB6F894DEBF0FBECDBFDF91CF911F91C9
:102050000F9108950230110509F442C003301105B3
:1020600021F7BE016F5F7F4FA2EBB6E18B019D01AF
:10207000F90101900020E9F7CF01835B9641AD01A2
:10208000425B564148175907E8F58D91FB01819352
:10209000BF01EECF0E94C707C8CF0E94530268E07D
:1020A00072E08CEF96E10E94AA130E949F0EE091CD
:1020B000FA16F091FB1690818091060298131DC0CC
:1020C0008181811105C010928F1610928E1608C062
:1020D000813049F482E090E090938F1680938E16C1
:1020E0000E940503A2CF823071F3833019F410925D
:1020F0009016E9CF8430A1F7E6CF10938F160093A6
:102100008E16EECF81E089871A868B871C861D8606
:102110008E871F86888B60E170E0C8010E94E30211
:10212000898B60E170E0C8010E94E3029A8B69EF3D
:1021300071E08CEF96E10E94AA1360E177E28FE1F3
:1021400092E00E94340D0E94D402F8010190002018
:10215000E9F73197AF01401B510BB8018CEF96E1C5
:102160000E94FE0160E177E28FE192E00E94340D6F
:1021700068EE71E08CEF96E10E94AA1360E177E2CD
:1021800088E292E00E94340D50CFFC01918D228DA7
:10219000892F90E0805C9F4F821B91098F73992754
:1021A0000895FC01918D828D981731F0828DE80F92
:1021B000F11D858D90E008958FEF9FEF0895FC014C
:1021C000918D828D981761F0A28DAE0FBF2FB11D3A
:1021D0005D968C91928D9F5F9F73928F90E0089592
:1021E0008FEF9FEF0895FC01538D448D252F30E034
:1021F000842F90E0821B930B541710F0CF96089514
:102200000197089580E090E0892B49F080E090E00C
:10221000892B29F00E94000081110E94000088E7AC
:1022200092E1892B49F080E090E0892B29F00E940F
:10223000781281110E9400008FE093E1892B49F010
:1022400080E090E0892B29F00E940F1381110E94F9
:10225000000080E090E0892B49F080E090E0892B3D
:1022600029F00E94000081110C9400000895FC01E7
:10227000A48DA80FB92FB11DA35ABF4F2C91848DE7
:1022800090E001968F739927848FA689B7892C9344
:10229000A089B1898C91837080648C93938D848D97
:1022A000981306C00288F389E02D80818F7D80839A
:1022B0000895CF93DF93EC01888D8823B9F0AA8924
:1022C000BB89E889F9898C9185FD03C0808186FDF1
:1022D0000DC00FB607FCF7CF8C9185FFF2CF808140
:1022E00085FFEDCFCE010E943711E9CFDF91CF916D
:1022F0000895EF92FF920F931F93CF93DF93EC011A
:1023000081E0888F9B8D8C8D98131AC0E889F9899C
:10231000808185FF15C09FB7F894EE89FF8960839F
:10232000E889F98980818370806480839FBF81E020
:1023300090E0DF91CF911F910F91FF90EF90089562
:10234000F62E0B8D10E00F5F1F4F0F731127E02E3D
:102350008C8D8E110CC00FB607FCFACFE889F98975
:10236000808185FFF5CFCE010E943711F1CFEB8D33
:10237000EC0FFD2FF11DE35AFF4FF0829FB7F89449
:102380000B8FEA89FB8980818062CFCFCF92DF9269
:10239000EF92FF921F93CF93DF93EC016A017B01D1
:1023A000122F60E874E88EE190E0A70196010E9488
:1023B00083162150310941095109569547953795A2
:1023C0002795E889F98982E08083211580E1380723
:1023D00098F0E889F989108260E472E48FE090E077
:1023E000A70196010E948316215031094109510924
:1023F0005695479537952795EC85FD853083EE8575
:10240000FF852083188EEC89FD891083EA89FB897A
:10241000808188698083EA89FB8980818F7D8083C0
:10242000DF91CF911F91FF90EF90DF90CF900895B3
:102430001F920F920FB60F9211240BB60F922F938B
:102440008F939F93EF93FF93E0910C17F0910D17EB
:102450008081E0911217F091131782FD1DC09081C9
:10246000809115178F5F8F7320911617821741F097
:10247000E0911517F0E0E450F94E958F8093151711
:10248000FF91EF919F918F912F910F900BBE0F9025
:102490000FBE0F901F9018958081F2CF1F920F9260
:1024A0000FB60F9211240BB60F922F933F934F93B9
:1024B0005F936F937F938F939F93AF93BF93EF93AC
:1024C000FF938CEF96E10E943711FF91EF91BF913E
:1024D000AF919F918F917F916F915F914F913F91BC
:1024E0002F910F900BBE0F900FBE0F901F9018955D
:1024F0008CEF96E10E94C51021E0892B09F420E0C1
:10250000822F0895ECEFF6E11382128288EE93E0B9
:10251000A0E0B0E084839583A683B7838FE492E044
:10252000918380838DEC90E0958784878CEC90E09C
:102530009787868788EC90E0918B808B89EC90E080
:10254000938B828B8AEC90E0958B848B8EEC90E061
:10255000978B868B118E128E138E148E08951F9278
:102560000F920FB60F9211240BB60F922F938F93E9
:102570009F93EF93FF93E091A917F091AA178081A1
:10258000E091AF17F091B01782FD1DC0908180914E
:10259000B2178F5F8F732091B317821741F0E091CC
:1025A000B217F0E0E756F84E958F8093B217FF917F
:1025B000EF919F918F912F910F900BBE0F900FBEB7
:1025C0000F901F9018958081F2CF1F920F920FB637
:1025D0000F9211240BB60F922F933F934F935F935B
:1025E0006F937F938F939F93AF93BF93EF93FF93DB
:1025F00089E997E10E943711FF91EF91BF91AF9167
:102600009F918F917F916F915F914F913F912F910A
:102610000F900BBE0F900FBE0F901F90189589E979
:1026200097E10E94C51021E0892B09F420E0822F58
:102630000895E9E9F7E11382128288EE93E0A0E0C1
:10264000B0E084839583A683B7838FE492E091837F
:10265000808385ED90E09587848784ED90E097876F
:10266000868780ED90E0918B808B81ED90E0938B5D
:10267000828B82ED90E0958B848B86ED90E0978B3A
:10268000868B118E128E138E148E0895AF92BF9288
:10269000CF92DF92EF92FF920F931F93CF93DF932E
:1026A0006C017B018B01040F151FEB015E01AE185D
:1026B000BF08C017D10759F06991D601ED91FC917F
:1026C0000190F081E02DC6011995892B79F7C5019C
:1026D000DF91CF911F910F91FF90EF90DF90CF90FE
:1026E000BF90AF900895FB0101900020E9F731976A
:1026F000AF01461B570BDC01ED91FC910280F38189
:10270000E02D1994EF92FF920F931F93CF93DF93D5
:102710008C017B01D0E0C0E0F701EC0FFD1F64915C
:10272000662361F0D801ED91FC910190F081E02DDC
:10273000C8011995892B11F02196EECFCE01DF91BA
:10274000CF911F910F91FF90EF9008956DE572E08A
:102750000C9473130F931F93CF93DF93EC010E949C
:1027600082138C01CE010E94A613800F911FDF916E
:10277000CF911F910F91089508950E9422140E94F5
:10278000BC130E94060FC2E0D1E10E94FF0F209708
:10279000E1F30E940211F9CF1F920F920FB60F9230
:1027A00011242F933F938F939F93AF93BF93809167
:1027B0003B1890913C18A0913D18B0913E18309173
:1027C0003A1826E0230F2D3768F129E8230F0396E6
:1027D000A11DB11D20933A1880933B1890933C188B
:1027E000A0933D18B0933E188091361890913718F9
:1027F000A0913818B09139180196A11DB11D809390
:10280000361890933718A0933818B0933918BF91A1
:10281000AF919F918F913F912F910F900FBE0F908D
:102820001F9018950296A11DB11DD4CF2FB7F89413
:1028300060913B1870913C1880913D1890913E1822
:102840002FBF0895789484B5836084BD85B5836077
:1028500085BDEEE6F0E0808181608083E1E8F0E014
:1028600082E08083808181608083E0E8F0E0808185
:1028700081608083E1EBF0E0808184608083E0EB25
:10288000F0E0808181608083E1E9F0E08081836015
:102890008083E0E9F0E0808181608083E1EAF0E01C
:1028A000808183608083E0EAF0E0808181608083C2
:1028B000E1E2F1E0808183608083E0E2F1E0808109
:1028C0008160808386E880937A001092C100089529
:1028D000803120F0843408F484E4855420917B0016
:1028E000982F9870277F922B90937B00209107025E
:1028F00090E4299F900111248770822B80937C00A3
:1029000080917A00806480937A0080917A0086FDBD
:10291000FCCF8091780090917900089582508231A7
:1029200008F05FC0E82FF0E08827E656FB4E8F4F97
:102930000C94A516EE14F214AC14B214B614F114DF
:10294000BA14C014C414CA14CE14D214D814DC148B
:10295000F114E014E614EA14809180008F778093DC
:1029600080000895809180008F7DF9CF8091800054
:10297000877FF5CF8091B0008F778093B000089566
:102980008091B0008F7DF9CF809190008F778093F8
:1029900090000895809190008F7DF9CF80919000F4
:1029A000877FF5CF8091A0008F778093A000089556
:1029B0008091A0008F7DF9CF8091A000877FF5CF17
:1029C000809120018F7780932001089580912001CC
:1029D0008F7DF9CF80912001877FF5CF84B58F77E8
:1029E00084BD089584B58F7DFBCFCF93DF9390E0B6
:1029F000FC01E155FD4F24918B5F9C4FFC018491BC
:102A00008823C9F090E0880F991FFC01EB58FC4F18
:102A1000A591B491FC01E55AFC4FC591D491611187
:102A20000DC09FB7F8948C91209582238C93888158
:102A3000282328839FBFDF91CF910895623051F4FE
:102A40009FB7F8943C91822F809583238C93E881E3
:102A50002E2BEFCF8FB7F894EC912E2B2C938FBFAA
:102A6000EACF1F93CF93DF93282F30E0F901E75A85
:102A7000FD4F8491F901E155FD4FD491F901EB5FD0
:102A8000FC4FC491CC23A9F0162F81110E948E1403
:102A9000EC2FF0E0EE0FFF1FE55AFC4FA591B4912B
:102AA0008FB7F894EC91111108C0D095DE23DC9318
:102AB0008FBFDF91CF911F910895DE2BF8CFE8945F
:102AC00009C097FB3EF490958095709561957F4F76
:102AD0008F4F9F4F9923A9F0F92F96E9BB27939524
:102AE000F695879577956795B795F111F8CFFAF434
:102AF000BB0F11F460FF1BC06F5F7F4F8F4F9F4F65
:102B000016C0882311F096E911C0772321F09EE8C2
:102B1000872F762F05C0662371F096E8862F70E028
:102B200060E02AF09A95660F771F881FDAF7880F02
:102B30009695879597F90895990F0008550FAA0B58
:102B4000E0E8FEEF16161706E807F907C0F01216C0
:102B50001306E407F50798F0621B730B840B950BC3
:102B600039F40A2661F0232B242B252B21F4089518
:102B70000A2609F4A140A6958FEF811D811D0895B5
:102B800097F99F6780E870E060E008959FEF80EC20
:102B9000089500240A9416161706180609060895C3
:102BA00000240A9412161306140605060895092E29
:102BB0000394000C11F4882352F0BB0F40F4BF2B98
:102BC00011F460FF04C06F5F7F4F8F4F9F4F0895D8
:102BD00057FD9058440F551F59F05F3F71F04795CE
:102BE000880F97FB991F61F09F3F79F087950895B3
:102BF000121613061406551FF2CF4695F1DF08C0D2
:102C0000161617061806991FF1CF869571056105EE
:102C100008940895E894BB2766277727CB0197F996
:102C200008950E949C1508F48FEF08950E942916BC
:102C30000C94D7150E94C91538F00E94D01520F0C9
:102C4000952311F00C94C0150C94C61511240C9406
:102C50000B160E94E81570F3959FC1F3950F50E095
:102C6000551F629FF001729FBB27F00DB11D639F3E
:102C7000AA27F00DB11DAA1F649F6627B00DA11DE4
:102C8000661F829F2227B00DA11D621F739FB00D8A
:102C9000A11D621F839FA00D611D221F749F3327FA
:102CA000A00D611D231F849F600D211D822F762F93
:102CB0006A2F11249F5750409AF0F1F088234AF070
:102CC000EE0FFF1FBB1F661F771F881F91505040DC
:102CD000A9F79E3F510580F00C94C0150C940B167B
:102CE0005F3FE4F3983ED4F3869577956795B79563
:102CF000F795E7959F5FC1F7FE2B880F911D96957D
:102D0000879597F90895A1E21A2EAA1BBB1BFD0116
:102D10000DC0AA1FBB1FEE1FFF1FA217B307E407BA
:102D2000F50720F0A21BB30BE40BF50B661F771F12
:102D3000881F991F1A9469F76095709580959095F2
:102D40009B01AC01BD01CF010895EE0FFF1F881F4D
:102D50008BBF0790F691E02D19940F931F93CF939B
:102D6000DF938230910510F482E090E0E091411809
:102D7000F091421830E020E0B0E0A0E0309799F404
:102D80002115310509F44AC0281B390B24303105BF
:102D9000D8F58A819B816115710589F1FB019383C7
:102DA0008283FE0111C04081518102811381481745
:102DB0005907E0F04817590799F4109761F01296F7
:102DC0000C93129713961C933296CF01DF91CF91FB
:102DD0001F910F9108950093411810934218F4CF5A
:102DE0002115310551F04217530738F0A901DB01D5
:102DF0009A01BD01DF01F801C1CFEF01F9CF909336
:102E0000421880934118CDCFFE01E20FF31F81934A
:102E100091932250310939832883D7CF20913F18CD
:102E200030914018232B41F420910202309103028B
:102E30003093401820933F182091000230910102F6
:102E40002115310541F42DB73EB740910402509150
:102E50000502241B350BE0913F18F0914018E21752
:102E6000F307A0F42E1B3F0B2817390778F0AC01AD
:102E70004E5F5F4F2417350748F04E0F5F1F50938A
:102E8000401840933F18819391939FCFF0E0E0E08A
:102E90009CCFCF93DF930097E9F0FC013297138228
:102EA0001282A0914118B0914218ED0130E020E06B
:102EB0001097A1F420813181820F931F20913F1838
:102EC000309140182817390709F061C0F093401875
:102ED000E0933F18DF91CF910895EA01CE17DF0705
:102EE000E8F54A815B819E0141155105B1F7E90181
:102EF000FB83EA8349915991C40FD51FEC17FD0755
:102F000061F4808191810296840F951FE901998374
:102F10008883828193819B838A83F0E0E0E012962C
:102F20008D919C9113970097B9F52D913C91119734
:102F3000CD010296820F931F20913F1830914018C7
:102F40002817390739F6309751F510924218109228
:102F50004118B0934018A0933F18BCCFD383C283CD
:102F600040815181840F951FC817D90761F44E5FC6
:102F70005F4F88819981480F591F518340838A810F
:102F80009B81938382832115310509F0B0CFF093A3
:102F90004218E09341189ECFFD01DC01C0CF13829F
:102FA0001282D7CFFB01DC010D900020E9F71197C9
:102FB00001900D920020E1F70895FC0181918617A0
:102FC00021F08823D9F7992708953197CF010895E3
:102FD000FB0151915523A9F0BF01DC014D9145172B
:102FE0004111E1F759F4CD010190002049F04D91D4
:102FF00040154111C9F3FB014111EFCF81E090E091
:10300000019708950F931F93CF93DF93CDB7DEB74A
:103010002E970FB6F894DEBF0FBECDBF0E891F8965
:1030200086E08C831A8309838FEF9FE79E838D83CD
:10303000AE01465E5F4F688D798DCE0101960E948C
:1030400032182F813885020F131FF80110822E9637
:103050000FB6F894DEBF0FBECDBFDF91CF911F91A9
:103060000F9108952F923F924F925F926F927F92AD
:103070008F929F92AF92BF92CF92DF92EF92FF9288
:103080000F931F93CF93DF9300D000D000D01F92F7
:103090001F92CDB7DEB77C013B018A01FC0117828C
:1030A0001682838181FFDDC1CE0101965C01F701AB
:1030B0009381F30193FD859193FF81913F018823D3
:1030C00009F453C1853239F493FD859193FF8191C1
:1030D0003F01853229F4B70190E00E944A1AE7CFF8
:1030E000912C212C312CFFE1F31538F08B3211F1AA
:1030F00090F4803209F1833229F137FC3CC020ED95
:10310000280F2A3050F536FE20C08AE0989E200D08
:103110001124922E06C08D3291F0803371F768949D
:1031200030F8F30193FD859193FF81913F01811167
:10313000DACF21C0689431F8689432F8F2CF6894FD
:1031400033F8EFCF689434F8ECCFEAE02E9E200DF0
:103150001124222E689435F8E4CF8E3229F436FCFF
:1031600004C1689436F8DDCF8C3619F4689437F8CA
:10317000D8CF8836B1F2982F9F7D95549330E0F0E8
:103180008336A1F18337C1F1833509F063C028018B
:10319000F2E04F0E511CF801C080D180692D70E023
:1031A00036FC02C06FEF7FEFC6010E94341A4C015B
:1031B000689437F882010AC00C5F1F4FFFE3F98360
:1031C00088248394912C6501E89437F833FE2DC050
:1031D000522C8114910471F5552009F468CFB70180
:1031E00080E290E00E944A1A5A94F6CFF80180815A
:1031F00089830E5F1F4FE4CF2801F2E04F0E511C70
:10320000F801C080D180692D70E036FC02C06FEFFC
:103210007FEFC6010E943F1A4C018201D5CFB70152
:1032200080E290E00E944A1A2A942814190409F0B6
:10323000B0F7CECFF60137FC859137FE81916F0153
:10324000B70190E00E944A1A51105A94F1E08F1A87
:103250009108BFCF843619F0893609F077C0F8019C
:1032600037FE6BC060817181828193810C5F1F4F3B
:10327000F32DFF763F2E97FF09C0909580957095AE
:1032800061957F4F8F4F9F4F689437F82AE030E069
:10329000A5010E947A1AC82ECA188C2C432C36FE1F
:1032A0000CC0E89440F8C91440F434FE05C032FC68
:1032B00003C0F32DFE7E4F2E892C44FEAAC0FE01D2
:1032C000EC0DF11D8081803309F09CC0242D297EF6
:1032D000422E842D8870582E43FCAAC040FEA4C004
:1032E0009C2C821418F42C0C922C981844FEA6C026
:1032F000B70180E390E00E944A1A42FE09C088E7C5
:1033000090E041FE02C088E590E0B7010E944A1AB1
:10331000C91408F49FC0CA94D12C9FEFC91AD90AC6
:10332000CA0CDB1CF60182916F01B70190E00E948C
:103330004A1AAC14BD04B1F74FCF60817181072EDA
:10334000000C880B990B0E5F1F4F92CFD32CE89483
:10335000D4F82AE030E08537E1F1232D297FD22E01
:103360008F36A9F1F0F4883551F1F7018681978104
:103370002B960FB6F894DEBF0FBECDBFDF91CF9175
:103380001F910F91FF90EF90DF90CF90BF90AF9083
:103390009F908F907F906F905F904F903F902F9075
:1033A0000895803749F0883701F7D4FE02C0689449
:1033B000D2F820E130E00DC06894D4F8F6CF34FEA6
:1033C00003C0822F8660D82E20E132E002C028E0C0
:1033D00030E0F801D7FE0FC0608171818281938156
:1033E0000C5F1F4FA5010E947A1AC82ECA183D2CE7
:1033F000E89437F852CF6081718190E080E00E5FF1
:103400001F4FF0CF42FC02C0839463CF8394839418
:1034100060CF842D867809F45CCFF6CFB70180E2C7
:1034200090E00E944A1A83948214C0F3512C5ECF1C
:10343000522C5818821408F459CFF8CF842D86786E
:1034400009F466CF8BE241FE80E247FC8DE2B701D2
:1034500090E05CCFB70180E390E00E944A1A9A9412
:1034600057CF8FEF9FEF84CFFC01059061507040E4
:103470000110D8F7809590958E0F9F1F0895FC013D
:103480006150704001900110D8F7809590958E0F93
:103490009F1F08950F931F93CF93DF93182F092F2A
:1034A000EB018B8181FD09C01FEF0FEF812F902F62
:1034B000DF91CF911F910F91089582FF14C02E814B
:1034C0003F818C819D81281739073CF4E881F9817F
:1034D000CF0101969983888310838E819F81019605
:1034E0009F838E83E3CFE885F985812F1995892BFA
:1034F000A1F3DACFFA01AA27283051F1203181F166
:10350000E8946F936E7F6E5F7F4F8F4F9F4FAF4FEB
:10351000B1E03ED0B4E03CD0670F781F891F9A1FFE
:10352000A11D680F791F8A1F911DA11D6A0F711DB2
:10353000811D911DA11D20D009F468943F912AE0BE
:10354000269F11243019305D3193DEF6CF010895A6
:10355000462F4770405D4193B3E00FD0C9F7F6CFD7
:10356000462F4F70405D4A3318F0495D31FD40529F
:10357000419302D0A9F7EACFB4E0A6959795879535
:1035800077956795BA95C9F7009761057105089514
:103590009B01AC010A2E06945795479537952795C0
:1035A000BA95C9F7620F731F841F951FA01D089558
:1035B000F999FECF92BD81BDF89A992780B50895FB
:1035C000262FF999FECF1FBA92BD81BD20BD0FB63F
:1035D000F894FA9AF99A0FBE01960895F894FFCFDD
:1035E000000043188000FF0141542B434153454ED6
:1035F000443D302C00000000000000002575004F05
:103600004B004552524F52003030003100390037E4
:1036100000312C22696F742E316E63652E6E6574D5
:103620002200302C414354495645000000000079E7
:10363000114613F3105911C510DF10D1100D0A00F7
:00000001FF
