:020000040000FA
:100000000C94E5010C9416020C9416020C94160242
:100010000C9416020C9416020C9416020C94160200
:100020000C9416020C9416020C9416020C941602F0
:100030000C9416020C9416020C9416020C941602E0
:100040000C9416020C9416020C9416020C941602D0
:100050000C9416020C9416020C9416020C9428149C
:100060000C9416020C9416020C9416020C941602B0
:100070000C9416020C9416020C9416020C941602A0
:100080000C9416020C9416020C9416020C94160290
:100090000C9474120C94AA120C9416020C9416026E
:1000A0000C9416020C9416020C9416020C94160270
:1000B0000C9416020C9416020C9416020C94160260
:1000C0000C9416020C9416020C9416020C940B134A
:1000D0000C9441130C9416020C9416020C94160204
:1000E0000C9416020C9434150C94B5110C9438151C
:1000F0000C946B130C94A2130C9446150C940815D5
:100100000C942D110C94D4120C9426150C941C15DF
:100110000C942A150C9442150C94D5110C944D1581
:100120000C945E110C944F110C9412150C942E1516
:100130000C944A150C943C150C9420150C94DE126A
:100140000C9416150C9421110C940E150C943B1163
:100150000C944E150C9475130C94A20741542B4328
:10016000414F50454E3D302C302C22554450222CCE
:10017000223136342E39322E3136342E3136382271
:100180002C383038300041542B434E4143543F000B
:1001900041542B434E4143543D302C310041542BAC
:1001A0004353510041542B43474E41504E0041545C
:1001B0002B434F50533F0041542B4346554E3D3146
:1001C0000041542B434744434F4E543D312C224968
:1001D00050222C22696F742E316E63652E6E657409
:1001E000220041542B4346554E3D300041542B4391
:1001F0004E4346473D302C312C22696F742E316EB0
:1002000063652E6E6574220041542B43474154545C
:100210003F0041542B47534E0041540041542B435F
:1002200041524543563D302C313436300041542B39
:10023000434153454E443D302C31390041542B430A
:1002400041524543563D302C313436300041542B19
:100250004341524543563D302C31343630004154F1
:100260002B434153454E443D302C31320041542BF9
:100270004341524543563D302C31343630004154D1
:100280002B434153454E443D302C31360000000095
:100290000A0B0C00000000000D0E0F09000000000A
:1002A0000804050600000000000011121300000001
:1002B000000000000000000000000000000000003E
:1002C000000000000000000000000000000000002E
:1002D000000000000000000000000000000000001E
:1002E00000000301020408102040800102040810ED
:1002F0002040010204081020408080081001020400
:1003000008102040800102040810204080010201F2
:1003100002040810204080010204081020400480DC
:1003200040201008040201800102040810204080CF
:10033000010204081020408020050505050505057B
:100340000508080808080808020202020202020260
:100350000807070C0C0C0C0C0C0C0C040404040413
:10036000040404070703030303030303030A0A0A3D
:100370000A0A0A0A0701010101010101010A060630
:100380000606060606060B0B0B0B0B0B0B0B0700EA
:10039000002200250028002B002E0031003400022E
:1003A000010000050108010B0100002100240027C5
:1003B000002A002D00300033000101000004010775
:1003C000010A0100A207DE12751311241FBECFEF30
:1003D000D1E2DEBFCDBF00E00CBF12E0A0E0B2E092
:1003E000E8E9F6E300E00BBF02C007900D92A238E7
:1003F000B107D9F72AE1A2E8B2E001C01D92AF34FB
:10040000B207E1F711E0C5EED1E000E006C02197A8
:100410000109802FFE010E940117C23ED10780E032
:100420000807A9F70E9419140C944A1B0C940000A9
:10043000AC01FC018FEF9FEF9F01241B350B2617AA
:100440003707BCF42191022E000C330B822793272F
:1004500028E030E0DC01A170BB2796958795AB2B97
:1004600021F0A1E08A27A0EA9A272150310991F7CB
:10047000E3CF0895DC01ED91FC910280F381E02D42
:100480001994CF9385E40E94C4149093B11680937D
:10049000B016BC01990F880B990B0E94BD152AE07C
:1004A00038E240EA5BE30E9472166093AC167093E8
:1004B000AD168093AE169093AF16C1E020E030E009
:1004C00040E050E40E946D1618160CF0C0E08C2F2E
:1004D000CF9108958F929F92AF92BF92CF92DF9269
:1004E000EF92FF926C010E9472144B015C010D2C83
:1004F000000CEE08FF080E947214681979098A0935
:100500009B096C157D058E059F05A8F3FF90EF9064
:10051000DF90CF90BF90AF909F908F9008950F93F2
:100520001F93CF93DF93CDB7DEB7A8970FB6F8949C
:10053000DEBF0FBECDBF8DE0E4E1F2E0DE015596F7
:1005400001900D928A95E1F7FE01B29687E0DF01F6
:100550001D928A95E9F78091AA169091AB160196A3
:100560009F938F938AE392E09F938F938E010F5F07
:100570001F4F1F930F930E945E18B801CE0145963E
:100580000E942E1844E150E0BE016B5E7F4F88E070
:1005900099E10E943A0288E099E10E9402148CE2FB
:1005A00091E00E946A024091AA165091AB164F5FEB
:1005B0005F4F62E177E188E099E10E943A020F9093
:1005C0000F900F900F900F900F90A8960FB6F89481
:1005D000DEBF0FBECDBFDF91CF911F910F91089568
:1005E00060E08BE20E948D158CED95E00E946A021E
:1005F00061E08BE20C948D15E0910619F0910719DA
:100600001182108208952F923F924F925F926F92C3
:100610007F928F929F92AF92BF92CF92DF92EF9292
:10062000FF920F931F93CF93DF93CDB7DEB7C351E4
:10063000DF400FB6F894DEBF0FBECDBFE0910619C4
:10064000F091071982819381582E492EC95FD04FAE
:1006500059824882C750DF4068E0662E712CB12C69
:10066000A12C912C812C8E010B53114FCD5FD04FBB
:1006700019830883C350DF407EE7472EE0E23E2E19
:10068000FFE32F2EC95FD04FC880D980C750DF400D
:10069000AC14BD0409F4F3C00091061910910719B8
:1006A000060D171DF801349750803196E080319681
:1006B0008081FE2CE82ED8011196BC91CB5FD04FE3
:1006C000B883C550DF40C52C052C000CDD08B601F1
:1006D000CE018B53914F0E943918892B09F054C0D9
:1006E000E5ECFEE0EC0FFD1FE80DF91D5082E52D55
:1006F000F42DEF02C0011124E1E0F0E0EC0FFD1F4A
:10070000E80FF91FDF01532C1D925A94E9F7FC0101
:10071000B09621E030E02C0F3D1FE20FF31FDF0108
:10072000532C1D925A94E9F7FC01E05CFF4FE20F55
:10073000F31FDF01532C1D925A94E9F7805A9F4F03
:10074000F901E80FF91FDF0150E1552E1D925A946F
:10075000E9F74C9CC0014D9C900D112421E030E044
:100760002C0F3D1F820F931FFC01E858FF4F118291
:10077000108232961182108284589F4FDC011D92A4
:100780001C92F40131964F01CB5FD04FF881C550D8
:10079000DF40F130B1F54C9CC0014D9C900D11240F
:1007A00021E030E02C0F3D1F820F931FFC01E65823
:1007B000FF4F20813181A9014F5F5F4F51834083FB
:1007C0002C9CF0012D9CF00D1124E20FF31F70966C
:1007D000EE0FFF1FA1E0B0E0AC0FBD1FEA0FFB1F43
:1007E000F182E082F8012081E80EF91EF701E05A5B
:1007F000FF4F2083BFEFAB1ABB0AE6E06E0E711C01
:1008000041CF4C9CF0014D9CF00D112421E030E0D3
:100810002C0F3D1FE20FF31FE458FF4FA081B18161
:100820009D012F5F3F4F318320832C9CF0012D9C35
:10083000F00D1124AE0FBF1FAA0FBB1F81E090E087
:100840008C0F9D1FA80FB91FED92FC92D801119734
:100850008C9190E0982F8827EE0DFF1DB096EE0F3B
:10086000FF1FA1E0B0E0AC0FBD1FEA0FFB1F91839B
:100870008083D8012C91822B91838083BBCF0E94EF
:10088000FC028E010B53114F1801CF5FD04F19831B
:100890000883C150DF408EE7F82E03EE1EE00C0FF8
:1008A0001D1F0A5F1F4FC65FD04F19830883CA50B0
:1008B000DF40CF5FD04FE881F981C150DF40019028
:1008C0000020E9F73197CF5FD04F48805980C15061
:1008D000DF40E419F509C101CD5FD04FA880B98090
:1008E000C350DF408A199B098E179F0708F0F1C299
:1008F000D101EC904E2D0E2C000C550BF49EF00106
:10090000F59EF00D112444244394512C4C0E5D1E91
:10091000E40DF51DDF01A658BF4F6D917C91119735
:100920000E2D1EE7010220011124161617068CF564
:1009300080A191A1169711969C938E93EA58FF4F30
:100940009183808381E090E06F016817790709F156
:100950009C01220F331F240D351DE1E0F0E0EC0F68
:10096000FD1F2E0F3F1FF90120A131A10D911C91F8
:1009700011972017310718F411963C932E93F60126
:10098000008111810217130710F43183208301962F
:10099000DCCFF49EF001F59EF00D1124AA24A3945F
:1009A000B12CAC0EBD1EEA0DFB1DDF01A458BF4FDC
:1009B0000D911C9111971016110694F5808191816B
:1009C0001C9711969C938E93EE58FF4F91838083D2
:1009D00081E090E05F010817190711F19C01220FD7
:1009E000331F240D351DCC24C394D12CCC0EDD1E19
:1009F0002C0D3D1DF90120813181CD90DC901197A6
:100A00002C153D0518F411963C932E93F501C080EA
:100A1000D180C216D30610F4318320830196DBCF38
:100A2000F49EC001F59E900D1124AA24A394B12C2C
:100A3000AC0EBD1E8A0D9B1DFC01E858FF4F1182B4
:100A40001082DC01AA58BF4FCD90DC901197C95F8E
:100A5000D04FD982C882C750DF4012976D907C90EA
:100A600046010FEF801A900A86189708ACEAA49FF7
:100A70009001A59F300D1124CB5FD04F398328837F
:100A8000C550DF409301B12CA12CC05FD04F99839A
:100A90008883C051DF40CB5FD04F08811981C5509A
:100AA000DF400E571D4FCE5ED04F19830883C251D1
:100AB000DF408A149B0409F496C010E000E090E047
:100AC00080E0C75FD04F1882C950DF40C05FD04F71
:100AD000C880D980C051DF40C20ED31ED601A05AB3
:100AE000BF4FC45FD04FB983A883CC50DF40CE5EE8
:100AF000D04FC880D980C251DF40C20ED31ED6016C
:100B0000A456BF4FC25FD04FB983A883CE50DF40F9
:100B1000061717070CF042C0D801AA0FBB1FA40D7F
:100B2000B51DCC24C394D12CCC0EDD1EAC0DBD1D47
:100B300090960D90BC91A02D2A173B0761F5C45FDC
:100B4000D04FA881B981CC50DF40BC91C75FD04F56
:100B5000B883C950DF408B2B6C010A2C02C0CC0C2F
:100B6000DD1C0A94E2F7A081B181AC29BD29B183D3
:100B7000A083C75FD04FC880C950DF40C25FD04F4D
:100B8000A881B981CE50DF40CC92A1E0C75FD04FA1
:100B9000A883C950DF400F5F1F4FBACFC75FD04F48
:100BA000B881C950DF40B11118C0CB5FD04FA881C8
:100BB000B981C550DF40A20FB31FA25EBC4FAC91FC
:100BC0008A2B0A2C02C0880F991F0A94E2F7A08191
:100BD000B1818A2B9B2B918380830FEFA01AB00ADF
:100BE0002F5F3F4F66CF161617060CF073C088E1D3
:100BF000C65FD04FA881B981CA50DF401D928A9547
:100C0000E9F7CD51D14FE882C35EDE408FE0CC5191
:100C1000D14F8883C45EDE40CB51D14F7882C55E10
:100C2000DE40CA51D14F6882C65EDE40C951D14F05
:100C30009882C75EDE40C95FD04F8881C750DF40D1
:100C40008F5F8619C851D14F8883C85EDE40F49EFD
:100C5000F001F59EF00D112444244394512C4C0EC8
:100C60005D1EE40DF51DE858FF4F8081918109E07C
:100C70008016910408F402C122E0C751D14F2883A5
:100C8000C95EDE40C651D14F8883CA5EDE40C55181
:100C9000D14F9883CB5EDE4009E010E0B801CE0171
:100CA0008D51914F0E941802E3EEFEE0EC0FFD1F04
:100CB000E00FF11F80839183A8014E5F5F4FBE015B
:100CC0006D51714F85EA99E10E943A028CE291E000
:100CD0000E946A02D1011D911D01612F012E000C9D
:100CE000770BF69E9001F79E300D1124E1E0F0E0C5
:100CF000EC0FFD1F2E0F3F1FD901A458BF4F4D9081
:100D00005C90CB5FD04F59824882C550DF401414AD
:100D100015040CF0CECD88E1C65FD04FA881B98113
:100D2000CA50DF401D928A95E9F7CD51D14F188303
:100D3000C35EDE4080E1CC51D14F8883C45EDE408B
:100D4000C90180599F4FFC0180819181CB51D14FC6
:100D50009883C55EDE40CA51D14F8883C65EDE40AF
:100D60002E583F4FD9014D915C919A012F5F3F4F13
:100D7000281B390BC951D14F3883C75EDE404F5F06
:100D8000481BC851D14F4883C85EDE40422F440FF4
:100D9000C751D14F4883C95EDE40BF2D1B024001C1
:100DA00011243C01E6E51E02600C711C1124660C46
:100DB000771C50E040E007E010E0EFE3E69F6001C1
:100DC000E79FD00C11244217530709F465C070E067
:100DD00060E0E12CF601E80FF91FB096EE0FFF1F5F
:100DE00044244394512C4C0E5D1EE40DF51D5B0113
:100DF000AA0CBB1CA80CB91CA1E0B0E0AC0FBD1F35
:100E0000AA0EBB1ED501AD90BC90A816B90691F4F0
:100E1000E0805180A3EEAA2EAEE0BA2EAC0EBD1E2D
:100E2000A00EB11ED5015C921196EC920E5F1F4F81
:100E3000EE24E3946F5F7F4FCB5FD04F48805980A3
:100E4000C550DF404616570691F6E11013C0FA016F
:100E5000EE0FFF1FE60DF71DE250FD4F608171811F
:100E6000E3EEFEE0EC0FFD1FE00FF11F70836183E6
:100E70000E5F1F4F4F5F5F4F0196A5CF91E0C751A7
:100E8000D14F9883C95EDE40C651D14F8883CA5E78
:100E9000DE4008E010E002CFB801CE018D51914F45
:100EA0000E941802E3EEFEE0EC0FFD1FE00FF11FC1
:100EB00080839183A8014E5F5F4FBE016D51714FDA
:100EC00085EA99E10E943A028CE291E00E946A026E
:100ED000F0CC1092B3161092B216CD5ED04F0FB672
:100EE000F894DEBF0FBECDBFDF91CF911F910F9160
:100EF000FF90EF90DF90CF90BF90AF909F908F903A
:100F00007F906F905F904F903F902F900895E0EE0C
:100F1000F6E182E3DF011D928A95E9F7089530E05A
:100F200020E02417350754F4DC01ED91FD91CD014B
:100F3000E617F70729F02F5F3F4FF3CF80E00895C2
:100F400081E0089588EE93E00E94091790930719B5
:100F50008093061908950F931F93CF93DF938CE22C
:100F600091E00E946A0285EA99E10E942111892B91
:100F700099F085EA99E10E9421118C01C0EED6E139
:100F8000CE01805E9641801791076CF785EA99E162
:100F90000E943B118993F4CFDF91CF911F910F9164
:100FA00008952F923F924F925F926F927F928F920D
:100FB0009F92AF92BF92CF92DF92EF92FF920F93E8
:100FC0001F93CF93DF93CDB7DEB7CC5AD5400FB682
:100FD000F894DEBF0FBECDBF8091B41681116EC1F3
:100FE000E5EBF6E18EE1DF011D928A95E9F7E091EC
:100FF0000619F091071982819381F82FE92FC555C1
:10100000DA4FF983E883CB5AD54004E0E02EF12C87
:10101000D12CC12CB12CA12C8CEA282EC555DA4F2D
:1010200028813981CB5AD540C216D30609F4ABC00A
:10103000E0910619F0910719EE0DFF1D30808181B6
:101040004280582E3381C755DA4F3883C95AD5406C
:1010500084816580782E032D032C000C110BC801B0
:101060000E94341B681621F0662DC8010E943C1BAB
:1010700048014FEF841A940AC4010E94341B781669
:1010800021F0672DC4010E943C1BB80185EB96E15D
:101090000E943918892BA9F5F501EB54F94E3082DD
:1010A000209EC001219E900D11248E579D4FFC0162
:1010B000E858FF4F1182108286589F4FDC011D9225
:1010C0001C92B32DE0E3BE02C0011124E1E0F0E088
:1010D000EC0FFD1FE80FF91FDF0120E21D922A959A
:1010E000E9F78096E1E0F0E0EC0FFD1FE80FF91F53
:1010F000DF0120E11D922A95E9F7A5014F5F5F4FBF
:101100005A01C755DA4F5881C95AD540209ED0019F
:10111000219EB00D11245130F9F4A650BD4F8D9190
:101120009C9111979C012F5F3F4F2D933C93A6E517
:10113000A09FF001A19FF00D1124E80FF91FEE0F01
:10114000FF1FEE55FD4F51824082EFEFCE1ADE0AAF
:10115000F6E0EF0EF11C62CFA450BD4F8D919C9133
:1011600011979C012F5F3F4F2D933C93B6E5B09FA5
:10117000F001B19FF00D1124E80FF91FEE0FFF1FD2
:10118000EE57FD4FE0CF0E94FC0265EB76E15B017C
:10119000ACEA9A2ED5010D900020E9F7CD01865BCF
:1011A00096419B01255B36412817390708F086C018
:1011B000FB018191BF01082E000C990B989E7001D4
:1011C000999EF00C1124F701EE57FD4FDF01A8584E
:1011D000BF4F0D911C9111971016110674F520A1A7
:1011E00031A1D49711963C932E93EA5BFF4F318344
:1011F000208321E030E03F0102171307F1F0A9013D
:10120000440F551F4E0D5F1D4E575D4FFA0140A113
:1012100051A1CD90DC9011974C155D0518F41196F5
:101220005C934E93F301C080D180C416D50610F4B0
:10123000518340832F5F3F4FDFCF989EA001999E3F
:10124000500D1124FA01EE57FD4FDF01A658BF4F94
:101250000D911C911197101611060CF09BCF8081F7
:101260009181DA9711969C938E93EE5BFF4F918359
:10127000808321E030E06F010217130709F48ACF61
:10128000C901880F991F840F951F8E579D4FFC0130
:1012900080819181ED90FC9011978E159F0518F437
:1012A00011969C938E93F601E080F180E816F90682
:1012B00010F4918380832F5F3F4FDECF81E08093D6
:1012C000B41605EB16E128016CEA762E71EA872E3A
:1012D00075E0972E8C0E9D1EF6E08F0E911CE0E3BC
:1012E0006E2EAA24A394B12CD2010D900020E9F710
:1012F000CD01865B96419801255B36412817390759
:1013000008F029C1F8012081372D2303C0011124E1
:101310008E579D4FFC01E858FF4F408151811416B4
:1013200015060CF08CC0D4011D921C92CF55DA4FDB
:101330002883C15AD54022E0CE55DA4F2883C25ABD
:10134000D540F49720813181CD55DA4F3883C35A87
:10135000D540CC55DA4F2883C45AD5408A5B9F4F7D
:10136000FC0180819181AC014F5F5F4F421B530BA9
:10137000CB55DA4F5883C55AD5408F5F821BCA556B
:10138000DA4F8883C65AD54066E070E0CE018F55AB
:101390009A4F0E941802C955DA4F8883C75AD54020
:1013A000C855DA4F9883C85AD54048E050E0BE018E
:1013B0006F557A4F85EA99E10E943A020E94AB0785
:1013C0006091E21670E07B0153E0EE0CFF1C5A9531
:1013D000E1F7E0EEF6E1CF01805E964186179707D0
:1013E00074F5D380D8014C9190E080E0262D420323
:1013F000A0011124A1E0B0E0AC0FBD1F4A0F5B1F9C
:101400002D2CDD0C33088E159F05BCF46A01C80E27
:10141000D91E9501082E02C0220F331F0A94E2F74D
:1014200022213321082E02C0359527950A94E2F730
:10143000D60190962C930196E6CF3196CCCFF80149
:101440002081372D2303C00111248E579D4FFC01AD
:10145000E658FF4F40815181141615060CF074C0F8
:10146000D4011D921C92CF55DA4F2883C15AD54022
:1014700023E0CE55DA4F2883C25AD540FA9720810F
:101480003181CD55DA4F3883C35AD540CC55DA4F28
:101490002883C45AD5408E5B9F4FFC018081918187
:1014A000AC014F5F5F4F421B530BCB55DA4F588354
:1014B000C55AD5408F5F821BCA55DA4F8883C65AFA
:1014C000D54066E070E0CE018F559A4F0E94180219
:1014D000C955DA4F8883C75AD540C855DA4F988323
:1014E000C85AD54048E050E0BE016F557A4F85EAB2
:1014F00099E10E943A020E94AB078091E21686951C
:1015000090E0A0EEB6E130E020E068E11296281706
:101510003907D4F4F80140814603F0011124E20FA9
:10152000F31FEE0FFF1F41E050E04C0F5D1FE40F73
:10153000F51F11965C91119712964C911297518359
:1015400040832F5F3F4FE2CF8CE291E00E946A021E
:101550000F5F1F4FC9CE0E9487078CE090E09093E9
:10156000AB168093AA16809112028F5F80931202AD
:10157000E2E1F7E124EF31E0DF01A9011D924150E2
:101580005040E1F78F01E6EDF6E1AF01DA010D9091
:101590000020E9F79D01275D3641BF01665D764178
:1015A0006217730728F49191D8019D938D01EECFB6
:1015B00080931A1781E080931B1785EB882E86E1B4
:1015C000982EF12CE12C512CE5EBF6E10190002056
:1015D000E9F7CF01865B96419401255B36412817D8
:1015E000390708F0EFC0D4014D904D01C42C042CF4
:1015F000000CDD08BCEABC9D9001BD9D300D11249E
:10160000C9018E579D4FFC01E858FF4FA080B18063
:101610001A141B040CF067C0F49700811181F901C2
:10162000EE55FD4FC755DA4FF983E883C95AD540C7
:101630008A5B9F4FDC018D919C91FC013196C555D1
:10164000DA4FF983E883CB5AD540F42D40E3F40216
:1016500030011124601A710A1901201A310AC55586
:10166000DA4F88819981CB5AD54080179107D9F1FB
:10167000A501B801C755DA4F88819981C95AD5406B
:101680000E948F07882351F1F801E60DF71DA1E0B4
:10169000B0E0AC0FBD1FEA0FFB1F20A1D101A00FCE
:1016A000B11FA653BD4F9C91582E2917C9F08091A8
:1016B000AA169091AB16FC01EE5EF84E40821183A3
:1016C0000283138205969093AB168093AA16248307
:1016D0002C93BFEFEB1AFB0A512C02C05520C9F323
:1016E0000F5F1F4FBCCFECEAEC9D8001ED9D100D0C
:1016F00011240E571D4FF801E658FF4F608071808E
:10170000161417040CF060CFFA97C080D18032967F
:1017100020803180FFEF2F1A3F0A342D20E3320260
:1017200090011124C755DA4F39832883C95AD5400F
:10173000B12CA12CC214D30409F446CFA301B601E5
:10174000C8010E948F078823A1F1C755DA4FE881AD
:10175000F981C95AD540EA0DFB1D41E050E04C0F1C
:101760005D1FE40FF51F20813181D501A85ABF4FBD
:10177000A00FB11F4D915C911197582E241735077A
:10178000D1F08091AA169091AB16FC01EE5EF84E56
:101790004082D182C282338305969093AB168093A8
:1017A000AA1624832D933C935FEFE51AF50A512C7A
:1017B00002C05520C9F38FEFC81AD80A92E0A90ECB
:1017C000B11CB8CF1E141F04E4F5F0921C17E09270
:1017D0001D170091AA161091AB16B80182E197E18E
:1017E0000E941802F801EE5EF84E90830F5F1F4FC3
:1017F0001093AB160093AA160E5E184E8095D80172
:101800008C9381E090E09093B3168093B216C45508
:10181000DA4F0FB6F894DEBF0FBECDBFDF91CF9188
:101820001F910F91FF90EF90DF90CF90BF90AF90FE
:101830009F908F907F906F905F904F903F902F90F0
:1018400008958AE090E09093AB168093AA161092C8
:101850001B176AE070E082E197E10E941802909302
:101860001C172BE030E03093AB162093AA16809320
:101870001D17C7CF0F931F93CF93DF930E946A0268
:1018800088E099E10E942111892BB9F088E099E163
:101890000E9421118C01D0E0C0E0C017D1076CF488
:1018A00088E099E10E943B11E0910619F091071937
:1018B000EC0FFD1F80832196F0CF6DE372E08091E5
:1018C0000619909107190E944418EC010E94FC022D
:1018D00081E0CD2B09F480E0DF91CF911F910F9132
:1018E00008950F931F93CF93DF9384EF91E00E94AD
:1018F0006A0288E099E10E942111892BB9F088E001
:1019000099E10E9421118C01D0E0C0E0C017D107FD
:1019100084F788E099E10E943B11E0910619F0916B
:101920000719EC0FFD1F80832196F0CFDF91CF9137
:101930001F910F9108956F927F928F929F92AF9215
:10194000BF92CF92DF92EF92FF920F931F93CF93AC
:10195000DF933C016B010E9472144B015C01D0E0EB
:10196000C0E0F12CE12C0E94710C0091061910913D
:101970000719B301C8010E944418892B09F464C0F7
:1019800061E081E40E948D158DE790E00E946A027B
:1019900060E081E40E948D158DE790E00E946A026C
:1019A00061E081E40E948D158DE790E00E946A025B
:1019B00060E081E40E948D158DE790E00E946A024C
:1019C00011E0C1E0D0E00E947214681979098A0917
:1019D0009B09C616D706E806F90618F561E082E409
:1019E0000E948D158DE790E00E946A0260E082E41B
:1019F0000E948D158DE790E00E946A0261E082E40A
:101A00000E948D158DE790E00E946A0260E082E4FA
:101A10000E948D158DE790E00E946A02D0E0C0E040
:101A200003C0112309F49FCFCE01DF91CF911F9105
:101A30000F91FF90EF90DF90CF90BF90AF909F906D
:101A40008F907F906F90089560E472E0C8010E94CB
:101A5000441810E0892B09F4B6CF61E080E40E94BD
:101A60008D158DE790E00E946A0260E080E40E949C
:101A70008D158DE790E00E946A0261E080E40E948B
:101A80008D158DE790E00E946A0260E080E40E947C
:101A90008D158DE790E00E946A0211E0C2E0D0E06F
:101AA00092CF1F93CF93DF93C5E0D0E011E069E1BF
:101AB00072E088E099E10E9406148CE291E00E94B5
:101AC0003A0C811110E0219791F7811102C00E9418
:101AD000F0021111E9CF0E94FC0262E172E088E09D
:101AE00099E10E94061460E177E28DE392E00E94A2
:101AF0009B0CC0910619D0910719FE01A7EDB6E124
:101B000030E020E02115310521F489858053809350
:101B1000D6162F5F3F4F82858295807F93859053A5
:101B2000892B8D9332962730310561F70E94FC0294
:101B300068E072E088E099E10E94061460E177E2D3
:101B400086E492E00E949B0C0E94FC026CEE71E025
:101B500088E099E10E94061460E177E28DE392E06B
:101B60000E949B0C019751F162EE71E088E099E1CF
:101B70000E94061460E177E28DE392E00E949B0CE4
:101B80000E94FC0261EC71E088E099E10E94061479
:101B900060E177E28DE392E00E949B0C0E94FC02E0
:101BA00067EB71E088E099E10E94061460E177E25A
:101BB0008DE392E00E949B0C0E94FC020E94FC02BA
:101BC0006EEA71E088E099E10E94061468E873E12A
:101BD0008AE692E00E949B0C019731F068E873E17D
:101BE00088E492E00E949B0C0E94FC0264EA71E08F
:101BF00088E099E10E94061460E177E28AE492E0CD
:101C00000E949B0C0E94FC026DE971E088E099E162
:101C10000E94061460E177E28DE392E00E949B0C43
:101C2000E0910619F091071987818093D31680857A
:101C30008093D4160E94FC0260E971E088E099E18B
:101C40000E94061460E177E289E592E00E949B0C15
:101C50000E94FC0266E871E088E099E10E940614A7
:101C600060E177E28DE392E00E949B0C0E94FC020F
:101C70006CE571E088E099E10E94061460E177E28A
:101C800082E692E00E949B0CDF91CF911F910C9411
:101C9000FC02CF92DF92EF92FF920F931F93CF93AC
:101CA000DF93CDB7DEB7C85ED3400FB6F894DEBF82
:101CB0000FBECDBF8CE291E00E946A028E010F5FE1
:101CC0001F4F88E099E10E942111009709F042C05E
:101CD000F801AF01401B510B21912C32D1F72A851D
:101CE0002053330B4430510509F049C06B856053D4
:101CF000770BE4E6E69FA001E79F500D1124E8EE84
:101D0000F3E02E9FB0012F9F700D3E9F700D1124A8
:101D10009A01260F371F4C85FAE04F9F200D311D89
:101D20001124205E31404D85240F311D205331098F
:101D3000EEE0F0E0E00FF11F821793070CF051C0C6
:101D40004191A0910619B0910719A80FB91F4C93A2
:101D50000196F2CF88E099E10E9421116C0178018F
:101D6000C701801B910B8C159D050CF0AACF88E054
:101D700099E10E943B11F70181937F01F1CF43303C
:101D80005105D1F46B856053770BEAE0E69FA00123
:101D9000E79F500D1124E4E6E29FB001E39F700D30
:101DA0001124460F571F2C85240F352F311D20532A
:101DB0003109EDE0F0E0BECFEBE0F0E0423051055C
:101DC00009F0B8CF6AE0629FA001639F500D112413
:101DD0002B85240F352F311D20533109ECE0F0E025
:101DE000A9CFC851DC4F0FB6F894DEBF0FBECDBFF0
:101DF000DF91CF911F910F91FF90EF90DF90CF90E7
:101E00000895EF92FF920F931F93CF93DF93CDB777
:101E1000DEB7E5970FB6F894DEBF0FBECDBF80E802
:101E2000809361001092610026E040E855E260E096
:101E300070E088E099E10E94221226E040E855E235
:101E400060E070E085EA99E10E94221261E08AE296
:101E50000E94511561E08BE20E94511561E082E41D
:101E60000E94511561E081E40E94511561E080E417
:101E70000E94511560E083E40E94511560E082E405
:101E80000E948D1560E081E40E948D1560E080E481
:101E90000E948D1561E08BE20E948D1560E08AE260
:101EA0000E948D1588EB9BE00E946A020E94510DF2
:101EB000809112028F5F809312029E012F5F3F4F2D
:101EC0007901A6EDB6E18901AD01FA01019000208A
:101ED000E9F79F01275D3641BD01665D76416217D6
:101EE000730728F49D91F70191937F01EECF8987C5
:101EF00082E08A871B8681E08C871D868E876EE054
:101F000070E0C8010E9418029F876EE070E0C8016F
:101F10000E941802888B6EE772E088E099E10E94C7
:101F2000061488EC90E00E946A020E94FC0244E1E0
:101F300050E0B80188E099E10E943A0260E177E25E
:101F40008DE392E00E949B0C0E94FC026DE672E021
:101F500088E099E10E94061460E177E289E692E068
:101F60000E949B0C0E94FC02809112028F5F809362
:101F700012027E01F7E2EF0EF11CA6EDB6E1870139
:101F8000AD01FA0101900020E9F79F01275D36417C
:101F9000BD01665D76416217730728F49D91F701D4
:101FA00091937F01EECF8FA783E088AB6AE070E06A
:101FB000C8010E94180299AB6AE070E0C8010E9453
:101FC00018028AAB6EE572E088E099E10E9406147F
:101FD00084EF91E00E946A020E94FC024FE050E010
:101FE000B80188E099E10E943A0260E177E28DE36E
:101FF00092E00E949B0C0E94FC026DE472E088E07B
:1020000099E10E9406140E94490E0E94FC0282E19E
:10201000E8E2F2E0DE01559601900D928A95E1F733
:10202000DE01559690E080E02D91E0910619F09147
:102030000719E80FF91F2083019682319105A1F756
:10204000E5960FB6F894DEBF0FBECDBFDF91CF91FE
:102050001F910F91FF90EF900895EF92FF920F93D1
:102060001F93CF93DF93CDB7DEB764970FB6F89485
:10207000DEBF0FBECDBF8091B2169091B3168130F6
:10208000910509F443C0CCF4892BE9F10E94410287
:10209000811106C083E090E09093B3168093B2164E
:1020A00064960FB6F894DEBF0FBECDBFDF91CF911F
:1020B0001F910F91FF90EF9008958230910509F4E0
:1020C00081C0039719F7809112028F5F80931202EB
:1020D0009E012F5F3F4F7901A6EDB6E18901AD0169
:1020E000FA0101900020E9F79F01275D3641BD010B
:1020F000665D76416217730708F067C09D91F7012E
:1021000091937F01EDCF0E94D107C0CF88EE93E07D
:102110000E946A020E948F026CE372E088E099E1FB
:102120000E9406140E94490E0E94FC028091120235
:10213000809306026AE070E086E092E00E94180256
:10214000909310026AE070E086E092E00E9418022C
:1021500080931102A6E0B2E090E080E02D91E09142
:102160000619F0910719E80FF91F208301968C30AA
:102170009105A1F7E0910619F091071990818091DE
:10218000120298131CC08181811105C01092B316F0
:102190001092B2167BCF813039F482E090E09093B8
:1021A000B3168093B21672CF823081F3833019F464
:1021B0001092B416EBCF843009F068CFE7CF81E0FE
:1021C00090E0EDCF0E94030361CF898781E08A8789
:1021D0001B868C871D861E868F87188A898B61E1F6
:1021E00070E0C8010E9418029A8B61E170E0C8019A
:1021F0000E9418028B8B6DE272E088E099E10E94E8
:10220000061484EF91E00E946A020E94FC0243E1FE
:1022100050E0B80188E099E10E943A0268EE73E06C
:102220008DE392E00E949B0C6CE172E088E099E102
:102230000E94061468EE73E086E692E00E949B0C12
:1022400025CFFC01918D228D892F90E0805C9F4FDE
:10225000821B91098F7399270895FC01918D828DBE
:10226000981731F0828DE80FF11D858D90E008956B
:102270008FEF9FEF0895FC01918D828D981761F08B
:10228000A28DAE0FBF2FB11D5D968C91928D9F5F79
:102290009F73928F90E008958FEF9FEF0895FC0158
:1022A000538D448D252F30E0842F90E0821B930BBB
:1022B000541710F0CF9608950197089580E090E0AC
:1022C000892B49F080E090E0892B29F00E940000E2
:1022D00081110E94000084ED92E1892B49F080E099
:1022E00090E0892B29F00E94D41281110E940000F5
:1022F0008BE693E1892B49F080E090E0892B29F06F
:102300000E946B1381110E94000080E090E0892BF5
:1023100049F080E090E0892B29F00E9400008111B3
:102320000C9400000895FC01A48DA80FB92FB11DD5
:10233000A35ABF4F2C91848D90E001968F739927FB
:10234000848FA689B7892C93A089B1898C918370D9
:1023500080648C93938D848D981306C00288F389D2
:10236000E02D80818F7D80830895CF93DF93EC01F2
:10237000888D8823B9F0AA89BB89E889F9898C916D
:1023800085FD03C0808186FD0DC00FB607FCF7CF29
:102390008C9185FFF2CF808185FFEDCFCE010E9429
:1023A0009311E9CFDF91CF910895EF92FF920F93B0
:1023B0001F93CF93DF93EC0181E0888F9B8D8C8DF1
:1023C00098131AC0E889F989808185FF15C09FB7E5
:1023D000F894EE89FF896083E889F98980818370A8
:1023E000806480839FBF81E090E0DF91CF911F9157
:1023F0000F91FF90EF900895F62E0B8D10E00F5F78
:102400001F4F0F731127E02E8C8D8E110CC00FB64D
:1024100007FCFACFE889F989808185FFF5CFCE01E5
:102420000E949311F1CFEB8DEC0FFD2FF11DE35ABC
:10243000FF4FF0829FB7F8940B8FEA89FB89808168
:102440008062CFCFCF92DF92EF92FF921F93CF9314
:10245000DF93EC016A017B01122F60E874E88EE1E2
:1024600090E0A70196010E94DF1621503109410931
:1024700051095695479537952795E889F98982E05E
:102480008083211580E1380798F0E889F989108266
:1024900060E472E48FE090E0A70196010E94DF16ED
:1024A000215031094109510956954795379527958E
:1024B000EC85FD853083EE85FF852083188EEC89C1
:1024C000FD891083EA89FB89808188698083EA8994
:1024D000FB8980818F7D8083DF91CF911F91FF9059
:1024E000EF90DF90CF9008951F920F920FB60F924A
:1024F00011240BB60F922F938F939F93EF93FF931B
:10250000E0911819F09119198081E0911E19F0914C
:102510001F1982FD1DC09081809121198F5F8F73DB
:1025200020912219821741F0E0912119F0E0E85F33
:10253000F64E958F80932119FF91EF919F918F9186
:102540002F910F900BBE0F900FBE0F901F901895FC
:102550008081F2CF1F920F920FB60F9211240BB60B
:102560000F922F933F934F935F936F937F938F932C
:102570009F93AF93BF93EF93FF9388E099E10E94FD
:102580009311FF91EF91BF91AF919F918F917F91A7
:102590006F915F914F913F912F910F900BBE0F90D4
:1025A0000FBE0F901F90189588E099E10E942111AD
:1025B00021E0892B09F420E0822F0895E8E0F9E179
:1025C0001382128288EE93E0A0E0B0E084839583CA
:1025D000A683B78380E792E0918380838DEC90E0BF
:1025E000958784878CEC90E09787868788EC90E0CD
:1025F000918B808B89EC90E0938B828B8AEC90E0BE
:10260000958B848B8EEC90E0978B868B118E128E3F
:10261000138E148E08951F920F920FB60F921124ED
:102620000BB60F922F938F939F93EF93FF93E091AD
:10263000B519F091B6198081E091BB19F091BC19E0
:1026400082FD1DC090818091BE198F5F8F73209194
:10265000BF19821741F0E091BE19F0E0EB55F64E3C
:10266000958F8093BE19FF91EF919F918F912F913C
:102670000F900BBE0F900FBE0F901F90189580818A
:10268000F2CF1F920F920FB60F9211240BB60F923A
:102690002F933F934F935F936F937F938F939F936A
:1026A000AF93BF93EF93FF9385EA99E10E94931153
:1026B000FF91EF91BF91AF919F918F917F916F911A
:1026C0005F914F913F912F910F900BBE0F900FBED6
:1026D0000F901F90189585EA99E10E94211121E041
:1026E000892B09F420E0822F0895E5EAF9E11382AD
:1026F000128288EE93E0A0E0B0E084839583A68305
:10270000B78380E792E09183808385ED90E09587A1
:10271000848784ED90E09787868780ED90E0918BA9
:10272000808B81ED90E0938B828B82ED90E0958B96
:10273000848B86ED90E0978B868B118E128E138E94
:10274000148E0895AF92BF92CF92DF92EF92FF92D4
:102750000F931F93CF93DF936C017B018B01040FC9
:10276000151FEB015E01AE18BF08C017D10759F065
:102770006991D601ED91FC910190F081E02DC601A7
:102780001995892B79F7C501DF91CF911F910F9191
:10279000FF90EF90DF90CF90BF90AF900895FB0136
:1027A00001900020E9F73197AF01461B570BDC0180
:1027B000ED91FC910280F381E02D1994EF92FF924C
:1027C0000F931F93CF93DF938C017B01D0E0C0E088
:1027D000F701EC0FFD1F6491662361F0D801ED91C4
:1027E000FC910190F081E02DC8011995892B11F021
:1027F0002196EECFCE01DF91CF911F910F91FF90E7
:10280000EF9008956EE772E00C94CF130F931F932F
:10281000CF93DF93EC010E94DE138C01CE010E9466
:102820000214800F911FDF91CF911F910F91089596
:1028300008950E947E140E9418140E94010FCEE594
:10284000D1E10E942D102097E1F30E945E11F9CF93
:102850001F920F920FB60F9211242F933F938F93D5
:102860009F93AF93BF938091471A9091481AA0917C
:10287000491AB0914A1A3091461A26E0230F2D3793
:1028800068F129E8230F0396A11DB11D2093461A74
:102890008093471A9093481AA093491AB0934A1A02
:1028A0008091421A9091431AA091441AB091451A0E
:1028B0000196A11DB11D8093421A9093431AA093D3
:1028C000441AB093451ABF91AF919F918F913F9158
:1028D0002F910F900FBE0F901F9018950296A11D7B
:1028E000B11DD4CF2FB7F8946091471A7091481A50
:1028F0008091491A90914A1A2FBF0895789484B50F
:10290000836084BD85B5836085BDEEE6F0E080819F
:1029100081608083E1E8F0E082E0808380818160F3
:102920008083E0E8F0E0808181608083E1EBF0E08B
:10293000808184608083E0EBF0E08081816080832F
:10294000E1E9F0E0808183608083E0E9F0E080816C
:1029500081608083E1EAF0E0808183608083E0EA47
:10296000F0E0808181608083E1E2F1E0808183603A
:102970008083E0E2F1E080818160808386E880935B
:102980007A001092C1000895803120F0843408F458
:1029900084E4855420917B00982F9870277F922B98
:1029A00090937B002091130290E4299F90011124C1
:1029B0008770822B80937C0080917A008064809362
:1029C0007A0080917A0086FDFCCF8091780090910A
:1029D000790008958250823108F05FC0E82FF0E05E
:1029E0008827EA50FB4E8F4F0C9401174A154E155D
:1029F00008150E1512154D1516151C152015261542
:102A00002A152E15341538154D153C154215461549
:102A1000809180008F77809380000895809180005E
:102A20008F7DF9CF80918000877FF5CF8091B000B6
:102A30008F778093B00008958091B0008F7DF9CF9B
:102A4000809190008F7780939000089580919000FE
:102A50008F7DF9CF80919000877FF5CF8091A00086
:102A60008F778093A00008958091A0008F7DF9CF8B
:102A70008091A000877FF5CF809120018F77809390
:102A800020010895809120018F7DF9CF8091200150
:102A9000877FF5CF84B58F7784BD089584B58F7D0A
:102AA000FBCFCF93DF9390E0FC01ED51FD4F2491DC
:102AB000875C9C4FFC0184918823C9F090E0880FCB
:102AC000991FFC01E755FC4FA591B491FC01E1571A
:102AD000FC4FC591D49161110DC09FB7F8948C91B2
:102AE000209582238C938881282328839FBFDF91A0
:102AF000CF910895623051F49FB7F8943C91822FA2
:102B0000809583238C93E8812E2BEFCF8FB7F89499
:102B1000EC912E2B2C938FBFEACF1F93CF93DF9393
:102B2000282F30E0F901E357FD4F8491F901ED5171
:102B3000FD4FD491F901E75CFC4FC491CC23A9F07F
:102B4000162F81110E94EA14EC2FF0E0EE0FFF1F08
:102B5000E157FC4FA591B4918FB7F894EC91111106
:102B600008C0D095DE23DC938FBFDF91CF911F91FA
:102B70000895DE2BF8CFE89409C097FB3EF49095BA
:102B80008095709561957F4F8F4F9F4F9923A9F046
:102B9000F92F96E9BB279395F695879577956795D5
:102BA000B795F111F8CFFAF4BB0F11F460FF1BC019
:102BB0006F5F7F4F8F4F9F4F16C0882311F096E9AC
:102BC00011C0772321F09EE8872F762F05C066235A
:102BD00071F096E8862F70E060E02AF09A95660F13
:102BE000771F881FDAF7880F9695879597F90895CC
:102BF000990F0008550FAA0BE0E8FEEF161617060E
:102C0000E807F907C0F012161306E407F50798F075
:102C1000621B730B840B950B39F40A2661F0232B8E
:102C2000242B252B21F408950A2609F4A140A6950A
:102C30008FEF811D811D089597F99F6780E870E0EF
:102C400060E008959FEF80EC089500240A94161622
:102C5000170618060906089500240A94121613068A
:102C6000140605060895092E0394000C11F4882318
:102C700052F0BB0F40F4BF2B11F460FF04C06F5F34
:102C80007F4F8F4F9F4F089557FD9058440F551F0A
:102C900059F05F3F71F04795880F97FB991F61F0DE
:102CA0009F3F79F087950895121613061406551F55
:102CB000F2CF4695F1DF08C0161617061806991FC1
:102CC000F1CF86957105610508940895E894BB27B6
:102CD00066277727CB0197F908950E94F81508F425
:102CE0008FEF08950E9485160C9433160E942516C6
:102CF00038F00E942C1620F0952311F00C941C162D
:102D00000C94221611240C9467160E94441670F33A
:102D1000959FC1F3950F50E0551F629FF001729F80
:102D2000BB27F00DB11D639FAA27F00DB11DAA1F8F
:102D3000649F6627B00DA11D661F829F2227B00DDC
:102D4000A11D621F739FB00DA11D621F839FA00D67
:102D5000611D221F749F3327A00D611D231F849FB7
:102D6000600D211D822F762F6A2F11249F5750400E
:102D70009AF0F1F088234AF0EE0FFF1FBB1F661F89
:102D8000771F881F91505040A9F79E3F510580F052
:102D90000C941C160C9467165F3FE4F3983ED4F332
:102DA000869577956795B795F795E7959F5FC1F7F6
:102DB000FE2B880F911D9695879597F90895A1E2AE
:102DC0001A2EAA1BBB1BFD010DC0AA1FBB1FEE1FA5
:102DD000FF1FA217B307E407F50720F0A21BB30BF0
:102DE000E40BF50B661F771F881F991F1A9469F76C
:102DF00060957095809590959B01AC01BD01CF01C8
:102E00000895EE0FFF1F881F8BBF0790F691E02DEE
:102E100019940F931F93CF93DF938230910510F491
:102E200082E090E0E0914D1AF0914E1A30E020E0FF
:102E3000B0E0A0E0309799F42115310509F44AC0BB
:102E4000281B390B24303105D8F58A819B81611507
:102E5000710589F1FB0193838283FE0111C04081DA
:102E600051810281138148175907E0F0481759072B
:102E700099F4109761F012960C93129713961C9385
:102E80003296CF01DF91CF911F910F91089500935A
:102E90004D1A10934E1AF4CF2115310551F04217F7
:102EA000530738F0A901DB019A01BD01DF01F801E8
:102EB000C1CFEF01F9CF90934E1A80934D1ACDCF29
:102EC000FE01E20FF31F8193919322503109398360
:102ED0002883D7CF20914B1A30914C1A232B41F4E1
:102EE000209102023091030230934C1A20934B1A26
:102EF00020910002309101022115310541F42DB7D6
:102F00003EB74091040250910502241B350BE0911D
:102F10004B1AF0914C1AE217F307A0F42E1B3F0B4B
:102F20002817390778F0AC014E5F5F4F241735073B
:102F300048F04E0F5F1F50934C1A40934B1A8193E9
:102F400091939FCFF0E0E0E09CCFCF93DF93009789
:102F5000E9F0FC01329713821282A0914D1AB091D0
:102F60004E1AED0130E020E01097A1F4208131816C
:102F7000820F931F20914B1A30914C1A2817390752
:102F800009F061C0F0934C1AE0934B1ADF91CF9196
:102F90000895EA01CE17DF07E8F54A815B819E01BB
:102FA00041155105B1F7E901FB83EA834991599134
:102FB000C40FD51FEC17FD0761F480819181029643
:102FC000840F951FE90199838883828193819B8374
:102FD0008A83F0E0E0E012968D919C911397009720
:102FE000B9F52D913C911197CD010296820F931F57
:102FF00020914B1A30914C1A2817390739F630971F
:1030000051F510924E1A10924D1AB0934C1AA0938B
:103010004B1ABCCFD383C28340815181840F951F4B
:10302000C817D90761F44E5F5F4F88819981480FB7
:10303000591F518340838A819B8193838283211509
:10304000310509F0B0CFF0934E1AE0934D1A9ECFA0
:10305000FD01DC01C0CF13821282D7CFFB01DC015E
:103060000D900020E9F7119701900D920020E1F7F3
:103070000895FC018191861721F08823D9F79927BB
:1030800008953197CF010895FB0151915523A9F07F
:10309000BF01DC014D9145174111E1F759F4CD0114
:1030A0000190002049F04D9140154111C9F3FB01F9
:1030B0004111EFCF81E090E0019708950F931F93A6
:1030C000CF93DF93CDB7DEB72E970FB6F894DEBF60
:1030D0000FBECDBF0E891F8986E08C831A830983BA
:1030E0008FEF9FE79E838D83AE01465E5F4F688DB5
:1030F000798DCE0101960E948E182F813885020F9E
:10310000131FF80110822E960FB6F894DEBF0FBE83
:10311000CDBFDF91CF911F910F9108952F923F92D4
:103120004F925F926F927F928F929F92AF92BF92D7
:10313000CF92DF92EF92FF920F931F93CF93DF9383
:1031400000D000D000D01F921F92CDB7DEB77C0117
:103150003B018A01FC0117821682838181FFDDC158
:10316000CE0101965C01F7019381F30193FD8591F6
:1031700093FF81913F01882309F453C1853239F4CB
:1031800093FD859193FF81913F01853229F4B70129
:1031900090E00E94A61AE7CF912C212C312CFFE160
:1031A000F31538F08B3211F190F4803209F183324B
:1031B00029F137FC3CC020ED280F2A3050F536FEAF
:1031C00020C08AE0989E200D1124922E06C08D32D8
:1031D00091F0803371F7689430F8F30193FD859195
:1031E00093FF81913F018111DACF21C0689431F8BA
:1031F000689432F8F2CF689433F8EFCF689434F8DB
:10320000ECCFEAE02E9E200D1124222E689435F892
:10321000E4CF8E3229F436FC04C1689436F8DDCF51
:103220008C3619F4689437F8D8CF8836B1F2982FD5
:103230009F7D95549330E0F08336A1F18337C1F13F
:10324000833509F063C02801F2E04F0E511CF801EC
:10325000C080D180692D70E036FC02C06FEF7FEF37
:10326000C6010E94901A4C01689437F882010AC086
:103270000C5F1F4FFFE3F98388248394912C650131
:10328000E89437F833FE2DC0522C8114910471F567
:10329000552009F468CFB70180E290E00E94A61A99
:1032A0005A94F6CFF801808189830E5F1F4FE4CFD7
:1032B0002801F2E04F0E511CF801C080D180692D29
:1032C00070E036FC02C06FEF7FEFC6010E949B1AD0
:1032D0004C018201D5CFB70180E290E00E94A61A8E
:1032E0002A942814190409F0B0F7CECFF60137FC60
:1032F000859137FE81916F01B70190E00E94A61A77
:1033000051105A94F1E08F1A9108BFCF843619F00A
:10331000893609F077C0F80137FE6BC06081718192
:10332000828193810C5F1F4FF32DFF763F2E97FF15
:1033300009C090958095709561957F4F8F4F9F4FF5
:10334000689437F82AE030E0A5010E94D61AC82E0A
:10335000CA188C2C432C36FE0CC0E89440F8C914D3
:1033600040F434FE05C032FC03C0F32DFE7E4F2E28
:10337000892C44FEAAC0FE01EC0DF11D8081803332
:1033800009F09CC0242D297E422E842D8870582E51
:1033900043FCAAC040FEA4C09C2C821418F42C0C40
:1033A000922C981844FEA6C0B70180E390E00E94DA
:1033B000A61A42FE09C088E790E041FE02C088E5F7
:1033C00090E0B7010E94A61AC91408F49FC0CA94DD
:1033D000D12C9FEFC91AD90ACA0CDB1CF6018291C5
:1033E0006F01B70190E00E94A61AAC14BD04B1F7BA
:1033F0004FCF60817181072E000C880B990B0E5FF7
:103400001F4F92CFD32CE894D4F82AE030E08537D0
:10341000E1F1232D297FD22E8F36A9F1F0F48835E2
:1034200051F1F701868197812B960FB6F894DEBF94
:103430000FBECDBFDF91CF911F910F91FF90EF9005
:10344000DF90CF90BF90AF909F908F907F906F90C4
:103450005F904F903F902F900895803749F08837C4
:1034600001F7D4FE02C06894D2F820E130E00DC02C
:103470006894D4F8F6CF34FE03C0822F8660D82E2D
:1034800020E132E002C028E030E0F801D7FE0FC0B2
:1034900060817181828193810C5F1F4FA5010E9421
:1034A000D61AC82ECA183D2CE89437F852CF60813E
:1034B000718190E080E00E5F1F4FF0CF42FC02C0B0
:1034C000839463CF8394839460CF842D867809F4AA
:1034D0005CCFF6CFB70180E290E00E94A61A8394F9
:1034E0008214C0F3512C5ECF522C5818821408F469
:1034F00059CFF8CF842D867809F466CF8BE241FE50
:1035000080E247FC8DE2B70190E05CCFB70180E339
:1035100090E00E94A61A9A9457CF8FEF9FEF84CF26
:10352000FC010590615070400110D8F7809590958E
:103530008E0F9F1F0895FC01615070400190011093
:10354000D8F7809590958E0F9F1F08950F931F9326
:10355000CF93DF93182F092FEB018B8181FD09C0D9
:103560001FEF0FEF812F902FDF91CF911F910F91C0
:10357000089582FF14C02E813F818C819D81281780
:1035800039073CF4E881F981CF010196998388835A
:1035900010838E819F8101969F838E83E3CFE88580
:1035A000F985812F1995892BA1F3DACFFA01AA2782
:1035B000283051F1203181F1E8946F936E7F6E5F76
:1035C0007F4F8F4F9F4FAF4FB1E03ED0B4E03CD024
:1035D000670F781F891F9A1FA11D680F791F8A1F07
:1035E000911DA11D6A0F711D811D911DA11D20D06E
:1035F00009F468943F912AE0269F11243019305D28
:103600003193DEF6CF010895462F4770405D419318
:10361000B3E00FD0C9F7F6CF462F4F70405D4A3365
:1036200018F0495D31FD4052419302D0A9F7EACF2D
:10363000B4E0A6959795879577956795BA95C9F75C
:1036400000976105710508959B01AC010A2E06944F
:103650005795479537952795BA95C9F7620F731F08
:10366000841F951FA01D0895F999FECF92BD81BDBD
:10367000F89A992780B50895262FF999FECF1FBA99
:1036800092BD81BD20BD0FB6F894FA9AF99A0FBE8B
:1036900001960895F894FFCF00004F1A80000001B2
:1036A00000010200000001010000FF0141542B4312
:1036B0004153454E443D302C000000000000000006
:1036C00001030002020000010000010000020000EE
:1036D000656F2575004F4B004552524F5200310027
:1036E000370022696F742E316E63652E6E65742209
:1036F00000302C41435449564500302C30003030C6
:103700000034390000000000D511A2134F11B5118B
:0A37100021113B112D110D0A0000DC
:020000040003F7
:10FC000002C0F4C03CC1112484B790E89093610015
:10FC100010926100882369F0982F9A70923049F011
:10FC200081FF02C097EF94BF282E80E002D10C9490
:10FC3000000085E08093810082E08093C00088E12D
:10FC40008093C10080E18093C40086E08093C2006D
:10FC50008EE0EFD0279A84E028E13EEF91E03093E8
:10FC600085002093840096BBB09BFECF1F9AA89579
:10FC70004091C00047FD02C0815089F7CED0813449
:10FC800079F4CBD0C82FDBD0C23811F480E004C0A7
:10FC900088E0C13809F083E0B9D080E1B7D0EECF79
:10FCA000823419F484E1D3D0F8CF853411F485E09F
:10FCB000FACF853581F4B1D0E82EAFD0F82E87FF8A
:10FCC00007C08BB781608BBFEE0CFF1CB8D0E5CFAF
:10FCD0008BB78E7FF8CF863579F49FD08D3451F471
:10FCE0009CD0CBB79AD0C170880F8C2B8BBF81E092
:10FCF000AED0CCCF83E0FCCF843609F046C08DD0A7
:10FD0000C82FD0E0DC2FCC2788D0C82B86D0D82EA7
:10FD10005E018EEFB81A00E012E04801EFEF8E1A94
:10FD20009E0A7BD0F801808384018A149B04A9F782
:10FD300086D0F5E410E000E0DF1609F150E040E085
:10FD400063E0C70153D08701C12C92E0D92EF601A0
:10FD5000419151916F0161E0C80148D00E5F1F4F82
:10FD60002297A9F750E040E065E0C7013FD095CF6A
:10FD70006081C8018E0D9F1D01D10F5F1F4FF801DB
:10FD8000FE5FC017D107A1F788CF843701F545D0B2
:10FD9000C82FD0E0DC2FCC2740D0C82B3ED0D82EA7
:10FDA0004ED08701F5E4DF120BC0CE0DDF1DC80178
:10FDB000DDD02CD00F5F1F4FC017D107C1F76DCF1B
:10FDC000F80187918F0122D02197D1F766CF85372F
:10FDD00039F435D08EE11AD088E918D081E05CCFB3
:10FDE000813509F073CF88E024D070CFFC010A017F
:10FDF00067BFE895112407B600FCFDCF667029F0B7
:10FE0000452B19F481E187BFE89508959091C000D2
:10FE100095FFFCCF8093C60008958091C00087FFB6
:10FE2000FCCF8091C00084FD01C0A8958091C600E0
:10FE30000895E0E6F0E098E1908380830895EDDF97
:10FE4000803219F088E0F5DFFFCF84E1DFCFCF9378
:10FE5000C82FE3DFC150E9F7CF91F1CFCF92DF9206
:10FE6000EF92FF92DC01CB01642F6D01EE24FF24A1
:10FE7000CBBEA901FF90EF90DF90CF90B7CF2F922C
:10FE80003F924F925F926F927F928F929F92AF922A
:10FE9000BF92CF92DF92EF92FF920F931F93CF9377
:10FEA000DF9300D0CDB7DEB71801E9826B017C018A
:10FEB00010E000E029013A014C185D086E087F0847
:10FEC00046015701840C951CA61CB71C021513058E
:10FED00031F489818823A1F188E0ABDFFFCF30E0E6
:10FEE00020E043E0C701B601B9DF80E890E09B83E2
:10FEF0008A83ABBEF40127913691C501B401641920
:10FF000075098609970941E0A9DF8A819B810197DC
:10FF10009B838A8392E0890E911CA11CB11C8A816B
:10FF20009B81892B31F730E020E045E0C701B60125
:10FF300095DF9FEFD91AE90AF90A0F5F1F4FC0CF6B
:10FF40000F900F900F90DF91CF911F910F91FF9025
:10FF5000EF90DF90CF90BF90AF909F908F907F9069
:10FF60006F905F904F903F902F900895F999FECF3A
:10FF700092BD81BDF89A992780B50895262FF999E9
:10FF8000FECF1FBA92BD81BD20BD0FB6F894FA9A7C
:08FF9000F99A0FBE01960895D5
:02FFFE000008F9
:00000001FF
