:100000000C9465010C9496010C9496010C94960145
:100010000C9496010C9496010C9496010C94960104
:100020000C9496010C9496010C9496010C949601F4
:100030000C9496010C9496010C9496010C949601E4
:100040000C9496010C9496010C9496010C949601D4
:100050000C9496010C9496010C9496010C94B104A6
:100060000C9496010C94CD050C94A3050C94960168
:100070000C9496010C9496010C9496010C949601A4
:100080000C9496010C9496010C9496010C94960194
:100090000C9479050C944F050C9496010C949601E0
:1000A0000C9496010C9496010C9496010C94960174
:1000B0000C9496010C9496010C9496010C94960164
:1000C0000C9496010C9496010C9496010C94960154
:1000D0000C9496010C9496010C9425050C94FB0449
:1000E0000C9496010C94A7030C940A020C94000340
:1000F0000C942A020C9426020C940E020C943402E6
:100100000C94FC010C941C020C945A030C943C02B9
:100110000C94EC020C94F7050C9404020C94380235
:100120000C9430020C94DD020C94EA010C94E5016D
:100130000C9418020C9400020C9414020C94970274
:100140000C9422020C940E0341542B544553543DFD
:1001500052584C52504B540041542B544553543D2B
:1001600052464346472C3836382C534631322C31D0
:1001700032352C382C382C32322C4F4E2C4F4646F0
:100180002C4F46460041542B4D4F44453D5445535A
:10019000540000002100240027002A002D00300018
:1001A000330001010000040107010A0100002200E0
:1001B000250028002B002E00310034000201000031
:1001C000050108010B0105050505050505050808DC
:1001D00008080808080202020202020202080707D1
:1001E0000C0C0C0C0C0C0C0C04040404040404048F
:1001F000070703030303030303030A0A0A0A0A0A9D
:100200000A0701010101010101010A0606060606AD
:100210000606060B0B0B0B0B0B0B0B07010204085E
:100220001020408001020408102040010204081040
:100230002040808008100102040810204080010244
:1002400004081020408001020102040810204080B0
:10025000010204081020400480402010080402011C
:100260008001020408102040800102040810204090
:1002700080200000000A0B0C00000000000D0E0F93
:10028000090000000008040506000000000000113D
:100290001213000000000000000000000000000039
:1002A000000000000000000000000000000000004E
:1002B000000000000000000000000000000000003E
:1002C0000000000000000003F70511241FBECFEF5F
:1002D000D1E2DEBFCDBF00E00CBF12E0A0E0B2E093
:1002E000E4E6FEE000E00BBF02C007900D92A631ED
:1002F000B107D9F725E0A6E1B2E001C01D92A63F03
:10030000B207E1F711E0C5E6D1E000E006C02197B1
:100310000109802FFE010E942807C436D10780E022
:100320000807A9F70E9470060C9430070C9400008F
:10033000FC01A089B18982E08C93A485B5851C92CB
:10034000A685B78587E68C93108EA489B58986E04B
:100350008C93A289B3898C9188698C930288F389E4
:10036000E02D80818F7D80830895282F30E0F90172
:10037000EE58FD4F9491F901E45EFD4F44912A53EC
:100380003E4FF9012491222309F435C0992311F13C
:1003900092509231F8F4E92FF0E08827ED52FE4FA9
:1003A0008F4F0C94280738023C02E501FC01000243
:1003B000EA0104020A020E02140218021C022202BE
:1003C0002602EA012A0230023402809180008F77EF
:1003D00080938000E22FF0E0EE0FFF1FE455FE4F08
:1003E000A591B4918FB7F894EC91611148C04095F4
:1003F0004E234C938FBF0895809180008F7DE8CF6E
:1004000080918000877FE4CF8091B0008F778093C8
:10041000B000E0CF8091B0008F7DF9CF8091900047
:100420008F7780939000D6CF809190008F7DF9CF09
:1004300080919000877FF5CF8091A0008F77809387
:10044000A000C8CF8091A0008F7DF9CF8091A0003F
:10045000877FF5CF809120018F7780932001BACFDD
:10046000809120018F7DF9CF80912001877FF5CF8A
:1004700084B58F7784BDAECF84B58F7DFBCF4E2BF7
:10048000B8CFCF93DF9390E0FC01E45EFD4F249161
:100490008A539E4FFC0184918823D1F090E0880F0D
:1004A000991FFC01EE56FE4FA591B491FC01E45555
:1004B000FE4FC591D49161110EC09FB7F8948C91F5
:1004C000E22FE0958E238C932881E223E8839FBF5F
:1004D000DF91CF9108958FB7F894EC91E22BEC93D4
:1004E0008FBFF6CF3FB7F89480911B0490911C0406
:1004F000A0911D04B0911E0426B5A89B05C02F3FF6
:1005000019F00196A11DB11D3FBFBA2FA92F982F39
:100510008827BC01CD01620F711D811D911D43E033
:10052000660F771F881F991F4A95D1F70895AF92DC
:10053000BF92CF92DF92EF92FF920F931F93CF93D0
:10054000DF936C017B018B01040F151FEB015E0132
:10055000AE18BF08C017D10759F06991D601ED91C7
:10056000FC910190F081E02DC6011995892B79F756
:10057000C501DF91CF911F910F91FF90EF90DF9018
:10058000CF90BF90AF900895FC01A089B1898C9164
:10059000A689B78982FD0FC09C91818D8F5F8F7373
:1005A000228D821749F0A18DAE0FBF2FB11D5D9630
:1005B0009C93818F08958C910895FC01538D448DF7
:1005C000252F30E0842F90E0821B930B541710F0FE
:1005D000CF96089501970895FC01918D828D98170B
:1005E00061F0A28DAE0FBF2FB11D5D968C91928DE3
:1005F0009F5F9F73928F90E008958FEF9FEF089514
:10060000FC01918D828D981731F0828DE80FF11DDC
:10061000858D90E008958FEF9FEF0895FC01918DF7
:10062000228D892F90E0805C9F4F821B91098F73F0
:10063000992708958FE194E00E940E0321E0892B11
:1006400009F420E0822F08958CEB94E00E940E03C1
:1006500021E0892B09F420E0822F089589E595E0B7
:100660000E940E0321E0892B09F420E0822F0895D7
:10067000FC01A48DA80FB92FB11DA35ABF4F2C9117
:10068000848D90E001968F739927848FA689B7890E
:100690002C93A089B1898C91837080648C93938D05
:1006A000848D981306C00288F389E02D80818F7DA8
:1006B00080830895EF92FF920F931F93CF93DF9360
:1006C000EC0181E0888F9B8D8C8D98131AC0E8898E
:1006D000F989808185FF15C09FB7F894EE89FF895D
:1006E0006083E889F98980818370806480839FBFFB
:1006F00081E090E0DF91CF911F910F91FF90EF90FB
:100700000895F62E0B8D10E00F5F1F4F0F7311270A
:10071000E02E8C8D8E110CC00FB607FCFACFE88945
:10072000F989808185FFF5CFCE010E943803F1CF92
:10073000EB8DEC0FFD2FF11DE35AFF4FF0829FB7B9
:10074000F8940B8FEA89FB8980818062CFCFCF93A9
:10075000DF93EC01888D8823B9F0AA89BB89E889E9
:10076000F9898C9185FD03C0808186FD0DC00FB68F
:1007700007FCF7CF8C9185FFF2CF808185FFEDCF0D
:10078000CE010E943803E9CFDF91CF91089580E038
:1007900090E0892B29F00E942E0381110E94000015
:1007A00080E090E0892B29F00E94240381110E94AF
:1007B000000080E090E0892B49F080E090E0892BF8
:1007C00029F00E94000081110E94000080E090E06A
:1007D000892B29F00E941A0381110C9400000895BE
:1007E0000F931F934FB7F8940091170410911804BA
:1007F0002091190430911A044FBF092E000CAA0B46
:10080000BB0BEFB7F8944091170450911804609116
:10081000190470911A04EFBF401B510B620B730B4C
:10082000481759076A077B0760F31F910F910895D6
:1008300042E050E062E172E00C9497020F931F9344
:10084000CF93DF938C01D0E0C0E0F801EC0FFD1FE7
:100850006491662341F08FE194E00E945A03892B52
:1008600011F02196F2CF8FE194E00E9418048C0FD2
:100870009D1FDF91CF911F910F9108958F929F92AD
:10088000AF92BF92CF92DF92EF92FF92CF93DF931E
:100890008CE291E00E94F0038FE194E00E940E034D
:1008A000892B09F441C08FE194E00E94EC02682F8B
:1008B00089E595E00E945A030E9472024B015C0197
:1008C0008AE0C82ED12CE12CF12C0E94720268190A
:1008D00079098A099B09683E734081059105A8F34F
:1008E00021E0C21AD108E108F10888EE880E83E001
:1008F000981EA11CB11CC114D104E104F10429F714
:100900008FE194E00E940E037C01C6E1D2E0CE01AB
:10091000865192408E159F050CF0BECF8FE194E07A
:100920000E94EC028993F3CF46E152E0FA01019074
:100930000020E9F7AF014751524066E172E089E5D6
:1009400095E00E94970289E595E0DF91CF91FF90B5
:10095000EF90DF90CF90BF90AF909F908F900C94CE
:1009600018041F920F920FB60F9211242F933F93EA
:100970008F939F93AF93BF93809117049091180426
:10098000A0911904B0911A043091160426E0230FA7
:100990002D3768F129E8230F0396A11DB11D20937F
:1009A00016048093170490931804A0931904B0932D
:1009B0001A0480911B0490911C04A0911D04B09115
:1009C0001E040196A11DB11D80931B0490931C046D
:1009D000A0931D04B0931E04BF91AF919F918F917E
:1009E0003F912F910F900FBE0F901F901895029678
:1009F000A11DB11DD4CF1F920F920FB60F921124DB
:100A00000BB60F922F933F934F935F936F937F9308
:100A10008F939F93AF93BF93EF93FF938FE194E0F6
:100A20000E943803FF91EF91BF91AF919F918F91F9
:100A30007F916F915F914F913F912F910F900BBEDE
:100A40000F900FBE0F901F9018951F920F920FB628
:100A50000F9211240BB60F922F933F934F935F93F6
:100A60006F937F938F939F93AF93BF93EF93FF9376
:100A70008FE194E00E94C402FF91EF91BF91AF918A
:100A80009F918F917F916F915F914F913F912F91A6
:100A90000F900BBE0F900FBE0F901F9018951F92D6
:100AA0000F920FB60F9211240BB60F922F933F9314
:100AB0004F935F936F937F938F939F93AF93BF9366
:100AC000EF93FF938CEB94E00E943803FF91EF913A
:100AD000BF91AF919F918F917F916F915F914F9156
:100AE0003F912F910F900BBE0F900FBE0F901F9054
:100AF00018951F920F920FB60F9211240BB60F92FA
:100B00002F933F934F935F936F937F938F939F9315
:100B1000AF93BF93EF93FF938CEB94E00E94C402DA
:100B2000FF91EF91BF91AF919F918F917F916F91C5
:100B30005F914F913F912F910F900BBE0F900FBE81
:100B40000F901F9018951F920F920FB60F921124BD
:100B50000BB60F922F933F934F935F936F937F93B7
:100B60008F939F93AF93BF93EF93FF9389E595E0A6
:100B70000E943803FF91EF91BF91AF919F918F91A8
:100B80007F916F915F914F913F912F910F900BBE8D
:100B90000F900FBE0F901F9018951F920F920FB6D7
:100BA0000F9211240BB60F922F933F934F935F93A5
:100BB0006F937F938F939F93AF93BF93EF93FF9325
:100BC00089E595E00E94C402FF91EF91BF91AF913A
:100BD0009F918F917F916F915F914F913F912F9155
:100BE0000F900BBE0F900FBE0F901F901895EFE166
:100BF000F4E01382128248EE53E060E070E0448338
:100C000055836683778384E092E09183808325E334
:100C100031E03587248724E331E03787268720E3D6
:100C200031E0318B208B21E331E0338B228B22E3C7
:100C300031E0358B248B26E331E0378B268B118E08
:100C4000128E138E148EECEBF4E013821282448326
:100C5000558366837783918380832DEC30E03587DD
:100C600024872CEC30E03787268728EC30E0318B66
:100C7000208B29EC30E0338B228B2AEC30E0358B53
:100C8000248B2EEC30E0378B268B118E128E138E38
:100C9000148EE9E5F5E0138212824483558366835E
:100CA00077839183808385EC90E09587848784ECBB
:100CB00090E09787868780EC90E0918B808B81EC29
:100CC00090E0938B828B82EC90E0958B848B86EC0A
:100CD00090E0978B868B118E128E138E148E089552
:100CE000789484B5836084BD85B5836085BD80912B
:100CF0006E00816080936E0082E08093810080911D
:100D00008100816080938100809180008160809368
:100D100080008091B10084608093B1008091B00028
:100D200081608093B00080919100836080939100F6
:100D3000809190008160809390008091A1008360F9
:100D40008093A1008091A00081608093A000809199
:100D50002101836080932101809120018160809333
:100D6000200186E880937A001092C10080E8809389
:100D700061001092610089E595E00E9498018CEB7A
:100D800094E00E9498018FE194E00E94980161E054
:100D90008AE20E94410261E08BE20E94410261E02E
:100DA00082E40E94410261E081E40E94410261E02C
:100DB00080E40E94410260E083E40E94410261E01D
:100DC00082E40E94B50161E080E40E94B50161E027
:100DD00081E40E94B50161E08BE20E94B50160E010
:100DE0008AE20E94B50185E891E00E941E040E94FB
:100DF0003E048CE291E00E94F00388E591E00E94BD
:100E00001E040E943E0488E491E00E941E040E9499
:100E10003E04E6E1F2E080E092E0DF019C011D92F9
:100E200021503040E1F78FE194E00E940E03892BBE
:100E300021F060E082E40E94B50184EF91E00E941D
:100E4000F00361E082E40E94B5010E94C703EBCF8A
:100E5000EE0FFF1F881F8BBF0790F691E02D1994AE
:040E6000F894FFCF34
:100E6400000000005A039702DD02A7030E03EC0200
:060E740000030D0A00005E
:00000001FF
