:100000000C9465010C9496010C9496010C94960145
:100010000C9496010C9496010C9496010C94960104
:100020000C9496010C9496010C9496010C949601F4
:100030000C9496010C9496010C9496010C949601E4
:100040000C9496010C9496010C9496010C949601D4
:100050000C9496010C9496010C9496010C94420415
:100060000C9496010C9416050C94EC040C949601D7
:100070000C9496010C9496010C9496010C949601A4
:100080000C9496010C9496010C9496010C94960194
:100090000C9496010C9496010C9496010C94960184
:1000A0000C9496010C9496010C9496010C94960174
:1000B0000C9496010C9496010C9496010C94960164
:1000C0000C9496010C9496010C9496010C94960154
:1000D0000C9496010C9496010C94B6040C948C0428
:1000E0000C9496010C9499030C94E7010C944C0524
:1000F0000C94D9020C94F7010C940A030C94170287
:100100000C9413020C9405020C94C8010C94FB018E
:100110000C94FC020C94DF010C94FF010C94090276
:100120000C94E3010C941B020C94F1010C944C030D
:100130000C941F020C94CD010C94E8020C94AC02B8
:100140000C940D020C94ED0141542B544553543D35
:1001500052584C52504B540041542B544553543D2B
:1001600052464346472C3836382C534631322C31D0
:1001700032352C382C382C32322C4F4E2C4F4646F0
:100180002C4F46460041542B4D4F44453D5445535A
:10019000540000002100240027002A002D00300018
:1001A000330001010000040107010A0100002200E0
:1001B000250028002B002E00310034000201000031
:1001C000050108010B0105050505050505050808DC
:1001D00008080808080202020202020202080707D1
:1001E0000C0C0C0C0C0C0C0C04040404040404048F
:1001F000070703030303030303030A0A0A0A0A0A9D
:100200000A0701010101010101010A0606060606AD
:100210000606060B0B0B0B0B0B0B0B07010204085E
:100220001020408001020408102040010204081040
:100230002040808008100102040810204080010244
:1002400004081020408001020102040810204080B0
:10025000010204081020400480402010080402011C
:100260008001020408102040800102040810204090
:1002700080200000000A0B0C00000000000D0E0F93
:10028000090000000008040506000000000000113D
:100290001213000000000000000000000000000039
:1002A000000000000000000000000000000000004E
:1002B000000000000000000000000000000000003E
:1002C00000000000000000034C0511241FBECFEF0A
:1002D000D1E2DEBFCDBF00E00CBF12E0A0E0B2E093
:1002E000EAE8FDE000E00BBF02C007900D92A631E6
:1002F000B107D9F727E0A6E1B2E001C01D92A3340F
:10030000B207E1F711E0C5E6D1E000E006C02197B1
:100310000109802FFE010E94BB06C436D10780E090
:100320000807A9F70E949F050C94C3060C940000CF
:10033000282F30E0F901EE58FD4F9491F901E45E69
:10034000FD4F44912A533E4FF9012491222309F491
:1003500035C0992311F192509231F8F4E92FF0E071
:100360008827EA54FE4F8F4F0C94BB061B021F02D6
:10037000C801DF01E301CD01E701ED01F101F70162
:10038000FB01FF0105020902CD010D021302170254
:10039000809180008F7780938000E22FF0E0EE0F55
:1003A000FF1FE455FE4FA591B4918FB7F894EC91DF
:1003B000611148C040954E234C938FBF08958091A2
:1003C00080008F7DE8CF80918000877FE4CF80918F
:1003D000B0008F778093B000E0CF8091B0008F7D28
:1003E000F9CF809190008F7780939000D6CF809145
:1003F00090008F7DF9CF80919000877FF5CF80911D
:10040000A0008F778093A000C8CF8091A0008F7D3F
:10041000F9CF8091A000877FF5CF809120018F7761
:1004200080932001BACF809120018F7DF9CF8091F8
:100430002001877FF5CF84B58F7784BDAECF84B59B
:100440008F7DFBCF4E2BB8CFCF93DF9390E0FC0195
:10045000E45EFD4F24918A539E4FFC0184918823D2
:10046000D1F090E0880F991FFC01EE56FE4FA59148
:10047000B491FC01E455FE4FC591D49161110EC0B9
:100480009FB7F8948C91E22FE0958E238C9328816E
:10049000E223E8839FBFDF91CF9108958FB7F8944F
:1004A000EC91E22BEC938FBFF6CF3FB7F89480919D
:1004B000050690910606A0910706B091080626B59C
:1004C000A89B05C02F3F19F00196A11DB11D3FBF8C
:1004D000BA2FA92F982F8827BC01CD01620F711D5B
:1004E000811D911D43E0660F771F881F991F4A9554
:1004F000D1F708958F929F92AF92BF92CF92DF92E1
:10050000EF92FF924B015C010E9455026B017C014E
:100510000E9455026C197D098E099F09683E73403F
:1005200081059105A8F321E0821A9108A108B1087C
:1005300088EEC80E83E0D81EE11CF11C81149104E2
:10054000A104B10429F7FF90EF90DF90CF90BF9006
:10055000AF909F908F900895AF92BF92CF92DF920D
:10056000EF92FF920F931F93CF93DF936C017B0168
:100570008B01040F151FEB015E01AE18BF08C017F9
:10058000D10759F06991D601ED91FC910190F0816C
:10059000E02DC6011995892B79F7C501DF91CF911F
:1005A0001F910F91FF90EF90DF90CF90BF90AF9091
:1005B0000895FC01538D448D252F30E0842F90E069
:1005C000821B930B541710F0CF960895019708954E
:1005D000FC01918D828D981761F0A28DAE0FBF2F17
:1005E000B11D5D968C91928D9F5F9F73928F90E06D
:1005F00008958FEF9FEF0895FC01918D828D9817DC
:1006000031F0828DE80FF11D858D90E008958FEF18
:100610009FEF0895FC01918D228D892F90E0805CE1
:100620009F4F821B91098F739927089589E096E067
:100630000E940A0321E0892B09F420E0822F08950B
:1006400086EA96E00E940A0321E0892B09F420E063
:10065000822F0895FC01A48DA80FB92FB11DA35AB4
:10066000BF4F2C91848D90E001968F739927848FD2
:10067000A689B7892C93A089B1898C9183708064F5
:100680008C93938D848D981306C00288F389E02D96
:1006900080818F7D80830895EF92FF920F931F9347
:1006A000CF93DF93EC0181E0888F9B8D8C8D981325
:1006B0001AC0E889F989808185FF15C09FB7F89431
:1006C000EE89FF896083E889F9898081837080647D
:1006D00080839FBF81E090E0DF91CF911F910F91C8
:1006E000FF90EF900895F62E0B8D10E00F5F1F4FD7
:1006F0000F731127E02E8C8D8E110CC00FB607FCE6
:10070000FACFE889F989808185FFF5CFCE010E9473
:100710002A03F1CFEB8DEC0FFD2FF11DE35AFF4FB4
:10072000F0829FB7F8940B8FEA89FB898081806201
:10073000CFCFCF93DF93EC01888D8823B9F0AA89BE
:10074000BB89E889F9898C9185FD03C0808186FD8C
:100750000DC00FB607FCF7CF8C9185FFF2CF8081DB
:1007600085FFEDCFCE010E942A03E9CFDF91CF9123
:10077000089580E090E0892B29F00E9420038111E8
:100780000E94000080E090E0892B49F080E090E03A
:10079000892B29F00E94000081110E94000080E056
:1007A00090E0892B49F080E090E0892B29F00E94AD
:1007B000000081110E94000080E090E0892B29F068
:1007C0000E94160381110C940000089542E050E04D
:1007D00062E172E00C94AC020F931F93CF93DF930E
:1007E0008C01D0E0C0E0F801EC0FFD1F649166239E
:1007F00041F089E096E00E944C03892B11F021968C
:10080000F2CF89E096E00E94E6038C0F9D1FDF91F6
:10081000CF911F910F91089564E670E080E090E021
:100820000E947A02109217021092160289E096E056
:100830000E940A03892B99F089E096E00E94E80261
:100840002091160230911702F901E85EFD4F808376
:100850002F5F3F4F3093170220931602E7CF48E1F6
:1008600052E0FA0101900020E9F7AF0149515240EE
:1008700068E172E086EA96E00E94AC0286EA96E0C1
:100880000C94E6031F920F920FB60F9211242F9330
:100890003F938F939F93AF93BF9380910106909165
:1008A0000206A0910306B09104063091000626E0EE
:1008B000230F2D3768F129E8230F0396A11DB11DE1
:1008C000209300068093010690930206A0930306EE
:1008D000B09304068091050690910606A091070644
:1008E000B09108060196A11DB11D80930506909355
:1008F0000606A0930706B0930806BF91AF919F919B
:100900008F913F912F910F900FBE0F901F901895D0
:100910000296A11DB11DD4CF1F920F920FB60F9258
:1009200011240BB60F922F933F934F935F936F93C6
:100930007F938F939F93AF93BF93EF93FF9389E040
:1009400096E00E942A03FF91EF91BF91AF919F9192
:100950008F917F916F915F914F913F912F910F9068
:100960000BBE0F900FBE0F901F9018951F920F9205
:100970000FB60F9211240BB60F922F938F939F9364
:10098000EF93FF93E0911906F0911A068081E091B0
:100990001F06F091200682FD1DC0908180912206E5
:1009A0008F5F8F7320912306821741F0E09122061A
:1009B000F0E0E75FF94F958F80932206FF91EF916A
:1009C0009F918F912F910F900BBE0F900FBE0F90A4
:1009D0001F9018958081F2CF1F920F920FB60F9241
:1009E00011240BB60F922F933F934F935F936F9306
:1009F0007F938F939F93AF93BF93EF93FF9386EA79
:100A000096E00E942A03FF91EF91BF91AF919F91D1
:100A10008F917F916F915F914F913F912F910F90A7
:100A20000BBE0F900FBE0F901F9018951F920F9244
:100A30000FB60F9211240BB60F922F938F939F93A3
:100A4000EF93FF93E091B606F091B7068081E091B5
:100A5000BC06F091BD0682FD1DC090818091BF064D
:100A60008F5F8F732091C006821741F0E091BF061F
:100A7000F0E0EA55F94F958F8093BF06FF91EF9113
:100A80009F918F912F910F900BBE0F900FBE0F90E3
:100A90001F9018958081F2CFE9E0F6E01382128270
:100AA00048EE53E060E070E04483558366837783CB
:100AB00084E092E09183808325E331E035872487C9
:100AC00024E331E03787268720E331E0318B208B28
:100AD00021E331E0338B228B22E331E0358B248B11
:100AE00026E331E0378B268B118E128E138E148EF7
:100AF000E6EAF6E0138212824483558366837783A5
:100B00009183808385EC90E09587848784EC90E0E6
:100B10009787868780EC90E0918B808B81EC90E0CA
:100B2000938B828B82EC90E0958B848B86EC90E0AB
:100B3000978B868B118E128E138E148E0895789457
:100B400084B5836084BD85B5836085BD80916E006A
:100B5000816080936E0082E080938100909181009B
:100B600091609093810090918000916090938000BB
:100B70009091B10094609093B1009091B000916019
:100B80009093B00090919100936090939100909118
:100B900090009160909390009091A1009360909349
:100BA000A1009091A00091609093A00090912101EC
:100BB0009360909321019091200191609093200186
:100BC00096E890937A001092C10090E890936100AB
:100BD00010926100E091B606F091B7068083E09133
:100BE000B206F091B3061082E091B406F091B5061A
:100BF00037E630831092BE06E091BA06F091BB064C
:100C000026E02083E091B806F091B90690819869BA
:100C10009083E091B806F091B90690819F7D908312
:100C2000E0911906F0911A068083E0911506F09183
:100C300016061082E0911706F09118063083109284
:100C40002106E0911D06F0911E062083E0911B060F
:100C5000F0911C06808188698083E0911B06F091E9
:100C60001C0680818F7D808361E08AE20E942402DD
:100C700061E08BE20E94240261E082E40E9424028F
:100C800061E081E40E94240261E080E40E94240289
:100C900060E083E40E94240261E082E40E94980103
:100CA00061E080E40E94980161E081E40E94980183
:100CB00061E08BE20E94980160E08AE20E94980164
:100CC00060ED77E080E090E00E947A0285E891E0B4
:100CD0000E94EC030E940C04C8E1D2E008EE13E08D
:100CE000FE01C80111920197E9F76CE271E080E022
:100CF00090E00E947A0288E591E00E94EC030E9455
:100D00000C04FE01C80111920197E9F76CE271E051
:100D100080E090E00E947A0288E491E00E94EC0377
:100D20000E940C04FE01C80111920197E9F760E0EE
:100D300082E40E94980189E096E00E940A03892BD0
:100D4000D1F30E940C04FE01C80111920197E9F74A
:100D500064EF71E080E090E00E947A0261E082E45A
:100D60000E94980164EF71E080E090E00E947A02B6
:100D70000E94B903DCCFEE0FFF1F881F8BBF0790C7
:0A0D8000F691E02D1994F894FFCFCE
:100D8A00000000004C03AC02D90299030A03E802EE
:060D9A00FC020D0A00003E
:00000001FF
