:100000000C9463000C948B000C948B000C94EB020A
:100010000C94EB020C94EB020C948B000C948B0070
:100020000C948B000C948B000C948B000C948B0024
:100030000C948B000C948B000C948B000C948B0014
:100040000C9449020C948B000C94B9020C9493020A
:100050000C948B000C948B000C948B000C948B00F4
:100060000C948B000C948B0000000008000201002F
:100070000003040700000000000000000000000072
:1000800023002600290000000000240027002A0089
:1000900000000000250028002B00040404040404D0
:1000A0000404020202020202030303030303010227
:1000B00004081020408001020408102001020408F6
:1000C0001020AF03E50511241FBECFEFD8E0DEBF3F
:1000D000CDBF11E0A0E0B1E0E8E2FCE002C0059095
:1000E0000D92AE32B107D9F722E0AEE2B1E001C025
:1000F0001D92A733B207E1F710E0C2E6D0E004C0DA
:100100002197FE010E940106C136D107C9F70E945E
:1001100098040C9407060C940000AF92BF92CF9203
:10012000DF92EF92FF920F931F93CF93DF936C01B7
:100130007B018B01040F151FEB015E01AE18BF0898
:10014000C017D10759F06991D601ED91FC9101904A
:10015000F081E02DC6010995892B79F7C501DF9162
:10016000CF911F910F91FF90EF90DF90CF90BF90B4
:10017000AF900895FC01538D448D252F30E0842FDE
:1001800090E0821B930B541710F0CF9608950197BF
:100190000895FC01918D828D981761F0A28DAE0FAC
:1001A000BF2FB11D5D968C91928D9F5F9F73928F33
:1001B00090E008958FEF9FEF0895FC01918D828D5F
:1001C000981731F0828DE80FF11D858D90E008952C
:1001D0008FEF9FEF0895FC01918D228D892F90E084
:1001E000805C9F4F821B91098F73992708958BE73D
:1001F00091E00E94EB0021E0892B09F420E0822F9E
:10020000089580E090E0892B29F00E94F700811189
:100210000C9400000895FC01A48DA80FB92FB11D06
:10022000A35ABF4F2C91848D90E001968F7399272C
:10023000848FA689B7892C93A089B1898C9183700A
:1002400080648C93938D848D981306C00288F38903
:10025000E02D80818F7D80830895EF92FF920F9330
:100260001F93CF93DF93EC0181E0888F9B8D8C8D62
:1002700098131AC0E889F989808185FF15C09FB756
:10028000F894EE89FF896083E889F9898081837019
:10029000806480839FBF81E090E0DF91CF911F91C8
:1002A0000F91FF90EF900895F62E0B8D10E00F5FE9
:1002B0001F4F0F731127E02E8C8D8E110CC00FB6BF
:1002C00007FCFACFE889F989808185FFF5CFCE0157
:1002D0000E940B01F1CFEB8DEC0FFD2FF11DE35AC6
:1002E000FF4FF0829FB7F8940B8FEA89FB898081DA
:1002F0008062CFCFCF93DF93EC01888D8823B9F054
:10030000AA89BB89E889F9898C9185FD03C0808120
:1003100086FD0DC00FB607FCF7CF8C9185FFF2CF9D
:10032000808185FFEDCFCE010E940B01E9CFDF91E7
:10033000CF910895209170013091710128173907EC
:1003400071F490916E0180916F01981741F0E091E6
:100350006E01F0E0E25DFE4F808190E008958FEF46
:100360009FEF08950895EF92FF920F931F93CF93FD
:10037000DF93DC015C96ED90FC905D97E114F10455
:1003800079F481E090E013969C938E93129790E01D
:1003900080E0DF91CF911F910F91FF90EF90089532
:1003A0005196ED91FC91529750968C915097982FC1
:1003B00090950FB75E962C915E97122F127021FDCB
:1003C0006095F8942081112319F1282B2083E701EF
:1003D0002197F1F728E0462F50E0308160FF1AC0E6
:1003E000382B3083E7012197F1F7BA0175956795AE
:1003F000215089F7112381F08081892380830FBFE9
:100400005C968D919C910197F1F781E090E0C1CFCE
:100410002923DCCF3923E5CF9081892BEFCF2091A1
:100420007001309171012817390761F480916F01D3
:1004300020916E0190E0805C9F4F821B91098F7329
:100440009927089590E080E00895209170013091FF
:10045000710128173907B9F490916E0180916F01ED
:10046000981789F0E0916E01F0E0E25DFE4F808127
:1004700020916E0130E02F5F3F4F2F733327209381
:100480006E0190E008958FEF9FEF089590E080E077
:1004900008951F920F920FB60F9211242F933F933E
:1004A0008F939F93AF93BF93809177019091780141
:1004B000A0917901B0917A013091760123E0230F68
:1004C0002D3758F50196A11DB11D2093760180931B
:1004D000770190937801A0937901B0937A0180918C
:1004E000720190917301A0917401B0917501019610
:1004F000A11DB11D8093720190937301A0937401AB
:10050000B0937501BF91AF919F918F913F912F91C2
:100510000F900FBE0F901F90189526E8230F02969C
:10052000A11DB11DD2CF1F920F920FB60F921124B1
:100530002F933F934F935F936F937F938F939F93EB
:10054000AF93BF93EF93FF938BE791E00E940B0172
:10055000FF91EF91BF91AF919F918F917F916F919B
:100560005F914F913F912F910F900FBE0F901F9071
:1005700018951F920F920FB60F9211242F938F93FD
:100580009F93EF93FF93E0918B01F0918C01808119
:10059000E0919101F091920182FD1BC090818091C8
:1005A00094018F5F8F7320919501821741F0E09144
:1005B0009401F0E0E558FE4F958F80939401FF91F0
:1005C000EF919F918F912F910F900FBE0F901F90E1
:1005D00018958081F4CF1F920F920FB60F921124BD
:1005E0002F933F934F935F936F937F938F939F933B
:1005F000AF93BF93EF93FF93E0917001F09171017E
:10060000309749F0A685B7858585968D91FF14C0F2
:100610009C918923A1F4FF91EF91BF91AF919F919C
:100620008F917F916F915F914F913F912F910F909B
:100630000FBE0F901F9018959C91892361F7A38995
:10064000B4899C918589809589238C938689978923
:100650000197F1F7608D718DA685B785558538E0D6
:1006600020E0CB010197F1F7822F90E095958795D7
:10067000282F4C91452309F02068315091F7868D41
:1006800081FD209580916F0190E001968F739927ED
:1006900030916E01381799F0A0916F01B0E0A25D22
:1006A000BE4F2C9380936F01828D938D0197F1F74C
:1006B000A389B4898C919589892B8C93ACCF868D35
:1006C0008160868FF1CF90E0FC01E859FF4F2491C3
:1006D000FC01E255FF4F3491FC01E656FF4FE491D7
:1006E000EE23C9F0222339F0233001F1A8F42130A0
:1006F00019F1223029F1F0E0EE0FFF1FE057FF4F14
:10070000A591B4918FB7F894EC91611126C0309502
:100710003E233C938FBF08952730A9F02830C9F0BD
:10072000243049F7809180008F7D03C08091800044
:100730008F7780938000DFCF84B58F7784BDDBCF48
:1007400084B58F7DFBCF8091B0008F778093B00010
:10075000D2CF8091B0008F7DF9CF3E2BDACF0F93AF
:100760001F93CF93DF9310927E0110927D0188EE4C
:1007700093E0A0E0B0E080937F0190938001A0938C
:100780008101B093820124E031E030937C01209319
:100790007B0125EC30E0309388012093870124EC25
:1007A00030E030938A012093890120EC30E03093CF
:1007B0008C0120938B0121EC30E030938E0120934B
:1007C0008D0122EC30E03093900120938F0126ECD4
:1007D00030E0309392012093910110929401109295
:1007E0009501109296011092970110921B0210929F
:1007F0001A0280931C0290931D02A0931E02B093D4
:100800001F0286E191E090931902809318021092E2
:100810002F0210922E02109231021092300210928A
:10082000330210923202109235021092340260911B
:1008300036026E7F6D7F609336026695617081E04F
:10084000682789E00E94630347EB50E0FA01649156
:1008500083EA90E0FC012491222399F030E0220FFA
:10086000331FF901EA57FF4FA591B491F901E05701
:10087000FF4F259134912FB7F8943C91632B6C93E3
:100880002FBFFA01449140932802FC018491E82F84
:10089000F0E0EE0FFF1FE057FF4F8591949190938A
:1008A0002A028093290206EB10E0F8012491C2EAA3
:1008B000D0E0FE0184918823C9F090E0880F991F51
:1008C000FC01EA57FF4FA591B491FC01E057FF4F9F
:1008D000459154913FB7F8949C91822F809598232D
:1008E0009C93FA019081892380833FBF80913602D7
:1008F00081FD04C061E088E00E94630388E080938A
:100900002402F801049100932502FE01C491EC2F0A
:10091000F0E0EE0FFF1FE458FF4F85919491909304
:10092000270280932602DF91CF911F910F910895A6
:10093000789484B5826084BD84B5816084BD85B5BA
:10094000826085BD85B5816085BD80916E008160C6
:1009500080936E001092810080918100826080936C
:10096000810080918100816080938100809180006E
:100970008160809380008091B10084608093B10099
:100980008091B00081608093B00080917A00846093
:1009900080937A0080917A00826080937A008091BF
:1009A0007A00816080937A0080917A0080688093D9
:1009B0007A001092C100109233021092320210920B
:1009C00031021092300210922F0210922E028DE905
:1009D00091E09093350280933402909124029631F5
:1009E00008F047C02DEB30E030932F0220932E0209
:1009F0002BE931E030933102209330022CE231E0D8
:100A000030933302209332022091680084E09830C2
:100A100048F031E09E3008F430E081E001C0880FFA
:100A20003A95EAF7822B809368002DE630E0983003
:100A300050F02BE630E09E3030F02CE630E096317E
:100A400010F030E020E030932C0220932B02292F6D
:100A500030E0983008F093C081E001C0880F9A958B
:100A6000EAF780932D02809134029091350201972C
:100A7000F1F78091320290913302892B49F1E09194
:100A80007001F091710182E0E831F80709F13097C7
:100A900039F0A389B4899C918589809589238C93A9
:100AA000809136028E7F8093360210926F011092F1
:100AB0006E0188E192E09093710180937001E09162
:100AC0002B02F0912C02808190912D02892B808342
:100AD000E0918B01F0918C0182E08083E0918701AD
:100AE000F09188011082E0918901F0918A018FECE8
:100AF000808310929301E0918F01F091900186E044
:100B00008083E0918D01F0918E01808180618083EE
:100B1000E0918D01F0918E01808188608083E09169
:100B20008D01F0918E01808180688083E0918D013C
:100B3000F0918E0180818F7D808345E050E064E2FA
:100B400071E08BE791E00E948D0042E050E06AE2A4
:100B500071E08BE791E00E948D00C0E0D0E08BE770
:100B600091E00E94EB00892BB9F08BE791E00E94A5
:100B7000C900682F88E192E00E94B301F0CF9E3057
:100B800040F42850310981E001C0880F2A95EAF726
:100B900068CF2E503109F7CF88E192E00E940F0212
:100BA000892B51F088E192E00E942502682F8BE7A3
:100BB00091E00E942D01F0CF209789F20E94F7006A
:100BC000882369F20E940000CACF86E191E09093E9
:100BD00019028093180280917001909171018851DF
:100BE000924071F4E0912B02F0912C02908180915F
:100BF0002D028095892380831092710110927001DB
:100C00000895EE0FFF1F0590F491E02D099410E078
:100C1000C2E6D0E004C0FE010E9401062196C33660
:080C2000D107C9F7F894FFCFDA
:100C2800000000002D018D00BA007A01EB00C90018
:100C3800DD0000000000B3018D004602B2010F0282
:0E0C480025029A015265616479000D0A0000D0
:00000001FF
