:100000000C946A010C94CA080C94F5080C9420090D
:100010000C944B090C9476090C94A1090C94CC090E
:100020000C94F7090C940A030C940A030C940A0329
:100030000C949B010C949B010C949B010C949B01D0
:100040000C949B010C949B010C949B010C949B01C0
:100050000C949B010C949B010C949B010C94320A10
:100060000C949B010C94F3060C9429070C949B01AF
:100070000C949B010C949B010C949B010C949B0190
:100080000C949B010C949B010C949B010C949B0180
:100090000C948A070C94C0070C949B010C949B0150
:1000A0000C949B010C949B010C949B010C949B0160
:1000B0000C949B010C949B010C94A6040C940C04CE
:1000C0000C9455050C949B010C949B010C949B0182
:1000D0000C949B010C949B010C949B010C949B0130
:1000E0000C949B010C944C0B0C945D070C94440BEA
:1000F0000C94640B0C94C6020C94720B0C94530772
:100100000C94560B0C9434060C9448020C94540630
:100110000C94EA070C9469020C9445020C94520B5F
:100120000C94600B0C94780B0C94800B0C94830B48
:100130000C947C0B0C94D4010C94A0050C94CE056B
:100140000C94480B0C94DE020C94AC050C945C0BE4
:100150000C94C9080C9421080C94BA050C94840BD7
:100160000C946A0B0C94C5020C946E0B0C94DD0578
:100170000C94F4070C94CD010C943E0B0000000A83
:100180000B0C00000000000D0E0F0900000000081D
:10019000040506000000000000111213000000001A
:1001A000000000000000000000000000000000004F
:1001B000000000000000000000000000000000003F
:1001C000000000000000000000000000000000002F
:1001D00000030102040810204080010204081020DE
:1001E0004001020408102040808008100102040829
:1001F000102040800102040810204080010201020A
:1002000004081020408001020408102040048040AF
:10021000201008040201800102040810204080011F
:100220000204081020408020050505050505050588
:10023000080808080808080202020202020202086E
:1002400007070C0C0C0C0C0C0C0C04040404040428
:100250000404070703030303030303030A0A0A0A48
:100260000A0A0A0701010101010101010A06060645
:1002700006060606060B0B0B0B0B0B0B0B07000001
:1002800020002300260029002C002F00320000014E
:1002900000000301060109010000220025002800DA
:1002A0002B002E003100340002010000050108017E
:1002B0000B0100002100240027002A002D0030003F
:1002C000330001010000040107010A01CD015D07AF
:1002D000F407D40111241FBECFEFD1E2DEBFCDBFA2
:1002E00000E00CBF12E0A0E0B2E0ECE5F8E100E0D5
:1002F0000BBF02C007900D92AA33B107D9F724E0D3
:10030000AAE3B2E001C01D92A438B207E1F711E000
:10031000C9E6D1E000E006C021970109802FFE0167
:100320000E94140CC636D10780E00807A9F70E9486
:10033000230A0C941C0C0C94000026E040E855E2C3
:1003400060E070E08EED93E00E94A10626E040E8B8
:1003500055E260E070E081E493E00C94A106AC010A
:10036000FC018FEF9FEF9F01241B350B26173707EA
:100370009CF42191822728E030E0DC01A170BB27AA
:1003800096958795AB2B21F0A1E08A27A0EA9A27C2
:100390002150310991F7E7CF089520E049E068E066
:1003A0008AE392E00C94E1038AE392E00C948603E2
:1003B0000F931F93CF93DF936CEB72E080E090E09C
:1003C0000E94A10A8EED93E00E94A005892B11F1F5
:1003D0008EED93E00E94A0058C01D0E0C0E0C01734
:1003E000D1079CF48EED93E00E94BA0540E150E005
:1003F000682F81E493E00E94C20860E172E081E42A
:1004000093E00E945D082196EACF81E493E00E9488
:100410006508D8CFDF91CF911F910F910895CF93A9
:10042000DF9300D000D01F921F92CDB7DEB7898333
:1004300085E08A837B836C834423F9F08FEF8D837F
:100440001E8266E070E0CE0101960E94AF018F83AC
:10045000988748E050E0BE016F5F7F4F8EED93E0DC
:100460000E9421080E94D80128960FB6F894DEBF9A
:100470000FBECDBFDF91CF9108951D82E1CF41E046
:1004800070E060E083E00C940F0290E080E008955B
:1004900020919B0230919C0228173907B9F4909162
:1004A000590280915A02981789F0E0915902F0E0C0
:1004B000E55AFD4F80812091590230E02F5F3F4F78
:1004C0002F7333272093590290E008958FEF9FEF09
:1004D0000895EF92FF920F931F93CF93DF93DC0168
:1004E0005C96ED90FC905D97E114F10479F481E065
:1004F00090E013969C938E93129790E080E0DF91AA
:10050000CF911F910F91FF90EF9008955196ED912B
:10051000FC91529750968C915097982F90950FB7C9
:100520005E962C915E97122F127021FD6095F894C3
:100530002081112319F1282B2083E7012197F1F75E
:1005400028E0462F50E0308160FF1AC0382B3083FE
:10055000E7012197F1F7BA0175956795215089F761
:10056000112381F08081892380830FBF5C968D9158
:100570009C910197F1F781E090E0C1CF2923DCCF76
:100580003923E5CF9081892BEFCF089520919B02ED
:1005900030919C022817390771F49091590280918B
:1005A0005A02981741F0E0915902F0E0E55AFD4FE8
:1005B000808190E008958FEF9FEF089520919B0236
:1005C00030919C022817390761F480915A022091DA
:1005D000590290E0805C9F4F821B91098F7399278D
:1005E000089590E080E00895E0919B02F0919C02D4
:1005F000E817F90769F4A389B4899C9185898095E6
:1006000089238C9310929C0210929B0281E00895A2
:1006100080E008951F920F920FB60F9211240BB62F
:100620000F922F933F934F935F936F937F938F938B
:100630009F93AF93BF93EF93FF93E0919B02F09151
:100640009C02309749F0A685B7858585968D91FFE8
:1006500016C09C918923B1F4FF91EF91BF91AF91A6
:100660009F918F917F916F915F914F913F912F91CA
:100670000F900BBE0F900FBE0F901F9018959C917E
:10068000892351F7A389B4899C9185898095892311
:100690008C93868997890197F1F7608D718DA68576
:1006A000B785558538E020E0CB010197F1F7822F1F
:1006B00090E095958795282F4C91452309F0206867
:1006C000315091F7868D81FD209580915A0290E0FE
:1006D00001968F73992730915902381799F0A0919C
:1006E0005A02B0E0A55ABD4F2C9380935A02828DD6
:1006F000938D0197F1F7A389B4898C919589892B02
:100700008C93AACF868D8160868FF1CF26E132E06F
:10071000FC01318320830C94F4021F93CF93DF9369
:10072000EC01162F6E8D6695617081E06827812F30
:100730000E94C30B61E0812F0E94870B812F110F54
:10074000990BFC01EE52FE4FE491E88BFC01E85D51
:10075000FD4FE491F0E0EE0FFF1FE856FD4F85914D
:1007600094919A8B898BDF91CF911F9108951F935C
:10077000CF93DF93EC01162F60E0812F0E94870B4F
:100780008E8D81FD04C061E0812F0E94C30B1C8708
:10079000812F110F990BFC01EE52FE4FE491ED8772
:1007A000FC01E85DFD4FE491F0E0EE0FFF1FE25821
:1007B000FD4F859194919F878E87DF91CF911F91F7
:1007C00008951F93CF93DF93EC01162F1B821A829B
:1007D00088EE93E0A0E0B0E08C839D83AE83BF837E
:1007E00086E192E0998388831F8A1E8A198E188E6B
:1007F0001B8E1A8E1D8E1C8E8E8D8E7F20FB81F996
:100800008E8F642FCE010E948D03612FCE01DF9168
:10081000CF911F910C94B7031F920F920FB60F92B6
:1008200011240BB60F922F933F934F935F936F93C7
:100830007F938F939F93EF93FF932091E5026091B5
:10084000E402809128019091290140913F03509149
:1008500040033091E3022A3080F5840F951F762FF4
:100860007170293009F471E066952F5F371799F39D
:10087000309120017723F1F0306C30932001909378
:100880002901809328017093E3026093E40220938E
:10089000E502FF91EF919F918F917F916F915F9111
:1008A0004F913F912F910F900BBE0F900FBE0F9065
:1008B0001F9018953F7B3068E0CF3091E202E091C5
:1008C000E1023E1319C02A3051F42BE02093E502D7
:1008D000840F951F9093290180932801DACF1092FD
:1008E000E502809120018F73809320018091730035
:1008F0008D7F80937300CDCFEF5FE43408F0E0E0AC
:10090000E093E102F0E0E356FD4F30813093E402E2
:100910001092E302309120013F7B30683093200138
:100920002A3071F420913F0330914003820F931FCE
:10093000909329018093280181E08093E502A9CF5B
:1009400080912401909125014096F2CF1F920F9241
:100950000FB60F9211240BB60F922F933F934F9324
:100960005F936F937F938F939F93AF93BF93EF9317
:10097000FF93809126019091270140913C032091A3
:100980002101442309F440C02F7B209321011092C0
:100990003C0330913E0331113EC0411122C02091F1
:1009A000380330913903280F391F30932B012093DE
:1009B0002A0124E02ABB2091730024602093730055
:1009C00020913F0330914003820F931F3695279566
:1009D000280F391F30933B0320933A0381E0809323
:1009E0003E03FF91EF91BF91AF919F918F917F91C6
:1009F0006F915F914F913F912F910F900BBE0F9090
:100A00000FBE0F901F90189520642093210120E8BD
:100A100020933C03BECF40913A0350913B03609139
:100A20003F0370914003DB01A095B095E0913C033A
:100A300020913D03841B950BA817B90768F12695F3
:100A40002E2B460F571F3F5F861B970B3930A0F3A5
:100A500020933D03809173008B7F8093730080917E
:100A600037038F5F803508F080E090913603981748
:100A700049F0E82FF0E090913D03EA51FD4F90835B
:100A800080933703809121018F7B80932101109205
:100A90003C0310923E03A5CF20933D0350933B03AC
:100AA00040933A0330933E039CCF1F920F920FB6B0
:100AB0000F9211240BB60F922F938F939F93EF9366
:100AC000FF93809173008B7F80937300809121014D
:100AD0008F7B8093210180913E0320913C0320581D
:100AE00090913D03893020F49695922B8F5FFACF39
:100AF00090933D03809137038F5F803508F080E04D
:100B000020913603281739F0E82FF0E0EA51FD4F25
:100B100090838093370310923E03809121018F7B55
:100B20008093210110923C03FF91EF919F918F914F
:100B30002F910F900BBE0F900FBE0F901F90189526
:100B4000FC01918D228D892F90E0805C9F4F821B4C
:100B500091098F7399270895FC01918D828D9817C3
:100B600031F0828DE80FF11D858D90E008958FEFB3
:100B70009FEF0895FC01918D828D981761F0A28DF1
:100B8000AE0FBF2FB11D5D968C91928D9F5F9F73AD
:100B9000928F90E008958FEF9FEF0895FC01538DA1
:100BA000448D252F30E0842F90E0821B930B541747
:100BB00010F0CF9608950197089583E597E0892B6B
:100BC00049F080E090E0892B29F00E9453078111C1
:100BD0000E9400008AEE97E0892B49F080E090E0C7
:100BE000892B29F00E94EA0781110E94000080E011
:100BF00090E0892B49F080E090E0892B29F00E9459
:100C0000000081110E94000080E090E0892B49F0F3
:100C100080E090E0892B29F00E94000081110C9463
:100C200000000895FC01A48DA80FB92FB11DA35A8F
:100C3000BF4F2C91848D90E001968F739927848FFC
:100C4000A689B7892C93A089B1898C91837080641F
:100C50008C93938D848D981306C00288F389E02DC0
:100C600080818F7D80830895CF93DF93EC01888D01
:100C70008823B9F0AA89BB89E889F9898C9185FD17
:100C800003C0808186FD0DC00FB607FCF7CF8C91A5
:100C900085FFF2CF808185FFEDCFCE010E94120645
:100CA000E9CFDF91CF910895EF92FF920F931F93B9
:100CB000CF93DF93EC0181E0888F9B8D8C8D98130F
:100CC0001AC0E889F989808185FF15C09FB7F8941B
:100CD000EE89FF896083E889F98980818370806467
:100CE00080839FBF81E090E0DF91CF911F910F91B2
:100CF000FF90EF900895F62E0B8D10E00F5F1F4FC1
:100D00000F731127E02E8C8D8E110CC00FB607FCCF
:100D1000FACFE889F989808185FFF5CFCE010E945D
:100D20001206F1CFEB8DEC0FFD2FF11DE35AFF4FB3
:100D3000F0829FB7F8940B8FEA89FB8980818062EB
:100D4000CFCFCF92DF92EF92FF921F93CF93DF939B
:100D5000EC016A017B01122F60E874E88EE190E0FB
:100D6000A70196010E94F20B215031094109510956
:100D70005695479537952795E889F98982E08083CC
:100D8000211580E1380798F0E889F989108260E43C
:100D900072E48FE090E0A70196010E94F20B2150CF
:100DA0003109410951095695479537952795EC85A5
:100DB000FD853083EE85FF852083188EEC89FD89C3
:100DC0001083EA89FB89808188698083EA89FB89AD
:100DD00080818F7D8083DF91CF911F91FF90EF9075
:100DE000DF90CF9008951F920F920FB60F921124AB
:100DF0000BB60F922F938F939F93EF93FF93E091F6
:100E00005103F09152038081E0915703F091580310
:100E100082FD1DC0908180915A038F5F8F73209156
:100E20005B03821741F0E0915A03F0E0EF5BFC4F67
:100E3000958F80935A03FF91EF919F918F912F91FE
:100E40000F900BBE0F900FBE0F901F9018958081D2
:100E5000F2CF1F920F920FB60F9211240BB60F9282
:100E60002F933F934F935F936F937F938F939F93B2
:100E7000AF93BF93EF93FF9381E493E00E94120638
:100E8000FF91EF91BF91AF919F918F917F916F9162
:100E90005F914F913F912F910F900BBE0F900FBE1E
:100EA0000F901F90189581E493E00E94A00521E027
:100EB000892B09F420E0822F0895E1E4F3E0138206
:100EC000128288EE93E0A0E0B0E084839583A6834D
:100ED000B78388E292E09183808385EC90E09587E8
:100EE000848784EC90E09787868780EC90E0918BF4
:100EF000808B81EC90E0938B828B82EC90E0958BE1
:100F0000848B86EC90E0978B868B118E128E138EDD
:100F1000148E08951F920F920FB60F9211240BB6E4
:100F20000F922F938F939F93EF93FF93E091EE0394
:100F3000F091EF038081E091F403F091F50382FDDD
:100F40001DC090818091F7038F5F8F732091F8030C
:100F5000821741F0E091F703F0E0E252FC4F958FE9
:100F60008093F703FF91EF919F918F912F910F90B5
:100F70000BBE0F900FBE0F901F9018958081F2CF7F
:100F80001F920F920FB60F9211240BB60F922F9350
:100F90003F934F935F936F937F938F939F93AF9301
:100FA000BF93EF93FF938EED93E00E941206FF91A3
:100FB000EF91BF91AF919F918F917F916F915F91D1
:100FC0004F913F912F910F900BBE0F900FBE0F903E
:100FD0001F9018958EED93E00E94A00521E0892BCB
:100FE00009F420E0822F0895EEEDF3E013821282DF
:100FF00088EE93E0A0E0B0E084839583A683B78376
:1010000088E292E0918380838DEC90E095878487DD
:101010008CEC90E09787868788EC90E0918B808BB2
:1010200089EC90E0938B828B8AEC90E0958B848B9B
:101030008EEC90E0978B868B118E128E138E148E11
:101040000895AF92BF92CF92DF92EF92FF920F93EB
:101050001F93CF93DF936C017B018B01040F151F4E
:10106000EB015E01AE18BF08C017D10759F06991B6
:10107000D601ED91FC910190F081E02DC60119950A
:10108000892B79F7C501DF91CF911F910F91FF90C7
:10109000EF90DF90CF90BF90AF900895FB0101904B
:1010A0000020E9F73197AF01461B570BDC01ED91AA
:1010B000FC910280F381E02D19946115710511F006
:1010C0000C944E0890E080E0089566E372E00C9482
:1010D0004E088F929F92AF92BF92EF92FF920F9322
:1010E0001F93CF93DF93CDB7DEB7A1970FB6F894D8
:1010F000DEBF0FBECDBF7C01FA01CB0119A22230A9
:1011000008F42AE08E010F5D1F4F822E912CB12C26
:10111000A12CBF01A50194010E94F20BF901CA01A3
:101120006A300CF5605DD8016E938D01232B242B62
:10113000252B79F790E080E0109721F0BD01C701E1
:101140000E944E08A1960FB6F894DEBF0FBECDBF29
:10115000DF91CF911F910F91FF90EF90BF90AF90D3
:101160009F908F900895695CDECF2115310541F481
:10117000DC01ED91FC910190F081E02D642F199438
:101180000C9469089A01462F50E070E060E00C94DE
:10119000B50808951F920F920FB60F9211240BB647
:1011A0000F922F933F934F935F936F937F938F9300
:1011B0009F93AF93BF93EF93FF93E0910002F09161
:1011C00001021995FF91EF91BF91AF919F918F917E
:1011D0007F916F915F914F913F912F910F900BBE37
:1011E0000F900FBE0F901F9018951F920F920FB681
:1011F0000F9211240BB60F922F933F934F935F934F
:101200006F937F938F939F93AF93BF93EF93FF93CE
:10121000E0910202F09103021995FF91EF91BF91C5
:10122000AF919F918F917F916F915F914F913F917E
:101230002F910F900BBE0F900FBE0F901F9018951F
:101240001F920F920FB60F9211240BB60F922F938D
:101250003F934F935F936F937F938F939F93AF933E
:10126000BF93EF93FF93E0910402F091050219956B
:10127000FF91EF91BF91AF919F918F917F916F916E
:101280005F914F913F912F910F900BBE0F900FBE2A
:101290000F901F9018951F920F920FB60F92112466
:1012A0000BB60F922F933F934F935F936F937F9360
:1012B0008F939F93AF93BF93EF93FF93E0910602B9
:1012C000F09107021995FF91EF91BF91AF919F9116
:1012D0008F917F916F915F914F913F912F910F90DF
:1012E0000BBE0F900FBE0F901F9018951F920F927C
:1012F0000FB60F9211240BB60F922F933F934F937B
:101300005F936F937F938F939F93AF93BF93EF936D
:10131000FF93E0910802F09109021995FF91EF9176
:10132000BF91AF919F918F917F916F915F914F91FD
:101330003F912F910F900BBE0F900FBE0F901F90FB
:1013400018951F920F920FB60F9211240BB60F92A1
:101350002F933F934F935F936F937F938F939F93BD
:10136000AF93BF93EF93FF93E0910A02F0910B02CA
:101370001995FF91EF91BF91AF919F918F917F91BF
:101380006F915F914F913F912F910F900BBE0F90F6
:101390000FBE0F901F9018951F920F920FB60F92CD
:1013A00011240BB60F922F933F934F935F936F933C
:1013B0007F938F939F93AF93BF93EF93FF93E091AE
:1013C0000C02F0910D021995FF91EF91BF91AF9131
:1013D0009F918F917F916F915F914F913F912F914D
:1013E0000F900BBE0F900FBE0F901F9018951F927D
:1013F0000F920FB60F9211240BB60F922F933F93BB
:101400004F935F936F937F938F939F93AF93BF930C
:10141000EF93FF93E0910E02F0910F021995FF9167
:10142000EF91BF91AF919F918F917F916F915F915C
:101430004F913F912F910F900BBE0F900FBE0F90C9
:101440001F90189508950E94DA0A0E94220A0E94AD
:101450009D01CDEDD5E00E943F022097E1F30E946F
:10146000DD05F9CF1F920F920FB60F9211242F9323
:101470003F938F939F93AF93BF93809180049091FC
:101480008104A0918204B091830430917F0426E00E
:10149000230F2D3768F129E8230F0396A11DB11DF5
:1014A00020937F048093800490938104A09382040E
:1014B000B093830480917B0490917C04A0917D047F
:1014C000B0917E040196A11DB11D80937B04909381
:1014D0007C04A0937D04B0937E04BF91AF919F9153
:1014E0008F913F912F910F900FBE0F901F901895E5
:1014F0000296A11DB11DD4CF3FB7F89480917B0413
:1015000090917C04A0917D04B0917E0426B5A89BA7
:1015100005C02F3F19F00196A11DB11D3FBFBA2F85
:10152000A92F982F8827BC01CD01620F711D811D45
:10153000911D43E0660F771F881F991F4A95D1F7C9
:1015400008958F929F92AF92BF92CF92DF92EF92C7
:10155000FF926B017C010E947C0A4B015C01C1146B
:10156000D104E104F104E9F00E94F10B0E947C0A2D
:10157000681979098A099B09683E734081059105BC
:1015800070F321E0C21AD108E108F10888EE880E54
:1015900083E0981EA11CB11CC114D104E104F10424
:1015A00029F7FF90EF90DF90CF90BF90AF909F9082
:1015B0008F900895789484B5836084BD85B58360E9
:1015C00085BDEEE6F0E0808181608083E1E8F0E0B7
:1015D00082E08083808181608083E0E8F0E0808128
:1015E00081608083E1EBF0E0808184608083E0EBC8
:1015F000F0E0808181608083E1E9F0E080818360B8
:101600008083E0E9F0E0808181608083E1EAF0E0BE
:10161000808183608083E0EAF0E080818160808364
:10162000E1E2F1E0808183608083E0E2F1E08081AB
:101630008160808386E880937A001092C1000895CB
:101640008250823108F05FC0E82FF0E08827E45D27
:10165000F44F8F4F0C94140C800B840B3E0B440BF7
:10166000480B830B4C0B520B560B5C0B600B640B43
:101670006A0B6E0B830B720B780B7C0B80918000D6
:101680008F77809380000895809180008F7DF9CFBF
:1016900080918000877FF5CF8091B0008F77809315
:1016A000B00008958091B0008F7DF9CF80919000B7
:1016B0008F77809390000895809190008F7DF9CF6F
:1016C00080919000877FF5CF8091A0008F778093E5
:1016D000A00008958091A0008F7DF9CF8091A00097
:1016E000877FF5CF809120018F7780932001089527
:1016F000809120018F7DF9CF80912001877FF5CFE8
:1017000084B58F7784BD089584B58F7DFBCFCF934B
:10171000DF9390E0FC01EE52FE4F2491885D9D4FD7
:10172000FC0184918823C9F090E0880F991FFC0187
:10173000EE54FD4FA591B491FC01E856FD4FC591C3
:10174000D49161110DC09FB7F8948C91209582239C
:101750008C938881282328839FBFDF91CF910895A0
:10176000623051F49FB7F8943C91822F8095832387
:101770008C93E8812E2BEFCF8FB7F894EC912E2B22
:101780002C938FBFEACF1F93CF93DF93282F30E0A6
:10179000F901E458FE4F8491F901EE52FE4FD491C5
:1017A000F901E85DFD4FC491CC23A9F0162F8111FA
:1017B0000E94200BEC2FF0E0EE0FFF1FE856FD4FCC
:1017C000A591B4918FB7F894EC91111108C0D09500
:1017D000DE23DC938FBFDF91CF911F910895DE2B25
:1017E000F8CF0895A1E21A2EAA1BBB1BFD010DC064
:1017F000AA1FBB1FEE1FFF1FA217B307E407F507C1
:1018000020F0A21BB30BE40BF50B661F771F881F9C
:10181000991F1A9469F760957095809590959B0132
:10182000AC01BD01CF010895EE0FFF1F881F8BBFD4
:101830000790F691E02D199411E0C9E6D1E000E09F
:1018400006C0802FFE010E94140C2196011DCA368D
:0C185000D10780E00807A9F7F894FFCF4B
:10185C00C9080000000000000000000000000000AB
:10186C00200000000000690221084502C502DE02CA
:10187C004802C6020000000054062108CE053406BA
:0A188C00A005BA05AC050D0A000026
:00000001FF
